{
  "contractName": "Collaborator",
  "abi": [
    {
      "constant": true,
      "inputs": [
        {
          "name": "addr",
          "type": "address"
        },
        {
          "name": "roleName",
          "type": "string"
        }
      ],
      "name": "checkRole",
      "outputs": [],
      "payable": false,
      "stateMutability": "view",
      "type": "function"
    },
    {
      "constant": true,
      "inputs": [],
      "name": "ROLE_AMBASSADOR",
      "outputs": [
        {
          "name": "",
          "type": "string"
        }
      ],
      "payable": false,
      "stateMutability": "view",
      "type": "function"
    },
    {
      "constant": true,
      "inputs": [
        {
          "name": "addr",
          "type": "address"
        },
        {
          "name": "roleName",
          "type": "string"
        }
      ],
      "name": "hasRole",
      "outputs": [
        {
          "name": "",
          "type": "bool"
        }
      ],
      "payable": false,
      "stateMutability": "view",
      "type": "function"
    },
    {
      "constant": true,
      "inputs": [],
      "name": "owner",
      "outputs": [
        {
          "name": "",
          "type": "address"
        }
      ],
      "payable": false,
      "stateMutability": "view",
      "type": "function"
    },
    {
      "constant": true,
      "inputs": [],
      "name": "ROLE_ADVISOR",
      "outputs": [
        {
          "name": "",
          "type": "string"
        }
      ],
      "payable": false,
      "stateMutability": "view",
      "type": "function"
    },
    {
      "constant": true,
      "inputs": [],
      "name": "ROLE_ADMIN",
      "outputs": [
        {
          "name": "",
          "type": "string"
        }
      ],
      "payable": false,
      "stateMutability": "view",
      "type": "function"
    },
    {
      "constant": true,
      "inputs": [],
      "name": "ROLE_COLLABORATOR",
      "outputs": [
        {
          "name": "",
          "type": "string"
        }
      ],
      "payable": false,
      "stateMutability": "view",
      "type": "function"
    },
    {
      "constant": true,
      "inputs": [],
      "name": "ROLE_ESPECIALIST",
      "outputs": [
        {
          "name": "",
          "type": "string"
        }
      ],
      "payable": false,
      "stateMutability": "view",
      "type": "function"
    },
    {
      "inputs": [],
      "payable": false,
      "stateMutability": "nonpayable",
      "type": "constructor"
    },
    {
      "anonymous": false,
      "inputs": [
        {
          "indexed": false,
          "name": "collaborator",
          "type": "address"
        }
      ],
      "name": "NewCollaborator",
      "type": "event"
    },
    {
      "anonymous": false,
      "inputs": [
        {
          "indexed": false,
          "name": "qtd",
          "type": "uint8"
        },
        {
          "indexed": false,
          "name": "responsable",
          "type": "address"
        }
      ],
      "name": "NewAdvisors",
      "type": "event"
    },
    {
      "anonymous": false,
      "inputs": [
        {
          "indexed": false,
          "name": "addr",
          "type": "address"
        },
        {
          "indexed": false,
          "name": "roleName",
          "type": "string"
        }
      ],
      "name": "RoleAdded",
      "type": "event"
    },
    {
      "anonymous": false,
      "inputs": [
        {
          "indexed": false,
          "name": "addr",
          "type": "address"
        },
        {
          "indexed": false,
          "name": "roleName",
          "type": "string"
        }
      ],
      "name": "RoleRemoved",
      "type": "event"
    },
    {
      "anonymous": false,
      "inputs": [
        {
          "indexed": true,
          "name": "previousOwner",
          "type": "address"
        },
        {
          "indexed": true,
          "name": "newOwner",
          "type": "address"
        }
      ],
      "name": "OwnershipTransferred",
      "type": "event"
    },
    {
      "constant": false,
      "inputs": [
        {
          "name": "_advisors",
          "type": "address[]"
        }
      ],
      "name": "addAdvisors",
      "outputs": [],
      "payable": false,
      "stateMutability": "nonpayable",
      "type": "function"
    },
    {
      "constant": false,
      "inputs": [
        {
          "name": "addr",
          "type": "address"
        },
        {
          "name": "roleName",
          "type": "string"
        }
      ],
      "name": "adminRemoveRole",
      "outputs": [],
      "payable": false,
      "stateMutability": "nonpayable",
      "type": "function"
    },
    {
      "constant": false,
      "inputs": [
        {
          "name": "_addr",
          "type": "address"
        }
      ],
      "name": "removeAdvisor",
      "outputs": [],
      "payable": false,
      "stateMutability": "nonpayable",
      "type": "function"
    },
    {
      "constant": false,
      "inputs": [
        {
          "name": "_newSuperuser",
          "type": "address"
        }
      ],
      "name": "transferAdmin",
      "outputs": [],
      "payable": false,
      "stateMutability": "nonpayable",
      "type": "function"
    },
    {
      "constant": true,
      "inputs": [
        {
          "name": "_addressUser",
          "type": "address"
        }
      ],
      "name": "isCollaborator",
      "outputs": [
        {
          "name": "_isCollaborator",
          "type": "bool"
        }
      ],
      "payable": false,
      "stateMutability": "view",
      "type": "function"
    }
  ],
  "bytecode": "0x60806040523480156200001157600080fd5b50336000806101000a81548173ffffffffffffffffffffffffffffffffffffffff021916908373ffffffffffffffffffffffffffffffffffffffff160217905550620000a2336040805190810160405280600581526020017f61646d696e000000000000000000000000000000000000000000000000000000815250620000f8640100000000026401000000009004565b620000f2336040805190810160405280600781526020017f61647669736f7200000000000000000000000000000000000000000000000000815250620000f8640100000000026401000000009004565b620002bc565b62000187826001836040518082805190602001908083835b60208310151562000137578051825260208201915060208101905060208303925062000110565b6001836020036101000a03801982511681845116808217855250505050505090500191505090815260200160405180910390206200025e64010000000002620011da179091906401000000009004565b7fbfec83d64eaa953f2708271a023ab9ee82057f8f3578d548c1a4ba0b5b7004898282604051808373ffffffffffffffffffffffffffffffffffffffff1673ffffffffffffffffffffffffffffffffffffffff16815260200180602001828103825283818151815260200191508051906020019080838360005b838110156200021e57808201518184015260208101905062000201565b50505050905090810190601f1680156200024c5780820380516001836020036101000a031916815260200191505b50935050505060405180910390a15050565b60018260000160008373ffffffffffffffffffffffffffffffffffffffff1673ffffffffffffffffffffffffffffffffffffffff16815260200190815260200160002060006101000a81548160ff0219169083151502179055505050565b61126480620002cc6000396000f3006080604052600436106100c5576000357c0100000000000000000000000000000000000000000000000000000000900463ffffffff1680630988ca8c146100ca5780630bbc74c6146101535780630eeccb84146101e3578063217fe6c6146102265780636af8c4e7146102c7578063730cc4fa1461032257806375829def1461038857806388cee87e146103cb5780638da5cb5b14610454578063d1f8a4c1146104ab578063d391014b1461053b578063ed3e024a146105cb578063f583369b1461065b575b600080fd5b3480156100d657600080fd5b50610151600480360381019080803573ffffffffffffffffffffffffffffffffffffffff169060200190929190803590602001908201803590602001908080601f01602080910402602001604051908101604052809392919081815260200183838082843782019150505050505091929192905050506106eb565b005b34801561015f57600080fd5b5061016861076c565b6040518080602001828103825283818151815260200191508051906020019080838360005b838110156101a857808201518184015260208101905061018d565b50505050905090810190601f1680156101d55780820380516001836020036101000a031916815260200191505b509250505060405180910390f35b3480156101ef57600080fd5b50610224600480360381019080803573ffffffffffffffffffffffffffffffffffffffff1690602001909291905050506107a5565b005b34801561023257600080fd5b506102ad600480360381019080803573ffffffffffffffffffffffffffffffffffffffff169060200190929190803590602001908201803590602001908080601f0160208091040260200160405190810160405280939291908181526020018383808284378201915050505050509192919290505050610865565b604051808215151515815260200191505060405180910390f35b3480156102d357600080fd5b50610308600480360381019080803573ffffffffffffffffffffffffffffffffffffffff1690602001909291905050506108ec565b604051808215151515815260200191505060405180910390f35b34801561032e57600080fd5b5061038660048036038101908080359060200190820180359060200190808060200260200160405190810160405280939291908181526020018383602002808284378201915050505050509192919290505050610a4c565b005b34801561039457600080fd5b506103c9600480360381019080803573ffffffffffffffffffffffffffffffffffffffff169060200190929190505050610bc5565b005b3480156103d757600080fd5b50610452600480360381019080803573ffffffffffffffffffffffffffffffffffffffff169060200190929190803590602001908201803590602001908080601f0160208091040260200160405190810160405280939291908181526020018383808284378201915050505050509192919290505050610cc1565b005b34801561046057600080fd5b50610469610d5f565b604051808273ffffffffffffffffffffffffffffffffffffffff1673ffffffffffffffffffffffffffffffffffffffff16815260200191505060405180910390f35b3480156104b757600080fd5b506104c0610d84565b6040518080602001828103825283818151815260200191508051906020019080838360005b838110156105005780820151818401526020810190506104e5565b50505050905090810190601f16801561052d5780820380516001836020036101000a031916815260200191505b509250505060405180910390f35b34801561054757600080fd5b50610550610dbd565b6040518080602001828103825283818151815260200191508051906020019080838360005b83811015610590578082015181840152602081019050610575565b50505050905090810190601f1680156105bd5780820380516001836020036101000a031916815260200191505b509250505060405180910390f35b3480156105d757600080fd5b506105e0610df6565b6040518080602001828103825283818151815260200191508051906020019080838360005b83811015610620578082015181840152602081019050610605565b50505050905090810190601f16801561064d5780820380516001836020036101000a031916815260200191505b509250505060405180910390f35b34801561066757600080fd5b50610670610e2f565b6040518080602001828103825283818151815260200191508051906020019080838360005b838110156106b0578082015181840152602081019050610695565b50505050905090810190601f1680156106dd5780820380516001836020036101000a031916815260200191505b509250505060405180910390f35b610768826001836040518082805190602001908083835b6020831015156107275780518252602082019150602081019050602083039250610702565b6001836020036101000a0380198251168184511680821785525050505050509050019150509081526020016040518091039020610e6890919063ffffffff16565b5050565b6040805190810160405280600a81526020017f616d6261737361646f720000000000000000000000000000000000000000000081525081565b6107e4336040805190810160405280600581526020017f61646d696e0000000000000000000000000000000000000000000000000000008152506106eb565b610823816040805190810160405280600781526020017f61647669736f72000000000000000000000000000000000000000000000000008152506106eb565b610862816040805190810160405280600781526020017f61647669736f7200000000000000000000000000000000000000000000000000815250610e81565b50565b60006108e4836001846040518082805190602001908083835b6020831015156108a3578051825260208201915060208101905060208303925061087e565b6001836020036101000a0380198251168184511680821785525050505050509050019150509081526020016040518091039020610fd290919063ffffffff16565b905092915050565b600061092d826040805190810160405280600581526020017f61646d696e000000000000000000000000000000000000000000000000000000815250610865565b806109735750610972826040805190810160405280600781526020017f61647669736f7200000000000000000000000000000000000000000000000000815250610865565b5b806109b957506109b8826040805190810160405280600b81526020017f657370656369616c697374000000000000000000000000000000000000000000815250610865565b5b806109ff57506109fe826040805190810160405280600a81526020017f616d6261737361646f7200000000000000000000000000000000000000000000815250610865565b5b80610a455750610a44826040805190810160405280600c81526020017f636f6c6c61626f7261746f720000000000000000000000000000000000000000815250610865565b5b9050919050565b6000610a8d336040805190810160405280600581526020017f61646d696e000000000000000000000000000000000000000000000000000000815250610865565b80610ad35750610ad2336040805190810160405280600781526020017f61647669736f7200000000000000000000000000000000000000000000000000815250610865565b5b1515610ade57600080fd5b600090505b8151811015610b4f57610b428282815181101515610afd57fe5b906020019060200201516040805190810160405280600781526020017f61647669736f720000000000000000000000000000000000000000000000000081525061102b565b8080600101915050610ae3565b7ff6b3dad323d4fe309efd8e13dfa1c0c9468967428cab4fc2de574e99be84e095825133604051808360ff1660ff1681526020018273ffffffffffffffffffffffffffffffffffffffff1673ffffffffffffffffffffffffffffffffffffffff1681526020019250505060405180910390a15050565b610c04336040805190810160405280600581526020017f61646d696e0000000000000000000000000000000000000000000000000000008152506106eb565b600073ffffffffffffffffffffffffffffffffffffffff168173ffffffffffffffffffffffffffffffffffffffff1614151515610c4057600080fd5b610c7f336040805190810160405280600581526020017f61646d696e000000000000000000000000000000000000000000000000000000815250610e81565b610cbe816040805190810160405280600581526020017f61646d696e00000000000000000000000000000000000000000000000000000081525061102b565b50565b610d00336040805190810160405280600581526020017f61646d696e000000000000000000000000000000000000000000000000000000815250610865565b80610d465750610d45336040805190810160405280600781526020017f61647669736f7200000000000000000000000000000000000000000000000000815250610865565b5b1515610d5157600080fd5b610d5b8282610e81565b5050565b6000809054906101000a900473ffffffffffffffffffffffffffffffffffffffff1681565b6040805190810160405280600781526020017f61647669736f720000000000000000000000000000000000000000000000000081525081565b6040805190810160405280600581526020017f61646d696e00000000000000000000000000000000000000000000000000000081525081565b6040805190810160405280600c81526020017f636f6c6c61626f7261746f72000000000000000000000000000000000000000081525081565b6040805190810160405280600b81526020017f657370656369616c69737400000000000000000000000000000000000000000081525081565b610e728282610fd2565b1515610e7d57600080fd5b5050565b610efe826001836040518082805190602001908083835b602083101515610ebd5780518252602082019150602081019050602083039250610e98565b6001836020036101000a038019825116818451168082178552505050505050905001915050908152602001604051809103902061117c90919063ffffffff16565b7fd211483f91fc6eff862467f8de606587a30c8fc9981056f051b897a418df803a8282604051808373ffffffffffffffffffffffffffffffffffffffff1673ffffffffffffffffffffffffffffffffffffffff16815260200180602001828103825283818151815260200191508051906020019080838360005b83811015610f93578082015181840152602081019050610f78565b50505050905090810190601f168015610fc05780820380516001836020036101000a031916815260200191505b50935050505060405180910390a15050565b60008260000160008373ffffffffffffffffffffffffffffffffffffffff1673ffffffffffffffffffffffffffffffffffffffff16815260200190815260200160002060009054906101000a900460ff16905092915050565b6110a8826001836040518082805190602001908083835b6020831015156110675780518252602082019150602081019050602083039250611042565b6001836020036101000a03801982511681845116808217855250505050505090500191505090815260200160405180910390206111da90919063ffffffff16565b7fbfec83d64eaa953f2708271a023ab9ee82057f8f3578d548c1a4ba0b5b7004898282604051808373ffffffffffffffffffffffffffffffffffffffff1673ffffffffffffffffffffffffffffffffffffffff16815260200180602001828103825283818151815260200191508051906020019080838360005b8381101561113d578082015181840152602081019050611122565b50505050905090810190601f16801561116a5780820380516001836020036101000a031916815260200191505b50935050505060405180910390a15050565b60008260000160008373ffffffffffffffffffffffffffffffffffffffff1673ffffffffffffffffffffffffffffffffffffffff16815260200190815260200160002060006101000a81548160ff0219169083151502179055505050565b60018260000160008373ffffffffffffffffffffffffffffffffffffffff1673ffffffffffffffffffffffffffffffffffffffff16815260200190815260200160002060006101000a81548160ff02191690831515021790555050505600a165627a7a7230582028b1fc4977fc87cfc7fdffe716807c62485204e359e506960d02c963f01578980029",
  "source": "pragma solidity ^0.4.23;\n\nimport \"./zeppelin/ownership/Ownable.sol\";\nimport \"./zeppelin/ownership/rbac/RBAC.sol\";\n\ncontract Collaborator is Ownable, RBAC {\n    \n    /**\n    * A constant role name for indicating admins.\n    */\n    string public constant ROLE_ADMIN = \"admin\";\n    string public constant ROLE_ADVISOR = \"advisor\";\n    string public constant ROLE_ESPECIALIST = \"especialist\";\n    string public constant ROLE_AMBASSADOR = \"ambassador\";\n    string public constant ROLE_COLLABORATOR = \"collaborator\";\n\n    event NewCollaborator(address collaborator);\n    event NewAdvisors(uint8 qtd, address responsable);\n\n    /**\n    * @dev constructor. Sets msg.sender as admin by default\n    */\n    constructor() public\n    {\n        addRole(msg.sender, ROLE_ADMIN);\n        addRole(msg.sender, ROLE_ADVISOR);     \n    }\n\n    /**\n    * @dev modifier to scope access to admins\n    * // reverts\n    */\n    modifier onlyAdmin()\n    {\n        checkRole(msg.sender, ROLE_ADMIN);\n        _;\n    }\n\n    modifier onlyAdminOrAdvisor()\n    {\n        require(\n            hasRole(msg.sender, ROLE_ADMIN) ||\n            hasRole(msg.sender, ROLE_ADVISOR)\n        );\n        _;\n    }\n\n    modifier onlyAdminEspecialistOrAdvisor()\n    {\n        require(\n            hasRole(msg.sender, ROLE_ADMIN) ||\n            hasRole(msg.sender, ROLE_ADVISOR) ||\n            hasRole(msg.sender, ROLE_ESPECIALIST)\n        );\n        _;\n    }\n\n    modifier onlyCollaborator(address _addressUser)\n    {\n        require(isCollaborator(_addressUser));\n        _;\n    }    \n\n    /**\n    * @dev add a collaborator\n    **/\n    function addCollaborator(address collaborator) internal {\n        addRole(collaborator, ROLE_COLLABORATOR);\n        emit NewCollaborator(collaborator);\n    }  \n\n    /**\n    * @dev addAdvisors. add address of advisors\n    * @param _advisors array with the address of advisors\n    */\n    function addAdvisors(address[] _advisors) public onlyAdminOrAdvisor\n    {\n        for (uint256 i = 0; i < _advisors.length; i++) {\n            addRole(_advisors[i], ROLE_ADVISOR);\n        }\n        emit NewAdvisors(uint8(_advisors.length), msg.sender);\n    }\n\n    /**\n    * @dev remove a role from an address\n    * @param addr address\n    * @param roleName the name of the role\n    */\n    function adminRemoveRole(address addr, string roleName) onlyAdminOrAdvisor\n        public\n    {\n        removeRole(addr, roleName);\n    }\n\n    // admins can remove advisor's role\n    function removeAdvisor(address _addr) onlyAdmin  public {\n        // revert if the user isn't an advisor\n        //  (perhaps you want to soft-fail here instead?)\n        checkRole(_addr, ROLE_ADVISOR);\n        // remove the advisor's role\n        removeRole(_addr, ROLE_ADVISOR);\n    }\n\n    /**\n    * @dev Allows the current superuser to transfer his role to a newSuperuser.\n    * @param _newSuperuser The address to transfer ownership to.\n    */\n    function transferAdmin(address _newSuperuser) onlyAdmin public\n    {\n        require(_newSuperuser != address(0));\n        removeRole(msg.sender, ROLE_ADMIN);\n        addRole(_newSuperuser, ROLE_ADMIN);\n    }\n\n    /**\n    * @dev verify if the current address is a collaborator;\n    * @param _addressUser The address to verify\n    * @return _isCollaborator return true if the address is a collaborator\n    */\n    function isCollaborator(address _addressUser) public view returns(bool _isCollaborator)\n    {\n        return (\n            hasRole(_addressUser, ROLE_ADMIN) ||\n            hasRole(_addressUser, ROLE_ADVISOR) ||\n            hasRole(_addressUser, ROLE_ESPECIALIST) ||\n            hasRole(_addressUser, ROLE_AMBASSADOR) || \n            hasRole(_addressUser, ROLE_COLLABORATOR)            \n        );\n    }\n}\n\n",
  "sourcePath": "/Users/hgleite/Documents/henrique/GoBlockchain/smart-contract-identity/contracts/Collaborator.sol",
  "compiler": {
    "name": "solc",
    "version": "0.4.24+commit.e67f0147.Emscripten.clang"
  },
  "schemaVersion": "2.0.0",
  "updatedAt": "2018-08-18T23:53:43.608Z"
}