{
  "contractName": "Collaborator",
  "abi": [
    {
      "constant": true,
      "inputs": [
        {
          "name": "addr",
          "type": "address"
        },
        {
          "name": "roleName",
          "type": "string"
        }
      ],
      "name": "checkRole",
      "outputs": [],
      "payable": false,
      "stateMutability": "view",
      "type": "function"
    },
    {
      "constant": true,
      "inputs": [
        {
          "name": "addr",
          "type": "address"
        },
        {
          "name": "roleName",
          "type": "string"
        }
      ],
      "name": "hasRole",
      "outputs": [
        {
          "name": "",
          "type": "bool"
        }
      ],
      "payable": false,
      "stateMutability": "view",
      "type": "function"
    },
    {
      "constant": true,
      "inputs": [],
      "name": "retu",
      "outputs": [
        {
          "name": "",
          "type": "uint8"
        }
      ],
      "payable": false,
      "stateMutability": "view",
      "type": "function"
    },
    {
      "constant": true,
      "inputs": [],
      "name": "owner",
      "outputs": [
        {
          "name": "",
          "type": "address"
        }
      ],
      "payable": false,
      "stateMutability": "view",
      "type": "function"
    },
    {
      "constant": true,
      "inputs": [],
      "name": "ROLE_ADMIN",
      "outputs": [
        {
          "name": "",
          "type": "string"
        }
      ],
      "payable": false,
      "stateMutability": "view",
      "type": "function"
    },
    {
      "constant": false,
      "inputs": [
        {
          "name": "_type",
          "type": "uint8"
        },
        {
          "name": "_start",
          "type": "uint64"
        },
        {
          "name": "_end",
          "type": "uint64"
        }
      ],
      "name": "addReputation",
      "outputs": [],
      "payable": false,
      "stateMutability": "nonpayable",
      "type": "function"
    },
    {
      "constant": false,
      "inputs": [
        {
          "name": "_type",
          "type": "uint8"
        }
      ],
      "name": "removeReputation",
      "outputs": [],
      "payable": false,
      "stateMutability": "nonpayable",
      "type": "function"
    },
    {
      "constant": true,
      "inputs": [],
      "name": "ROLE_COLLABORATOR",
      "outputs": [
        {
          "name": "",
          "type": "string"
        }
      ],
      "payable": false,
      "stateMutability": "view",
      "type": "function"
    },
    {
      "inputs": [],
      "payable": false,
      "stateMutability": "nonpayable",
      "type": "constructor"
    },
    {
      "anonymous": false,
      "inputs": [
        {
          "indexed": false,
          "name": "collaborator",
          "type": "address"
        }
      ],
      "name": "NewCollaborator",
      "type": "event"
    },
    {
      "anonymous": false,
      "inputs": [
        {
          "indexed": false,
          "name": "qtd",
          "type": "uint8"
        },
        {
          "indexed": false,
          "name": "responsable",
          "type": "address"
        }
      ],
      "name": "NewAdvisors",
      "type": "event"
    },
    {
      "anonymous": false,
      "inputs": [
        {
          "indexed": false,
          "name": "addr",
          "type": "address"
        },
        {
          "indexed": false,
          "name": "roleName",
          "type": "string"
        }
      ],
      "name": "RoleAdded",
      "type": "event"
    },
    {
      "anonymous": false,
      "inputs": [
        {
          "indexed": false,
          "name": "addr",
          "type": "address"
        },
        {
          "indexed": false,
          "name": "roleName",
          "type": "string"
        }
      ],
      "name": "RoleRemoved",
      "type": "event"
    },
    {
      "anonymous": false,
      "inputs": [
        {
          "indexed": true,
          "name": "previousOwner",
          "type": "address"
        },
        {
          "indexed": true,
          "name": "newOwner",
          "type": "address"
        }
      ],
      "name": "OwnershipTransferred",
      "type": "event"
    },
    {
      "constant": false,
      "inputs": [
        {
          "name": "addr",
          "type": "address"
        },
        {
          "name": "roleName",
          "type": "string"
        }
      ],
      "name": "adminRemoveRole",
      "outputs": [],
      "payable": false,
      "stateMutability": "nonpayable",
      "type": "function"
    },
    {
      "constant": false,
      "inputs": [
        {
          "name": "_newSuperuser",
          "type": "address"
        }
      ],
      "name": "transferAdmin",
      "outputs": [],
      "payable": false,
      "stateMutability": "nonpayable",
      "type": "function"
    }
  ],
  "bytecode": "0x608060405234801561001057600080fd5b50336000806101000a81548173ffffffffffffffffffffffffffffffffffffffff021916908373ffffffffffffffffffffffffffffffffffffffff16021790555061009f336040805190810160405280600581526020017f61646d696e0000000000000000000000000000000000000000000000000000008152506100a4640100000000026401000000009004565b610260565b61012e826002836040518082805190602001908083835b6020831015156100e057805182526020820191506020810190506020830392506100bb565b6001836020036101000a0380198251168184511680821785525050505050509050019150509081526020016040518091039020610202640100000000026110b5179091906401000000009004565b7fbfec83d64eaa953f2708271a023ab9ee82057f8f3578d548c1a4ba0b5b7004898282604051808373ffffffffffffffffffffffffffffffffffffffff1673ffffffffffffffffffffffffffffffffffffffff16815260200180602001828103825283818151815260200191508051906020019080838360005b838110156101c35780820151818401526020810190506101a8565b50505050905090810190601f1680156101f05780820380516001836020036101000a031916815260200191505b50935050505060405180910390a15050565b60018260000160008373ffffffffffffffffffffffffffffffffffffffff1673ffffffffffffffffffffffffffffffffffffffff16815260200190815260200160002060006101000a81548160ff0219169083151502179055505050565b61116d8061026f6000396000f3006080604052600436106100a4576000357c0100000000000000000000000000000000000000000000000000000000900463ffffffff1680630988ca8c146100a9578063217fe6c6146101325780633fc2651f146101d357806375829def1461020c57806388cee87e1461024f5780638da5cb5b146102d8578063d391014b1461032f578063d56c40dd146103bf578063dd059ed514610417578063ed3e024a14610447575b600080fd5b3480156100b557600080fd5b50610130600480360381019080803573ffffffffffffffffffffffffffffffffffffffff169060200190929190803590602001908201803590602001908080601f01602080910402602001604051908101604052809392919081815260200183838082843782019150505050505091929192905050506104d7565b005b34801561013e57600080fd5b506101b9600480360381019080803573ffffffffffffffffffffffffffffffffffffffff169060200190929190803590602001908201803590602001908080601f0160208091040260200160405190810160405280939291908181526020018383808284378201915050505050509192919290505050610558565b604051808215151515815260200191505060405180910390f35b3480156101df57600080fd5b506101e86105df565b604051808260038111156101f857fe5b60ff16815260200191505060405180910390f35b34801561021857600080fd5b5061024d600480360381019080803573ffffffffffffffffffffffffffffffffffffffff1690602001909291905050506105f2565b005b34801561025b57600080fd5b506102d6600480360381019080803573ffffffffffffffffffffffffffffffffffffffff169060200190929190803590602001908201803590602001908080601f0160208091040260200160405190810160405280939291908181526020018383808284378201915050505050509192919290505050610817565b005b3480156102e457600080fd5b506102ed6108d8565b604051808273ffffffffffffffffffffffffffffffffffffffff1673ffffffffffffffffffffffffffffffffffffffff16815260200191505060405180910390f35b34801561033b57600080fd5b506103446108fd565b6040518080602001828103825283818151815260200191508051906020019080838360005b83811015610384578082015181840152602081019050610369565b50505050905090810190601f1680156103b15780820380516001836020036101000a031916815260200191505b509250505060405180910390f35b3480156103cb57600080fd5b50610415600480360381019080803560ff169060200190929190803567ffffffffffffffff169060200190929190803567ffffffffffffffff169060200190929190505050610936565b005b34801561042357600080fd5b50610445600480360381019080803560ff169060200190929190505050610b77565b005b34801561045357600080fd5b5061045c610d0a565b6040518080602001828103825283818151815260200191508051906020019080838360005b8381101561049c578082015181840152602081019050610481565b50505050905090810190601f1680156104c95780820380516001836020036101000a031916815260200191505b509250505060405180910390f35b610554826002836040518082805190602001908083835b60208310151561051357805182526020820191506020810190506020830392506104ee565b6001836020036101000a0380198251168184511680821785525050505050509050019150509081526020016040518091039020610d4390919063ffffffff16565b5050565b60006105d7836002846040518082805190602001908083835b6020831015156105965780518252602082019150602081019050602083039250610571565b6001836020036101000a0380198251168184511680821785525050505050509050019150509081526020016040518091039020610d5c90919063ffffffff16565b905092915050565b600060149054906101000a900460ff1681565b610631336040805190810160405280600581526020017f61646d696e000000000000000000000000000000000000000000000000000000815250610558565b15156106a5576040517f08c379a00000000000000000000000000000000000000000000000000000000081526004018080602001828103825260198152602001807f4e6563657373617279206f6e6c7920524f4c455f41444d494e0000000000000081525060200191505060405180910390fd5b806106e5816040805190810160405280600c81526020017f636f6c6c61626f7261746f720000000000000000000000000000000000000000815250610558565b1515610759576040517f08c379a00000000000000000000000000000000000000000000000000000000081526004018080602001828103825260208152602001807f4e6563657373617279206f6e6c7920524f4c455f434f4c4c41424f5241544f5281525060200191505060405180910390fd5b600073ffffffffffffffffffffffffffffffffffffffff168273ffffffffffffffffffffffffffffffffffffffff161415151561079557600080fd5b6107d4336040805190810160405280600581526020017f61646d696e000000000000000000000000000000000000000000000000000000815250610db5565b610813826040805190810160405280600581526020017f61646d696e000000000000000000000000000000000000000000000000000000815250610f06565b5050565b610856336040805190810160405280600581526020017f61646d696e000000000000000000000000000000000000000000000000000000815250610558565b15156108ca576040517f08c379a00000000000000000000000000000000000000000000000000000000081526004018080602001828103825260198152602001807f4e6563657373617279206f6e6c7920524f4c455f41444d494e0000000000000081525060200191505060405180910390fd5b6108d48282610db5565b5050565b6000809054906101000a900473ffffffffffffffffffffffffffffffffffffffff1681565b6040805190810160405280600581526020017f61646d696e00000000000000000000000000000000000000000000000000000081525081565b61093e611113565b6000809054906101000a900473ffffffffffffffffffffffffffffffffffffffff1673ffffffffffffffffffffffffffffffffffffffff163373ffffffffffffffffffffffffffffffffffffffff1614151561099957600080fd5b600160008560038111156109a957fe5b60ff1660ff16815260200190815260200160002060020160009054906101000a900460ff16151515610a43576040517f08c379a000000000000000000000000000000000000000000000000000000000815260040180806020018281038252600e8152602001807f50726f66696c652065786973747300000000000000000000000000000000000081525060200191505060405180910390fd5b60408051908101604052808467ffffffffffffffff1681526020018367ffffffffffffffff168152509050606060405190810160405280856003811115610a8657fe5b81526020018281526020016001151581525060016000866003811115610aa857fe5b60ff1660ff16815260200190815260200160002060008201518160000160006101000a81548160ff02191690836003811115610ae057fe5b021790555060208201518160010160008201518160000160006101000a81548167ffffffffffffffff021916908367ffffffffffffffff16021790555060208201518160000160086101000a81548167ffffffffffffffff021916908367ffffffffffffffff160217905550505060408201518160020160006101000a81548160ff02191690831515021790555090505050505050565b6000809054906101000a900473ffffffffffffffffffffffffffffffffffffffff1673ffffffffffffffffffffffffffffffffffffffff163373ffffffffffffffffffffffffffffffffffffffff16141515610bd257600080fd5b60016000826003811115610be257fe5b60ff1660ff16815260200190815260200160002060020160009054906101000a900460ff161515610c7b576040517f08c379a00000000000000000000000000000000000000000000000000000000081526004018080602001828103825260198152602001807f50726f66696c6520616c72656164792063616e63656c6c65640000000000000081525060200191505060405180910390fd5b60016000826003811115610c8b57fe5b60ff1660ff168152602001908152602001600020600080820160006101000a81549060ff021916905560018201600080820160006101000a81549067ffffffffffffffff02191690556000820160086101000a81549067ffffffffffffffff021916905550506002820160006101000a81549060ff0219169055505050565b6040805190810160405280600c81526020017f636f6c6c61626f7261746f72000000000000000000000000000000000000000081525081565b610d4d8282610d5c565b1515610d5857600080fd5b5050565b60008260000160008373ffffffffffffffffffffffffffffffffffffffff1673ffffffffffffffffffffffffffffffffffffffff16815260200190815260200160002060009054906101000a900460ff16905092915050565b610e32826002836040518082805190602001908083835b602083101515610df15780518252602082019150602081019050602083039250610dcc565b6001836020036101000a038019825116818451168082178552505050505050905001915050908152602001604051809103902061105790919063ffffffff16565b7fd211483f91fc6eff862467f8de606587a30c8fc9981056f051b897a418df803a8282604051808373ffffffffffffffffffffffffffffffffffffffff1673ffffffffffffffffffffffffffffffffffffffff16815260200180602001828103825283818151815260200191508051906020019080838360005b83811015610ec7578082015181840152602081019050610eac565b50505050905090810190601f168015610ef45780820380516001836020036101000a031916815260200191505b50935050505060405180910390a15050565b610f83826002836040518082805190602001908083835b602083101515610f425780518252602082019150602081019050602083039250610f1d565b6001836020036101000a03801982511681845116808217855250505050505090500191505090815260200160405180910390206110b590919063ffffffff16565b7fbfec83d64eaa953f2708271a023ab9ee82057f8f3578d548c1a4ba0b5b7004898282604051808373ffffffffffffffffffffffffffffffffffffffff1673ffffffffffffffffffffffffffffffffffffffff16815260200180602001828103825283818151815260200191508051906020019080838360005b83811015611018578082015181840152602081019050610ffd565b50505050905090810190601f1680156110455780820380516001836020036101000a031916815260200191505b50935050505060405180910390a15050565b60008260000160008373ffffffffffffffffffffffffffffffffffffffff1673ffffffffffffffffffffffffffffffffffffffff16815260200190815260200160002060006101000a81548160ff0219169083151502179055505050565b60018260000160008373ffffffffffffffffffffffffffffffffffffffff1673ffffffffffffffffffffffffffffffffffffffff16815260200190815260200160002060006101000a81548160ff0219169083151502179055505050565b6040805190810160405280600067ffffffffffffffff168152602001600067ffffffffffffffff16815250905600a165627a7a72305820c360d728f9ad62e3d625ddf1eeb5ece84a5ae5a317af1576dffbb130111aaf600029",
  "source": "pragma solidity ^0.4.23;\n\nimport \"./zeppelin/ownership/rbac/RBAC.sol\";\nimport \"./Reputation.sol\";\n\ncontract Collaborator is Reputation, RBAC {\n    \n    /**\n    * A constant role name for indicating admins.\n    */\n    string public constant ROLE_ADMIN = \"admin\";\n    string public constant ROLE_COLLABORATOR = \"collaborator\";\n\n    event NewCollaborator(address collaborator);\n    event NewAdvisors(uint8 qtd, address responsable);\n\n    /**\n    * @dev constructor. Sets msg.sender as admin by default\n    */\n    constructor() public {\n        addRole(msg.sender, ROLE_ADMIN);\n    }\n\n    /**\n    * @dev modifier to scope access to admins\n    * // require\n    */\n    modifier onlyAdmin() {\n        require(hasRole(msg.sender, ROLE_ADMIN), \"Necessary only ROLE_ADMIN\");\n        _;\n    }\n\n    modifier onlyCollaborator(address _addressUser) {\n        require(hasRole(_addressUser, ROLE_COLLABORATOR), \"Necessary only ROLE_COLLABORATOR\");\n        _;\n    }    \n\n    /**\n    * @dev add a collaborator\n    **/\n    function addCollaborator(address collaborator) internal {\n        addRole(collaborator, ROLE_COLLABORATOR);\n        emit NewCollaborator(collaborator);\n    }  \n\n    /**\n    * @dev remove a role from an address\n    * @param addr address\n    * @param roleName the name of the role\n    */\n    function adminRemoveRole(address addr, string roleName) onlyAdmin\n        public {\n        removeRole(addr, roleName);\n    }\n\n    /**\n    * @dev Allows the current superuser to transfer his role to a newSuperuser.\n    * @param _newSuperuser The address to transfer ownership to.\n    */\n    function transferAdmin(address _newSuperuser) onlyAdmin onlyCollaborator(_newSuperuser) public {\n        require(_newSuperuser != address(0));\n        removeRole(msg.sender, ROLE_ADMIN);\n        addRole(_newSuperuser, ROLE_ADMIN);\n    }\n}\n\n",
  "sourcePath": "/Users/hgleite/Documents/henrique/GoBlockchain/smart-contract-identity/contracts/Collaborator.sol",
  "compiler": {
    "name": "solc",
    "version": "0.4.24+commit.e67f0147.Emscripten.clang"
  },
  "schemaVersion": "2.0.0",
  "updatedAt": "2018-08-29T05:05:33.122Z"
}