{
  "contractName": "Collaborator",
  "abi": [
    {
      "constant": true,
      "inputs": [
        {
          "name": "addr",
          "type": "address"
        },
        {
          "name": "roleName",
          "type": "string"
        }
      ],
      "name": "checkRole",
      "outputs": [],
      "payable": false,
      "stateMutability": "view",
      "type": "function"
    },
    {
      "constant": true,
      "inputs": [
        {
          "name": "addr",
          "type": "address"
        },
        {
          "name": "roleName",
          "type": "string"
        }
      ],
      "name": "hasRole",
      "outputs": [
        {
          "name": "",
          "type": "bool"
        }
      ],
      "payable": false,
      "stateMutability": "view",
      "type": "function"
    },
    {
      "constant": true,
      "inputs": [],
      "name": "ROLE_ADMIN",
      "outputs": [
        {
          "name": "",
          "type": "string"
        }
      ],
      "payable": false,
      "stateMutability": "view",
      "type": "function"
    },
    {
      "constant": true,
      "inputs": [],
      "name": "ROLE_COLLABORATOR",
      "outputs": [
        {
          "name": "",
          "type": "string"
        }
      ],
      "payable": false,
      "stateMutability": "view",
      "type": "function"
    },
    {
      "inputs": [],
      "payable": false,
      "stateMutability": "nonpayable",
      "type": "constructor"
    },
    {
      "anonymous": false,
      "inputs": [
        {
          "indexed": false,
          "name": "collaborator",
          "type": "address"
        }
      ],
      "name": "NewCollaborator",
      "type": "event"
    },
    {
      "anonymous": false,
      "inputs": [
        {
          "indexed": false,
          "name": "addr",
          "type": "address"
        },
        {
          "indexed": false,
          "name": "roleName",
          "type": "string"
        }
      ],
      "name": "RoleAdded",
      "type": "event"
    },
    {
      "anonymous": false,
      "inputs": [
        {
          "indexed": false,
          "name": "addr",
          "type": "address"
        },
        {
          "indexed": false,
          "name": "roleName",
          "type": "string"
        }
      ],
      "name": "RoleRemoved",
      "type": "event"
    },
    {
      "constant": false,
      "inputs": [
        {
          "name": "addr",
          "type": "address"
        },
        {
          "name": "roleName",
          "type": "string"
        }
      ],
      "name": "adminRemoveRole",
      "outputs": [],
      "payable": false,
      "stateMutability": "nonpayable",
      "type": "function"
    },
    {
      "constant": false,
      "inputs": [
        {
          "name": "_newSuperuser",
          "type": "address"
        }
      ],
      "name": "transferAdmin",
      "outputs": [],
      "payable": false,
      "stateMutability": "nonpayable",
      "type": "function"
    }
  ],
  "bytecode": "0x608060405234801561001057600080fd5b5061005f336040805190810160405280600581526020017f61646d696e0000000000000000000000000000000000000000000000000000008152506100b2640100000000026401000000009004565b6100ad336040805190810160405280600c81526020017f636f6c6c61626f7261746f7200000000000000000000000000000000000000008152506100b2640100000000026401000000009004565b61026e565b61013c826000836040518082805190602001908083835b6020831015156100ee57805182526020820191506020810190506020830392506100c9565b6001836020036101000a038019825116818451168082178552505050505050905001915050908152602001604051809103902061021064010000000002610b65179091906401000000009004565b7fbfec83d64eaa953f2708271a023ab9ee82057f8f3578d548c1a4ba0b5b7004898282604051808373ffffffffffffffffffffffffffffffffffffffff1673ffffffffffffffffffffffffffffffffffffffff16815260200180602001828103825283818151815260200191508051906020019080838360005b838110156101d15780820151818401526020810190506101b6565b50505050905090810190601f1680156101fe5780820380516001836020036101000a031916815260200191505b50935050505060405180910390a15050565b60018260000160008373ffffffffffffffffffffffffffffffffffffffff1673ffffffffffffffffffffffffffffffffffffffff16815260200190815260200160002060006101000a81548160ff0219169083151502179055505050565b610bef8061027d6000396000f300608060405260043610610078576000357c0100000000000000000000000000000000000000000000000000000000900463ffffffff1680630988ca8c1461007d578063217fe6c61461010657806375829def146101a757806388cee87e146101ea578063d391014b14610273578063ed3e024a14610303575b600080fd5b34801561008957600080fd5b50610104600480360381019080803573ffffffffffffffffffffffffffffffffffffffff169060200190929190803590602001908201803590602001908080601f0160208091040260200160405190810160405280939291908181526020018383808284378201915050505050509192919290505050610393565b005b34801561011257600080fd5b5061018d600480360381019080803573ffffffffffffffffffffffffffffffffffffffff169060200190929190803590602001908201803590602001908080601f0160208091040260200160405190810160405280939291908181526020018383808284378201915050505050509192919290505050610414565b604051808215151515815260200191505060405180910390f35b3480156101b357600080fd5b506101e8600480360381019080803573ffffffffffffffffffffffffffffffffffffffff16906020019092919050505061049b565b005b3480156101f657600080fd5b50610271600480360381019080803573ffffffffffffffffffffffffffffffffffffffff169060200190929190803590602001908201803590602001908080601f01602080910402602001604051908101604052809392919081815260200183838082843782019150505050505091929192905050506106c0565b005b34801561027f57600080fd5b50610288610781565b6040518080602001828103825283818151815260200191508051906020019080838360005b838110156102c85780820151818401526020810190506102ad565b50505050905090810190601f1680156102f55780820380516001836020036101000a031916815260200191505b509250505060405180910390f35b34801561030f57600080fd5b506103186107ba565b6040518080602001828103825283818151815260200191508051906020019080838360005b8381101561035857808201518184015260208101905061033d565b50505050905090810190601f1680156103855780820380516001836020036101000a031916815260200191505b509250505060405180910390f35b610410826000836040518082805190602001908083835b6020831015156103cf57805182526020820191506020810190506020830392506103aa565b6001836020036101000a03801982511681845116808217855250505050505090500191505090815260200160405180910390206107f390919063ffffffff16565b5050565b6000610493836000846040518082805190602001908083835b602083101515610452578051825260208201915060208101905060208303925061042d565b6001836020036101000a038019825116818451168082178552505050505050905001915050908152602001604051809103902061080c90919063ffffffff16565b905092915050565b6104da336040805190810160405280600581526020017f61646d696e000000000000000000000000000000000000000000000000000000815250610414565b151561054e576040517f08c379a00000000000000000000000000000000000000000000000000000000081526004018080602001828103825260198152602001807f4e6563657373617279206f6e6c7920524f4c455f41444d494e0000000000000081525060200191505060405180910390fd5b8061058e816040805190810160405280600c81526020017f636f6c6c61626f7261746f720000000000000000000000000000000000000000815250610414565b1515610602576040517f08c379a00000000000000000000000000000000000000000000000000000000081526004018080602001828103825260208152602001807f4e6563657373617279206f6e6c7920524f4c455f434f4c4c41424f5241544f5281525060200191505060405180910390fd5b600073ffffffffffffffffffffffffffffffffffffffff168273ffffffffffffffffffffffffffffffffffffffff161415151561063e57600080fd5b61067d336040805190810160405280600581526020017f61646d696e000000000000000000000000000000000000000000000000000000815250610865565b6106bc826040805190810160405280600581526020017f61646d696e0000000000000000000000000000000000000000000000000000008152506109b6565b5050565b6106ff336040805190810160405280600581526020017f61646d696e000000000000000000000000000000000000000000000000000000815250610414565b1515610773576040517f08c379a00000000000000000000000000000000000000000000000000000000081526004018080602001828103825260198152602001807f4e6563657373617279206f6e6c7920524f4c455f41444d494e0000000000000081525060200191505060405180910390fd5b61077d8282610865565b5050565b6040805190810160405280600581526020017f61646d696e00000000000000000000000000000000000000000000000000000081525081565b6040805190810160405280600c81526020017f636f6c6c61626f7261746f72000000000000000000000000000000000000000081525081565b6107fd828261080c565b151561080857600080fd5b5050565b60008260000160008373ffffffffffffffffffffffffffffffffffffffff1673ffffffffffffffffffffffffffffffffffffffff16815260200190815260200160002060009054906101000a900460ff16905092915050565b6108e2826000836040518082805190602001908083835b6020831015156108a1578051825260208201915060208101905060208303925061087c565b6001836020036101000a0380198251168184511680821785525050505050509050019150509081526020016040518091039020610b0790919063ffffffff16565b7fd211483f91fc6eff862467f8de606587a30c8fc9981056f051b897a418df803a8282604051808373ffffffffffffffffffffffffffffffffffffffff1673ffffffffffffffffffffffffffffffffffffffff16815260200180602001828103825283818151815260200191508051906020019080838360005b8381101561097757808201518184015260208101905061095c565b50505050905090810190601f1680156109a45780820380516001836020036101000a031916815260200191505b50935050505060405180910390a15050565b610a33826000836040518082805190602001908083835b6020831015156109f257805182526020820191506020810190506020830392506109cd565b6001836020036101000a0380198251168184511680821785525050505050509050019150509081526020016040518091039020610b6590919063ffffffff16565b7fbfec83d64eaa953f2708271a023ab9ee82057f8f3578d548c1a4ba0b5b7004898282604051808373ffffffffffffffffffffffffffffffffffffffff1673ffffffffffffffffffffffffffffffffffffffff16815260200180602001828103825283818151815260200191508051906020019080838360005b83811015610ac8578082015181840152602081019050610aad565b50505050905090810190601f168015610af55780820380516001836020036101000a031916815260200191505b50935050505060405180910390a15050565b60008260000160008373ffffffffffffffffffffffffffffffffffffffff1673ffffffffffffffffffffffffffffffffffffffff16815260200190815260200160002060006101000a81548160ff0219169083151502179055505050565b60018260000160008373ffffffffffffffffffffffffffffffffffffffff1673ffffffffffffffffffffffffffffffffffffffff16815260200190815260200160002060006101000a81548160ff02191690831515021790555050505600a165627a7a72305820ad812d5e88e7d8fe55ac92170949f56b93ce089a91db87adaeb743615b344b5e0029",
  "source": "pragma solidity ^0.4.23;\n\nimport \"./zeppelin/ownership/rbac/RBAC.sol\";\n\ncontract Collaborator is RBAC {\n    \n    /**\n    * A constant role name for indicating admins.\n    */\n    string public constant ROLE_ADMIN = \"admin\";\n    string public constant ROLE_COLLABORATOR = \"collaborator\";\n\n    event NewCollaborator(address collaborator);\n\n    /**\n    * @dev constructor. Sets msg.sender as admin by default\n    */\n    constructor() public {\n        addRole(msg.sender, ROLE_ADMIN);\n        addRole(msg.sender, ROLE_COLLABORATOR);\n    }\n\n    /**\n    * @dev modifier to scope access to admins\n    * // require\n    */\n    modifier onlyAdmin() {\n        require(hasRole(msg.sender, ROLE_ADMIN), \"Necessary only ROLE_ADMIN\");\n        _;\n    }\n\n    modifier onlyCollaborator(address _addressUser) {\n        require(hasRole(_addressUser, ROLE_COLLABORATOR), \"Necessary only ROLE_COLLABORATOR\");\n        _;\n    }    \n\n    /**\n    * @dev add a collaborator\n    **/\n    function addCollaborator(address collaborator) internal {\n        addRole(collaborator, ROLE_COLLABORATOR);\n        emit NewCollaborator(collaborator);\n    }  \n\n    /**\n    * @dev remove a role from an address\n    * @param addr address\n    * @param roleName the name of the role\n    */\n    function adminRemoveRole(address addr, string roleName) onlyAdmin\n        public {\n        removeRole(addr, roleName);\n    }\n\n    /**\n    * @dev Allows the current superuser to transfer his role to a newSuperuser.\n    * @param _newSuperuser The address to transfer ownership to.\n    */\n    function transferAdmin(address _newSuperuser) onlyAdmin onlyCollaborator(_newSuperuser) public {\n        require(_newSuperuser != address(0));\n        removeRole(msg.sender, ROLE_ADMIN);\n        addRole(_newSuperuser, ROLE_ADMIN);\n    }\n}\n\n",
  "sourcePath": "/Users/hgleite/Documents/henrique/GoBlockchain/smart-contract-identity/contracts/Collaborator.sol",
  "compiler": {
    "name": "solc",
    "version": "0.4.24+commit.e67f0147.Emscripten.clang"
  },
  "schemaVersion": "2.0.0",
  "updatedAt": "2018-09-03T02:53:01.270Z"
}