{
  "contractName": "PersonIdentity",
  "abi": [
    {
      "constant": true,
      "inputs": [
        {
          "name": "",
          "type": "uint256"
        }
      ],
      "name": "hashTerms",
      "outputs": [
        {
          "name": "",
          "type": "string"
        }
      ],
      "payable": false,
      "stateMutability": "view",
      "type": "function"
    },
    {
      "constant": true,
      "inputs": [
        {
          "name": "",
          "type": "uint256"
        }
      ],
      "name": "person",
      "outputs": [
        {
          "name": "sender",
          "type": "address"
        },
        {
          "name": "hashUport",
          "type": "string"
        },
        {
          "name": "status",
          "type": "uint8"
        },
        {
          "name": "hashTerms",
          "type": "string"
        }
      ],
      "payable": false,
      "stateMutability": "view",
      "type": "function"
    },
    {
      "constant": true,
      "inputs": [
        {
          "name": "addr",
          "type": "address"
        },
        {
          "name": "roleName",
          "type": "string"
        }
      ],
      "name": "checkRole",
      "outputs": [],
      "payable": false,
      "stateMutability": "view",
      "type": "function"
    },
    {
      "constant": true,
      "inputs": [
        {
          "name": "addr",
          "type": "address"
        },
        {
          "name": "roleName",
          "type": "string"
        }
      ],
      "name": "hasRole",
      "outputs": [
        {
          "name": "",
          "type": "bool"
        }
      ],
      "payable": false,
      "stateMutability": "view",
      "type": "function"
    },
    {
      "constant": false,
      "inputs": [
        {
          "name": "_hash",
          "type": "string"
        }
      ],
      "name": "setTermsAndCondition",
      "outputs": [],
      "payable": false,
      "stateMutability": "nonpayable",
      "type": "function"
    },
    {
      "constant": false,
      "inputs": [
        {
          "name": "_newSuperuser",
          "type": "address"
        }
      ],
      "name": "transferAdmin",
      "outputs": [],
      "payable": false,
      "stateMutability": "nonpayable",
      "type": "function"
    },
    {
      "constant": true,
      "inputs": [],
      "name": "getValidHash",
      "outputs": [
        {
          "name": "",
          "type": "string"
        }
      ],
      "payable": false,
      "stateMutability": "view",
      "type": "function"
    },
    {
      "constant": false,
      "inputs": [
        {
          "name": "addr",
          "type": "address"
        },
        {
          "name": "roleName",
          "type": "string"
        }
      ],
      "name": "adminRemoveRole",
      "outputs": [],
      "payable": false,
      "stateMutability": "nonpayable",
      "type": "function"
    },
    {
      "constant": true,
      "inputs": [
        {
          "name": "",
          "type": "address"
        }
      ],
      "name": "mapPersonAddress",
      "outputs": [
        {
          "name": "",
          "type": "bytes32"
        }
      ],
      "payable": false,
      "stateMutability": "view",
      "type": "function"
    },
    {
      "constant": true,
      "inputs": [],
      "name": "validHash",
      "outputs": [
        {
          "name": "",
          "type": "string"
        }
      ],
      "payable": false,
      "stateMutability": "view",
      "type": "function"
    },
    {
      "constant": true,
      "inputs": [
        {
          "name": "",
          "type": "bytes32"
        }
      ],
      "name": "mapPerson",
      "outputs": [
        {
          "name": "sender",
          "type": "address"
        },
        {
          "name": "hashUport",
          "type": "string"
        },
        {
          "name": "status",
          "type": "uint8"
        },
        {
          "name": "hashTerms",
          "type": "string"
        }
      ],
      "payable": false,
      "stateMutability": "view",
      "type": "function"
    },
    {
      "constant": true,
      "inputs": [],
      "name": "ROLE_ADMIN",
      "outputs": [
        {
          "name": "",
          "type": "string"
        }
      ],
      "payable": false,
      "stateMutability": "view",
      "type": "function"
    },
    {
      "constant": true,
      "inputs": [],
      "name": "ROLE_COLLABORATOR",
      "outputs": [
        {
          "name": "",
          "type": "string"
        }
      ],
      "payable": false,
      "stateMutability": "view",
      "type": "function"
    },
    {
      "inputs": [],
      "payable": false,
      "stateMutability": "nonpayable",
      "type": "constructor"
    },
    {
      "anonymous": false,
      "inputs": [
        {
          "indexed": false,
          "name": "isValid",
          "type": "bool"
        },
        {
          "indexed": false,
          "name": "validator",
          "type": "address"
        }
      ],
      "name": "PersonValidate",
      "type": "event"
    },
    {
      "anonymous": false,
      "inputs": [
        {
          "indexed": false,
          "name": "idUport",
          "type": "string"
        }
      ],
      "name": "RequestPerson",
      "type": "event"
    },
    {
      "anonymous": false,
      "inputs": [
        {
          "indexed": false,
          "name": "sender",
          "type": "address"
        },
        {
          "indexed": false,
          "name": "time",
          "type": "uint256"
        },
        {
          "indexed": false,
          "name": "validHash",
          "type": "string"
        }
      ],
      "name": "TermsAndConditionChanged",
      "type": "event"
    },
    {
      "anonymous": false,
      "inputs": [
        {
          "indexed": false,
          "name": "collaborator",
          "type": "address"
        }
      ],
      "name": "NewCollaborator",
      "type": "event"
    },
    {
      "anonymous": false,
      "inputs": [
        {
          "indexed": false,
          "name": "addr",
          "type": "address"
        },
        {
          "indexed": false,
          "name": "roleName",
          "type": "string"
        }
      ],
      "name": "RoleAdded",
      "type": "event"
    },
    {
      "anonymous": false,
      "inputs": [
        {
          "indexed": false,
          "name": "addr",
          "type": "address"
        },
        {
          "indexed": false,
          "name": "roleName",
          "type": "string"
        }
      ],
      "name": "RoleRemoved",
      "type": "event"
    },
    {
      "constant": false,
      "inputs": [
        {
          "name": "_uPort",
          "type": "string"
        },
        {
          "name": "_hashTerms",
          "type": "string"
        },
        {
          "name": "_accepted",
          "type": "bool"
        }
      ],
      "name": "requestApprove",
      "outputs": [],
      "payable": false,
      "stateMutability": "nonpayable",
      "type": "function"
    },
    {
      "constant": false,
      "inputs": [
        {
          "name": "_uPort",
          "type": "string"
        },
        {
          "name": "_approveOrDisapprove",
          "type": "bool"
        }
      ],
      "name": "validate",
      "outputs": [],
      "payable": false,
      "stateMutability": "nonpayable",
      "type": "function"
    },
    {
      "constant": true,
      "inputs": [
        {
          "name": "_uPort",
          "type": "string"
        }
      ],
      "name": "getPersonByIdUport",
      "outputs": [
        {
          "name": "",
          "type": "address"
        },
        {
          "name": "",
          "type": "uint8"
        }
      ],
      "payable": false,
      "stateMutability": "view",
      "type": "function"
    },
    {
      "constant": true,
      "inputs": [],
      "name": "getListPerson",
      "outputs": [
        {
          "name": "",
          "type": "uint256"
        }
      ],
      "payable": false,
      "stateMutability": "view",
      "type": "function"
    }
  ],
  "bytecode": "0x60806040523480156200001157600080fd5b506200001c620003f3565b6200006c336040805190810160405280600581526020017f61646d696e0000000000000000000000000000000000000000000000000000008152506200022f640100000000026401000000009004565b620000bc336040805190810160405280600c81526020017f636f6c6c61626f7261746f7200000000000000000000000000000000000000008152506200022f640100000000026401000000009004565b6080604051908101604052803373ffffffffffffffffffffffffffffffffffffffff16815260200160206040519081016040528060008152508152602001600160028111156200010857fe5b81526020016040805190810160405280600381526020017f307830000000000000000000000000000000000000000000000000000000000081525081525090506006819080600181540180825580915050906001820390600052602060002090600402016000909192909190915060008201518160000160006101000a81548173ffffffffffffffffffffffffffffffffffffffff021916908373ffffffffffffffffffffffffffffffffffffffff1602179055506020820151816001019080519060200190620001db9291906200043e565b5060408201518160020160006101000a81548160ff021916908360028111156200020157fe5b02179055506060820151816003019080519060200190620002249291906200043e565b5050505050620004ed565b620002be826000836040518082805190602001908083835b6020831015156200026e578051825260208201915060208101905060208303925062000247565b6001836020036101000a03801982511681845116808217855250505050505090500191505090815260200160405180910390206200039564010000000002620028e3179091906401000000009004565b7fbfec83d64eaa953f2708271a023ab9ee82057f8f3578d548c1a4ba0b5b7004898282604051808373ffffffffffffffffffffffffffffffffffffffff1673ffffffffffffffffffffffffffffffffffffffff16815260200180602001828103825283818151815260200191508051906020019080838360005b838110156200035557808201518184015260208101905062000338565b50505050905090810190601f168015620003835780820380516001836020036101000a031916815260200191505b50935050505060405180910390a15050565b60018260000160008373ffffffffffffffffffffffffffffffffffffffff1673ffffffffffffffffffffffffffffffffffffffff16815260200190815260200160002060006101000a81548160ff0219169083151502179055505050565b608060405190810160405280600073ffffffffffffffffffffffffffffffffffffffff16815260200160608152602001600060028111156200043157fe5b8152602001606081525090565b828054600181600116156101000203166002900490600052602060002090601f016020900481019282601f106200048157805160ff1916838001178555620004b2565b82800160010185558215620004b2579182015b82811115620004b157825182559160200191906001019062000494565b5b509050620004c19190620004c5565b5090565b620004ea91905b80821115620004e6576000816000905550600101620004cc565b5090565b90565b612adc80620004fd6000396000f3006080604052600436106100f1576000357c0100000000000000000000000000000000000000000000000000000000900463ffffffff168063035c36f1146100f6578063092a18201461019c5780630988ca8c146102f65780630b6292bb1461037f5780631fd64ca5146103c6578063217fe6c614610484578063390541a51461052557806375829def1461058e5780638129301c146105d157806388cee87e14610661578063a1c7349e146106ea578063b7b3767714610749578063bd367e1114610774578063cbda7722146107d3578063cfefe08814610863578063d391014b146109c1578063ed3e024a14610a51575b600080fd5b34801561010257600080fd5b5061012160048036038101908080359060200190929190505050610ae1565b6040518080602001828103825283818151815260200191508051906020019080838360005b83811015610161578082015181840152602081019050610146565b50505050905090810190601f16801561018e5780820380516001836020036101000a031916815260200191505b509250505060405180910390f35b3480156101a857600080fd5b506101c760048036038101908080359060200190929190505050610b9c565b604051808573ffffffffffffffffffffffffffffffffffffffff1673ffffffffffffffffffffffffffffffffffffffff1681526020018060200184600281111561020d57fe5b60ff16815260200180602001838103835286818151815260200191508051906020019080838360005b83811015610251578082015181840152602081019050610236565b50505050905090810190601f16801561027e5780820380516001836020036101000a031916815260200191505b50838103825284818151815260200191508051906020019080838360005b838110156102b757808201518184015260208101905061029c565b50505050905090810190601f1680156102e45780820380516001836020036101000a031916815260200191505b50965050505050505060405180910390f35b34801561030257600080fd5b5061037d600480360381019080803573ffffffffffffffffffffffffffffffffffffffff169060200190929190803590602001908201803590602001908080601f0160208091040260200160405190810160405280939291908181526020018383808284378201915050505050509192919290505050610d38565b005b34801561038b57600080fd5b506103c4600480360381019080803590602001908201803590602001919091929391929390803515159060200190929190505050610db9565b005b3480156103d257600080fd5b5061042d600480360381019080803590602001908201803590602001908080601f0160208091040260200160405190810160405280939291908181526020018383808284378201915050505050509192919290505050611173565b604051808373ffffffffffffffffffffffffffffffffffffffff1673ffffffffffffffffffffffffffffffffffffffff16815260200182600281111561046f57fe5b60ff1681526020019250505060405180910390f35b34801561049057600080fd5b5061050b600480360381019080803573ffffffffffffffffffffffffffffffffffffffff169060200190929190803590602001908201803590602001908080601f016020809104026020016040519081016040528093929190818152602001838380828437820191505050505050919291929050505061141b565b604051808215151515815260200191505060405180910390f35b34801561053157600080fd5b5061058c600480360381019080803590602001908201803590602001908080601f01602080910402602001604051908101604052809392919081815260200183838082843782019150505050505091929192905050506114a2565b005b34801561059a57600080fd5b506105cf600480360381019080803573ffffffffffffffffffffffffffffffffffffffff1690602001909291905050506116a4565b005b3480156105dd57600080fd5b506105e66118c9565b6040518080602001828103825283818151815260200191508051906020019080838360005b8381101561062657808201518184015260208101905061060b565b50505050905090810190601f1680156106535780820380516001836020036101000a031916815260200191505b509250505060405180910390f35b34801561066d57600080fd5b506106e8600480360381019080803573ffffffffffffffffffffffffffffffffffffffff169060200190929190803590602001908201803590602001908080601f016020809104026020016040519081016040528093929190818152602001838380828437820191505050505050919291929050505061196b565b005b3480156106f657600080fd5b50610747600480360381019080803590602001908201803590602001919091929391929390803590602001908201803590602001919091929391929390803515159060200190929190505050611a2c565b005b34801561075557600080fd5b5061075e6121fc565b6040518082815260200191505060405180910390f35b34801561078057600080fd5b506107b5600480360381019080803573ffffffffffffffffffffffffffffffffffffffff169060200190929190505050612209565b60405180826000191660001916815260200191505060405180910390f35b3480156107df57600080fd5b506107e8612221565b6040518080602001828103825283818151815260200191508051906020019080838360005b8381101561082857808201518184015260208101905061080d565b50505050905090810190601f1680156108555780820380516001836020036101000a031916815260200191505b509250505060405180910390f35b34801561086f57600080fd5b5061089260048036038101908080356000191690602001909291905050506122bf565b604051808573ffffffffffffffffffffffffffffffffffffffff1673ffffffffffffffffffffffffffffffffffffffff168152602001806020018460028111156108d857fe5b60ff16815260200180602001838103835286818151815260200191508051906020019080838360005b8381101561091c578082015181840152602081019050610901565b50505050905090810190601f1680156109495780820380516001836020036101000a031916815260200191505b50838103825284818151815260200191508051906020019080838360005b83811015610982578082015181840152602081019050610967565b50505050905090810190601f1680156109af5780820380516001836020036101000a031916815260200191505b50965050505050505060405180910390f35b3480156109cd57600080fd5b506109d661244c565b6040518080602001828103825283818151815260200191508051906020019080838360005b83811015610a165780820151818401526020810190506109fb565b50505050905090810190601f168015610a435780820380516001836020036101000a031916815260200191505b509250505060405180910390f35b348015610a5d57600080fd5b50610a66612485565b6040518080602001828103825283818151815260200191508051906020019080838360005b83811015610aa6578082015181840152602081019050610a8b565b50505050905090810190601f168015610ad35780820380516001836020036101000a031916815260200191505b509250505060405180910390f35b600181815481101515610af057fe5b906000526020600020016000915090508054600181600116156101000203166002900480601f016020809104026020016040519081016040528092919081815260200182805460018160011615610100020316600290048015610b945780601f10610b6957610100808354040283529160200191610b94565b820191906000526020600020905b815481529060010190602001808311610b7757829003601f168201915b505050505081565b600681815481101515610bab57fe5b90600052602060002090600402016000915090508060000160009054906101000a900473ffffffffffffffffffffffffffffffffffffffff1690806001018054600181600116156101000203166002900480601f016020809104026020016040519081016040528092919081815260200182805460018160011615610100020316600290048015610c7d5780601f10610c5257610100808354040283529160200191610c7d565b820191906000526020600020905b815481529060010190602001808311610c6057829003601f168201915b5050505050908060020160009054906101000a900460ff1690806003018054600181600116156101000203166002900480601f016020809104026020016040519081016040528092919081815260200182805460018160011615610100020316600290048015610d2e5780601f10610d0357610100808354040283529160200191610d2e565b820191906000526020600020905b815481529060010190602001808311610d1157829003601f168201915b5050505050905084565b610db5826000836040518082805190602001908083835b602083101515610d745780518252602082019150602081019050602083039250610d4f565b6001836020036101000a03801982511681845116808217855250505050505090500191505090815260200160405180910390206124be90919063ffffffff16565b5050565b600033610dfb816040805190810160405280600c81526020017f636f6c6c61626f7261746f72000000000000000000000000000000000000000081525061141b565b1515610e6f576040517f08c379a00000000000000000000000000000000000000000000000000000000081526004018080602001828103825260208152602001807f4e6563657373617279206f6e6c7920524f4c455f434f4c4c41424f5241544f5281525060200191505060405180910390fd5b6000600102610eaf86868080601f0160208091040260200160405190810160405280939291908181526020018383808284378201915050505050506124d7565b6000191614151515610ec057600080fd5b610efb85858080601f0160208091040260200160405190810160405280939291908181526020018383808284378201915050505050506124d7565b9150600060046000846000191660001916815260200190815260200160002060000160009054906101000a900473ffffffffffffffffffffffffffffffffffffffff1673ffffffffffffffffffffffffffffffffffffffff1614151515610f6157600080fd5b3373ffffffffffffffffffffffffffffffffffffffff1660046000846000191660001916815260200190815260200160002060000160009054906101000a900473ffffffffffffffffffffffffffffffffffffffff1673ffffffffffffffffffffffffffffffffffffffff1614151515610fda57600080fd5b60006002811115610fe757fe5b60046000846000191660001916815260200190815260200160002060020160009054906101000a900460ff16600281111561101e57fe5b14151561102a57600080fd5b82156110bc57600160046000846000191660001916815260200190815260200160002060020160006101000a81548160ff0219169083600281111561106b57fe5b02179055506110b760046000846000191660001916815260200190815260200160002060000160009054906101000a900473ffffffffffffffffffffffffffffffffffffffff166124e5565b6110fd565b600260046000846000191660001916815260200190815260200160002060020160006101000a81548160ff021916908360028111156110f757fe5b02179055505b7fa2ec2c9e3f9f8539e81b7b1fbb60772faef5a26ab705e5329b9f5dfb4035e936833360405180831515151581526020018273ffffffffffffffffffffffffffffffffffffffff1673ffffffffffffffffffffffffffffffffffffffff1681526020019250505060405180910390a15050505050565b6000806000611180612941565b600060010261118e866124d7565b600019161415151561119f57600080fd5b6000600460006111ae886124d7565b6000191660001916815260200190815260200160002060000160009054906101000a900473ffffffffffffffffffffffffffffffffffffffff1673ffffffffffffffffffffffffffffffffffffffff161415151561120b57600080fd5b611214856124d7565b9150600460008360001916600019168152602001908152602001600020608060405190810160405290816000820160009054906101000a900473ffffffffffffffffffffffffffffffffffffffff1673ffffffffffffffffffffffffffffffffffffffff1673ffffffffffffffffffffffffffffffffffffffff168152602001600182018054600181600116156101000203166002900480601f01602080910402602001604051908101604052809291908181526020018280546001816001161561010002031660029004801561132c5780601f106113015761010080835404028352916020019161132c565b820191906000526020600020905b81548152906001019060200180831161130f57829003601f168201915b505050505081526020016002820160009054906101000a900460ff16600281111561135357fe5b600281111561135e57fe5b8152602001600382018054600181600116156101000203166002900480601f0160208091040260200160405190810160405280929190818152602001828054600181600116156101000203166002900480156113fb5780601f106113d0576101008083540402835291602001916113fb565b820191906000526020600020905b8154815290600101906020018083116113de57829003601f168201915b505050505081525050905080600001518160400151935093505050915091565b600061149a836000846040518082805190602001908083835b6020831015156114595780518252602082019150602081019050602083039250611434565b6001836020036101000a038019825116818451168082178552505050505050905001915050908152602001604051809103902061258a90919063ffffffff16565b905092915050565b6114e1336040805190810160405280600581526020017f61646d696e00000000000000000000000000000000000000000000000000000081525061141b565b1515611555576040517f08c379a00000000000000000000000000000000000000000000000000000000081526004018080602001828103825260198152602001807f4e6563657373617279206f6e6c7920524f4c455f41444d494e0000000000000081525060200191505060405180910390fd5b600181908060018154018082558091505090600182039060005260206000200160009091929091909150908051906020019061159292919061298b565b505080600290805190602001906115aa92919061298b565b507f6d6eae271da0ff27174c7ef6da7f0ae76c697dbf8134161d15febe0708f7953133426002604051808473ffffffffffffffffffffffffffffffffffffffff1673ffffffffffffffffffffffffffffffffffffffff168152602001838152602001806020018281038252838181546001816001161561010002031660029004815260200191508054600181600116156101000203166002900480156116915780601f1061166657610100808354040283529160200191611691565b820191906000526020600020905b81548152906001019060200180831161167457829003601f168201915b505094505050505060405180910390a150565b6116e3336040805190810160405280600581526020017f61646d696e00000000000000000000000000000000000000000000000000000081525061141b565b1515611757576040517f08c379a00000000000000000000000000000000000000000000000000000000081526004018080602001828103825260198152602001807f4e6563657373617279206f6e6c7920524f4c455f41444d494e0000000000000081525060200191505060405180910390fd5b80611797816040805190810160405280600c81526020017f636f6c6c61626f7261746f72000000000000000000000000000000000000000081525061141b565b151561180b576040517f08c379a00000000000000000000000000000000000000000000000000000000081526004018080602001828103825260208152602001807f4e6563657373617279206f6e6c7920524f4c455f434f4c4c41424f5241544f5281525060200191505060405180910390fd5b600073ffffffffffffffffffffffffffffffffffffffff168273ffffffffffffffffffffffffffffffffffffffff161415151561184757600080fd5b611886336040805190810160405280600581526020017f61646d696e0000000000000000000000000000000000000000000000000000008152506125e3565b6118c5826040805190810160405280600581526020017f61646d696e000000000000000000000000000000000000000000000000000000815250612734565b5050565b606060028054600181600116156101000203166002900480601f0160208091040260200160405190810160405280929190818152602001828054600181600116156101000203166002900480156119615780601f1061193657610100808354040283529160200191611961565b820191906000526020600020905b81548152906001019060200180831161194457829003601f168201915b5050505050905090565b6119aa336040805190810160405280600581526020017f61646d696e00000000000000000000000000000000000000000000000000000081525061141b565b1515611a1e576040517f08c379a00000000000000000000000000000000000000000000000000000000081526004018080602001828103825260198152602001807f4e6563657373617279206f6e6c7920524f4c455f41444d494e0000000000000081525060200191505060405180910390fd5b611a2882826125e3565b5050565b6000611a36612941565b821515611aab576040517f08c379a00000000000000000000000000000000000000000000000000000000081526004018080602001828103825260138152602001807f4e6563657373617279205f61636365707465640000000000000000000000000081525060200191505060405180910390fd5b6000600102611aeb88888080601f0160208091040260200160405190810160405280939291908181526020018383808284378201915050505050506124d7565b6000191614151515611b65576040517f08c379a00000000000000000000000000000000000000000000000000000000081526004018080602001828103825260108152602001807f4e6563657373617279205f75506f72740000000000000000000000000000000081525060200191505060405180910390fd5b6000600102611ba586868080601f0160208091040260200160405190810160405280939291908181526020018383808284378201915050505050506124d7565b6000191614151515611c1f576040517f08c379a00000000000000000000000000000000000000000000000000000000081526004018080602001828103825260148152602001807f4e6563657373617279205f686173685465726d7300000000000000000000000081525060200191505060405180910390fd5b6000600102600560003373ffffffffffffffffffffffffffffffffffffffff1673ffffffffffffffffffffffffffffffffffffffff1681526020019081526020016000205460001916141515611d03576040517f08c379a00000000000000000000000000000000000000000000000000000000081526004018080602001828103825260328152602001807f4e6563657373617279202074686572652069736e27742020757365722077697481526020017f68207468652073616d652061646472657373000000000000000000000000000081525060400191505060405180910390fd5b611d3e87878080601f0160208091040260200160405190810160405280939291908181526020018383808284378201915050505050506124d7565b9150600060046000846000191660001916815260200190815260200160002060000160009054906101000a900473ffffffffffffffffffffffffffffffffffffffff1673ffffffffffffffffffffffffffffffffffffffff16141515611e32576040517f08c379a00000000000000000000000000000000000000000000000000000000081526004018080602001828103825260378152602001807f4e65636573736172792074686572652069736e2774202075736572207769746881526020017f207468652073616d6520616464726573732075706f727400000000000000000081525060400191505060405180910390fd5b611e71336040805190810160405280600c81526020017f636f6c6c61626f7261746f72000000000000000000000000000000000000000081525061141b565b151515611f0c576040517f08c379a00000000000000000000000000000000000000000000000000000000081526004018080602001828103825260228152602001807f4e65636573736172792074686572652069736e277420436f6c6c61626f72617481526020017f6f7200000000000000000000000000000000000000000000000000000000000081525060400191505060405180910390fd5b6080604051908101604052803373ffffffffffffffffffffffffffffffffffffffff16815260200188888080601f016020809104026020016040519081016040528093929190818152602001838380828437820191505050505050815260200160006002811115611f7957fe5b815260200186868080601f01602080910402602001604051908101604052809392919081815260200183838082843782019150505050505081525090506006819080600181540180825580915050906001820390600052602060002090600402016000909192909190915060008201518160000160006101000a81548173ffffffffffffffffffffffffffffffffffffffff021916908373ffffffffffffffffffffffffffffffffffffffff1602179055506020820151816001019080519060200190612047929190612a0b565b5060408201518160020160006101000a81548160ff0219169083600281111561206c57fe5b0217905550606082015181600301908051906020019061208d929190612a0b565b505050508060046000846000191660001916815260200190815260200160002060008201518160000160006101000a81548173ffffffffffffffffffffffffffffffffffffffff021916908373ffffffffffffffffffffffffffffffffffffffff1602179055506020820151816001019080519060200190612110929190612a0b565b5060408201518160020160006101000a81548160ff0219169083600281111561213557fe5b02179055506060820151816003019080519060200190612156929190612a0b565b5090505081600560003373ffffffffffffffffffffffffffffffffffffffff1673ffffffffffffffffffffffffffffffffffffffff16815260200190815260200160002081600019169055507fa64991bb878d570c4ded98e60d71a36b7ead98700fbf4b04ac704829d7100e988787604051808060200182810382528484828181526020019250808284378201915050935050505060405180910390a150505050505050565b6000600680549050905090565b60056020528060005260406000206000915090505481565b60028054600181600116156101000203166002900480601f0160208091040260200160405190810160405280929190818152602001828054600181600116156101000203166002900480156122b75780601f1061228c576101008083540402835291602001916122b7565b820191906000526020600020905b81548152906001019060200180831161229a57829003601f168201915b505050505081565b60046020528060005260406000206000915090508060000160009054906101000a900473ffffffffffffffffffffffffffffffffffffffff1690806001018054600181600116156101000203166002900480601f0160208091040260200160405190810160405280929190818152602001828054600181600116156101000203166002900480156123915780601f1061236657610100808354040283529160200191612391565b820191906000526020600020905b81548152906001019060200180831161237457829003601f168201915b5050505050908060020160009054906101000a900460ff1690806003018054600181600116156101000203166002900480601f0160208091040260200160405190810160405280929190818152602001828054600181600116156101000203166002900480156124425780601f1061241757610100808354040283529160200191612442565b820191906000526020600020905b81548152906001019060200180831161242557829003601f168201915b5050505050905084565b6040805190810160405280600581526020017f61646d696e00000000000000000000000000000000000000000000000000000081525081565b6040805190810160405280600c81526020017f636f6c6c61626f7261746f72000000000000000000000000000000000000000081525081565b6124c8828261258a565b15156124d357600080fd5b5050565b600060208201519050919050565b612524816040805190810160405280600c81526020017f636f6c6c61626f7261746f720000000000000000000000000000000000000000815250612734565b7f4091eebfa2b1f57cff068416da5103e7bb37dff57001aca37c07b7b050a7330a81604051808273ffffffffffffffffffffffffffffffffffffffff1673ffffffffffffffffffffffffffffffffffffffff16815260200191505060405180910390a150565b60008260000160008373ffffffffffffffffffffffffffffffffffffffff1673ffffffffffffffffffffffffffffffffffffffff16815260200190815260200160002060009054906101000a900460ff16905092915050565b612660826000836040518082805190602001908083835b60208310151561261f57805182526020820191506020810190506020830392506125fa565b6001836020036101000a038019825116818451168082178552505050505050905001915050908152602001604051809103902061288590919063ffffffff16565b7fd211483f91fc6eff862467f8de606587a30c8fc9981056f051b897a418df803a8282604051808373ffffffffffffffffffffffffffffffffffffffff1673ffffffffffffffffffffffffffffffffffffffff16815260200180602001828103825283818151815260200191508051906020019080838360005b838110156126f55780820151818401526020810190506126da565b50505050905090810190601f1680156127225780820380516001836020036101000a031916815260200191505b50935050505060405180910390a15050565b6127b1826000836040518082805190602001908083835b602083101515612770578051825260208201915060208101905060208303925061274b565b6001836020036101000a03801982511681845116808217855250505050505090500191505090815260200160405180910390206128e390919063ffffffff16565b7fbfec83d64eaa953f2708271a023ab9ee82057f8f3578d548c1a4ba0b5b7004898282604051808373ffffffffffffffffffffffffffffffffffffffff1673ffffffffffffffffffffffffffffffffffffffff16815260200180602001828103825283818151815260200191508051906020019080838360005b8381101561284657808201518184015260208101905061282b565b50505050905090810190601f1680156128735780820380516001836020036101000a031916815260200191505b50935050505060405180910390a15050565b60008260000160008373ffffffffffffffffffffffffffffffffffffffff1673ffffffffffffffffffffffffffffffffffffffff16815260200190815260200160002060006101000a81548160ff0219169083151502179055505050565b60018260000160008373ffffffffffffffffffffffffffffffffffffffff1673ffffffffffffffffffffffffffffffffffffffff16815260200190815260200160002060006101000a81548160ff0219169083151502179055505050565b608060405190810160405280600073ffffffffffffffffffffffffffffffffffffffff168152602001606081526020016000600281111561297e57fe5b8152602001606081525090565b828054600181600116156101000203166002900490600052602060002090601f016020900481019282601f106129cc57805160ff19168380011785556129fa565b828001600101855582156129fa579182015b828111156129f95782518255916020019190600101906129de565b5b509050612a079190612a8b565b5090565b828054600181600116156101000203166002900490600052602060002090601f016020900481019282601f10612a4c57805160ff1916838001178555612a7a565b82800160010185558215612a7a579182015b82811115612a79578251825591602001919060010190612a5e565b5b509050612a879190612a8b565b5090565b612aad91905b80821115612aa9576000816000905550600101612a91565b5090565b905600a165627a7a72305820e0b86241f4187b5dc6d7beb1277e2486f1c85bd3c304063b52717265a732fa8a0029",
  "source": "pragma solidity 0.4.24;\n\nimport \"./TermsAndCondition.sol\";\nimport \"../util/StringUtils.sol\";\n\ncontract PersonIdentity is TermsAndCondition {\n    using StringUtils for string;\n    enum Status {PENDING, APPROVE, REJECTED}\n    Status status;\n    mapping (bytes32=>Person) public mapPerson;\n    mapping (address=>bytes32) public mapPersonAddress;\n    Person[] public person;\n    event PersonValidate(bool isValid, address validator);\n    event RequestPerson(string idUport);\n\n    struct Person {\n        address sender;\n        string hashUport;\n        Status status;\n        string hashTerms;\n    }\n\n    constructor() public {\n        Person memory p = Person ({\n            sender: msg.sender,\n            hashUport: \"\",\n            status: Status.APPROVE,\n            hashTerms: \"0x0\"\n        });\n\n        person.push(p);\n    }\n\n    /**\n    * @dev Request approve to participate of DAO\n    * @param _uPort idPort\n    * @param _hashTerms hash of terms    \n    * @param _accepted true or false\n    */   \n    function requestApprove(string _uPort, string _hashTerms, bool _accepted) external {\n        require(_accepted, \"Necessary _accepted\");\n        require(_uPort.stringToBytes32() != 0x0, \"Necessary _uPort\");\n        require(_hashTerms.stringToBytes32() != 0x0, \"Necessary _hashTerms\");\n        require(mapPersonAddress[msg.sender] == 0x0, \"Necessary  there isn't  user with the same address\");\n        bytes32 hashUportByte32 = _uPort.stringToBytes32();\n        require(mapPerson[hashUportByte32].sender == 0x0, \"Necessary there isn't  user with the same address uport\");\n        require(!hasRole(msg.sender, ROLE_COLLABORATOR), \"Necessary there isn't Collaborator\");\n\n        Person memory p = Person ({\n            sender: msg.sender,\n            hashUport: _uPort,\n            status: Status.PENDING,\n            hashTerms: _hashTerms\n        });\n        person.push(p);\n        mapPerson[hashUportByte32] = p;\n        mapPersonAddress[msg.sender] = hashUportByte32;\n        emit RequestPerson(_uPort);\n    }\n\n    /**\n    * @dev Validate the request to participate of DAO\n    * @param _uPort idPort\n    * @param _approveOrDisapprove true or false\n    */    \n    function validate(string _uPort, bool _approveOrDisapprove) external onlyCollaborator(msg.sender) {\n        require(_uPort.stringToBytes32() != 0x0);\n        bytes32 hashUportByte32 = _uPort.stringToBytes32();\n        require(mapPerson[hashUportByte32].sender != 0x0);\n        require(mapPerson[hashUportByte32].sender != msg.sender);\n        require(mapPerson[hashUportByte32].status == Status.PENDING);\n\n        if (_approveOrDisapprove) {\n            mapPerson[hashUportByte32].status = Status.APPROVE;\n            addCollaborator(mapPerson[hashUportByte32].sender);\n        } else {\n            mapPerson[hashUportByte32].status = Status.REJECTED;\n        }\n        emit PersonValidate(_approveOrDisapprove, msg.sender);\n    }\n\n    /**\n    * @dev Return the information about uport address\n    * @param _uPort idPort\n    * @return address\n    * @return Status    \n    */   \n    function getPersonByIdUport(string _uPort) view public returns(address, Status) {\n        require(_uPort.stringToBytes32() != 0x0);\n        require(mapPerson[_uPort.stringToBytes32()].sender != 0x0);\n        bytes32 nameAsBytes = _uPort.stringToBytes32();\n        Person memory p = mapPerson[nameAsBytes];\n\n        return (p.sender, p.status);\n    }\n\n    /**\n    * @dev Return the total of person\n    * @return uint256  \n    */   \n    function getListPerson() public view returns(uint256) {\n        return person.length;\n    }  \n}",
  "sourcePath": "/Users/hgleite/Documents/henrique/GoBlockchain/smart-contract-identity/contracts/identity/PersonIdentity.sol",
  "compiler": {
    "name": "solc",
    "version": "0.4.24+commit.e67f0147.Emscripten.clang"
  },
  "schemaVersion": "2.0.0",
  "updatedAt": "2018-09-03T02:54:51.414Z"
}