{
  "contractName": "PersonIdentity",
  "abi": [
    {
      "constant": true,
      "inputs": [
        {
          "name": "",
          "type": "uint256"
        }
      ],
      "name": "hashTerms",
      "outputs": [
        {
          "name": "",
          "type": "string"
        }
      ],
      "payable": false,
      "stateMutability": "view",
      "type": "function"
    },
    {
      "constant": true,
      "inputs": [
        {
          "name": "",
          "type": "uint256"
        }
      ],
      "name": "person",
      "outputs": [
        {
          "name": "sender",
          "type": "address"
        },
        {
          "name": "hashUport",
          "type": "string"
        },
        {
          "name": "status",
          "type": "uint8"
        },
        {
          "name": "hashTerms",
          "type": "string"
        }
      ],
      "payable": false,
      "stateMutability": "view",
      "type": "function"
    },
    {
      "constant": true,
      "inputs": [
        {
          "name": "addr",
          "type": "address"
        },
        {
          "name": "roleName",
          "type": "string"
        }
      ],
      "name": "checkRole",
      "outputs": [],
      "payable": false,
      "stateMutability": "view",
      "type": "function"
    },
    {
      "constant": true,
      "inputs": [],
      "name": "ROLE_AMBASSADOR",
      "outputs": [
        {
          "name": "",
          "type": "string"
        }
      ],
      "payable": false,
      "stateMutability": "view",
      "type": "function"
    },
    {
      "constant": false,
      "inputs": [
        {
          "name": "_addr",
          "type": "address"
        }
      ],
      "name": "removeAdvisor",
      "outputs": [],
      "payable": false,
      "stateMutability": "nonpayable",
      "type": "function"
    },
    {
      "constant": true,
      "inputs": [
        {
          "name": "addr",
          "type": "address"
        },
        {
          "name": "roleName",
          "type": "string"
        }
      ],
      "name": "hasRole",
      "outputs": [
        {
          "name": "",
          "type": "bool"
        }
      ],
      "payable": false,
      "stateMutability": "view",
      "type": "function"
    },
    {
      "constant": false,
      "inputs": [
        {
          "name": "_hash",
          "type": "string"
        }
      ],
      "name": "setTermsAndCondition",
      "outputs": [],
      "payable": false,
      "stateMutability": "nonpayable",
      "type": "function"
    },
    {
      "constant": true,
      "inputs": [
        {
          "name": "_addressUser",
          "type": "address"
        }
      ],
      "name": "isCollaborator",
      "outputs": [
        {
          "name": "_isCollaborator",
          "type": "bool"
        }
      ],
      "payable": false,
      "stateMutability": "view",
      "type": "function"
    },
    {
      "constant": false,
      "inputs": [
        {
          "name": "_advisors",
          "type": "address[]"
        }
      ],
      "name": "addAdvisors",
      "outputs": [],
      "payable": false,
      "stateMutability": "nonpayable",
      "type": "function"
    },
    {
      "constant": false,
      "inputs": [
        {
          "name": "_newSuperuser",
          "type": "address"
        }
      ],
      "name": "transferAdmin",
      "outputs": [],
      "payable": false,
      "stateMutability": "nonpayable",
      "type": "function"
    },
    {
      "constant": true,
      "inputs": [],
      "name": "getValidHash",
      "outputs": [
        {
          "name": "",
          "type": "string"
        }
      ],
      "payable": false,
      "stateMutability": "view",
      "type": "function"
    },
    {
      "constant": false,
      "inputs": [
        {
          "name": "addr",
          "type": "address"
        },
        {
          "name": "roleName",
          "type": "string"
        }
      ],
      "name": "adminRemoveRole",
      "outputs": [],
      "payable": false,
      "stateMutability": "nonpayable",
      "type": "function"
    },
    {
      "constant": true,
      "inputs": [],
      "name": "owner",
      "outputs": [
        {
          "name": "",
          "type": "address"
        }
      ],
      "payable": false,
      "stateMutability": "view",
      "type": "function"
    },
    {
      "constant": true,
      "inputs": [
        {
          "name": "",
          "type": "address"
        }
      ],
      "name": "mapPersonAddress",
      "outputs": [
        {
          "name": "",
          "type": "bytes32"
        }
      ],
      "payable": false,
      "stateMutability": "view",
      "type": "function"
    },
    {
      "constant": true,
      "inputs": [],
      "name": "validHash",
      "outputs": [
        {
          "name": "",
          "type": "string"
        }
      ],
      "payable": false,
      "stateMutability": "view",
      "type": "function"
    },
    {
      "constant": true,
      "inputs": [
        {
          "name": "",
          "type": "bytes32"
        }
      ],
      "name": "mapPerson",
      "outputs": [
        {
          "name": "sender",
          "type": "address"
        },
        {
          "name": "hashUport",
          "type": "string"
        },
        {
          "name": "status",
          "type": "uint8"
        },
        {
          "name": "hashTerms",
          "type": "string"
        }
      ],
      "payable": false,
      "stateMutability": "view",
      "type": "function"
    },
    {
      "constant": true,
      "inputs": [],
      "name": "ROLE_ADVISOR",
      "outputs": [
        {
          "name": "",
          "type": "string"
        }
      ],
      "payable": false,
      "stateMutability": "view",
      "type": "function"
    },
    {
      "constant": true,
      "inputs": [],
      "name": "ROLE_ADMIN",
      "outputs": [
        {
          "name": "",
          "type": "string"
        }
      ],
      "payable": false,
      "stateMutability": "view",
      "type": "function"
    },
    {
      "constant": true,
      "inputs": [],
      "name": "ROLE_COLLABORATOR",
      "outputs": [
        {
          "name": "",
          "type": "string"
        }
      ],
      "payable": false,
      "stateMutability": "view",
      "type": "function"
    },
    {
      "constant": true,
      "inputs": [],
      "name": "ROLE_ESPECIALIST",
      "outputs": [
        {
          "name": "",
          "type": "string"
        }
      ],
      "payable": false,
      "stateMutability": "view",
      "type": "function"
    },
    {
      "anonymous": false,
      "inputs": [
        {
          "indexed": false,
          "name": "isValid",
          "type": "bool"
        },
        {
          "indexed": false,
          "name": "validator",
          "type": "address"
        }
      ],
      "name": "PersonValidate",
      "type": "event"
    },
    {
      "anonymous": false,
      "inputs": [
        {
          "indexed": false,
          "name": "idUport",
          "type": "string"
        }
      ],
      "name": "RequestPerson",
      "type": "event"
    },
    {
      "anonymous": false,
      "inputs": [
        {
          "indexed": false,
          "name": "sender",
          "type": "address"
        },
        {
          "indexed": false,
          "name": "time",
          "type": "uint256"
        },
        {
          "indexed": false,
          "name": "validHash",
          "type": "string"
        }
      ],
      "name": "TermsAndConditionChanged",
      "type": "event"
    },
    {
      "anonymous": false,
      "inputs": [
        {
          "indexed": false,
          "name": "collaborator",
          "type": "address"
        }
      ],
      "name": "NewCollaborator",
      "type": "event"
    },
    {
      "anonymous": false,
      "inputs": [
        {
          "indexed": false,
          "name": "qtd",
          "type": "uint8"
        },
        {
          "indexed": false,
          "name": "responsable",
          "type": "address"
        }
      ],
      "name": "NewAdvisors",
      "type": "event"
    },
    {
      "anonymous": false,
      "inputs": [
        {
          "indexed": false,
          "name": "addr",
          "type": "address"
        },
        {
          "indexed": false,
          "name": "roleName",
          "type": "string"
        }
      ],
      "name": "RoleAdded",
      "type": "event"
    },
    {
      "anonymous": false,
      "inputs": [
        {
          "indexed": false,
          "name": "addr",
          "type": "address"
        },
        {
          "indexed": false,
          "name": "roleName",
          "type": "string"
        }
      ],
      "name": "RoleRemoved",
      "type": "event"
    },
    {
      "anonymous": false,
      "inputs": [
        {
          "indexed": true,
          "name": "previousOwner",
          "type": "address"
        },
        {
          "indexed": true,
          "name": "newOwner",
          "type": "address"
        }
      ],
      "name": "OwnershipTransferred",
      "type": "event"
    },
    {
      "constant": false,
      "inputs": [
        {
          "name": "_uPort",
          "type": "string"
        },
        {
          "name": "_hashTerms",
          "type": "string"
        },
        {
          "name": "_accepted",
          "type": "bool"
        }
      ],
      "name": "requestApprove",
      "outputs": [],
      "payable": false,
      "stateMutability": "nonpayable",
      "type": "function"
    },
    {
      "constant": false,
      "inputs": [
        {
          "name": "_uPort",
          "type": "string"
        },
        {
          "name": "_approveOrDisapprove",
          "type": "bool"
        }
      ],
      "name": "validate",
      "outputs": [],
      "payable": false,
      "stateMutability": "nonpayable",
      "type": "function"
    },
    {
      "constant": true,
      "inputs": [
        {
          "name": "_uPort",
          "type": "string"
        }
      ],
      "name": "getPersonByIdUport",
      "outputs": [
        {
          "name": "",
          "type": "address"
        },
        {
          "name": "",
          "type": "uint8"
        }
      ],
      "payable": false,
      "stateMutability": "view",
      "type": "function"
    }
  ],
  "bytecode": "0x6080604052336000806101000a81548173ffffffffffffffffffffffffffffffffffffffff021916908373ffffffffffffffffffffffffffffffffffffffff16021790555062000094336040805190810160405280600581526020017f61646d696e000000000000000000000000000000000000000000000000000000815250620000ea640100000000026401000000009004565b620000e4336040805190810160405280600781526020017f61647669736f7200000000000000000000000000000000000000000000000000815250620000ea640100000000026401000000009004565b620002ae565b62000179826001836040518082805190602001908083835b60208310151562000129578051825260208201915060208101905060208303925062000102565b6001836020036101000a0380198251168184511680821785525050505050509050019150509081526020016040518091039020620002506401000000000262002ac3179091906401000000009004565b7fbfec83d64eaa953f2708271a023ab9ee82057f8f3578d548c1a4ba0b5b7004898282604051808373ffffffffffffffffffffffffffffffffffffffff1673ffffffffffffffffffffffffffffffffffffffff16815260200180602001828103825283818151815260200191508051906020019080838360005b8381101562000210578082015181840152602081019050620001f3565b50505050905090810190601f1680156200023e5780820380516001836020036101000a031916815260200191505b50935050505060405180910390a15050565b60018260000160008373ffffffffffffffffffffffffffffffffffffffff1673ffffffffffffffffffffffffffffffffffffffff16815260200190815260200160002060006101000a81548160ff0219169083151502179055505050565b612cbc80620002be6000396000f300608060405260043610610133576000357c0100000000000000000000000000000000000000000000000000000000900463ffffffff168063035c36f114610138578063092a1820146101de5780630988ca8c146103385780630b6292bb146103c15780630bbc74c6146104085780630eeccb84146104985780631fd64ca5146104db578063217fe6c614610599578063390541a51461063a5780636af8c4e7146106a3578063730cc4fa146106fe57806375829def146107645780638129301c146107a757806388cee87e146108375780638da5cb5b146108c0578063a1c7349e14610917578063bd367e1114610976578063cbda7722146109d5578063cfefe08814610a65578063d1f8a4c114610bc3578063d391014b14610c53578063ed3e024a14610ce3578063f583369b14610d73575b600080fd5b34801561014457600080fd5b5061016360048036038101908080359060200190929190505050610e03565b6040518080602001828103825283818151815260200191508051906020019080838360005b838110156101a3578082015181840152602081019050610188565b50505050905090810190601f1680156101d05780820380516001836020036101000a031916815260200191505b509250505060405180910390f35b3480156101ea57600080fd5b5061020960048036038101908080359060200190929190505050610ebe565b604051808573ffffffffffffffffffffffffffffffffffffffff1673ffffffffffffffffffffffffffffffffffffffff1681526020018060200184600281111561024f57fe5b60ff16815260200180602001838103835286818151815260200191508051906020019080838360005b83811015610293578082015181840152602081019050610278565b50505050905090810190601f1680156102c05780820380516001836020036101000a031916815260200191505b50838103825284818151815260200191508051906020019080838360005b838110156102f95780820151818401526020810190506102de565b50505050905090810190601f1680156103265780820380516001836020036101000a031916815260200191505b50965050505050505060405180910390f35b34801561034457600080fd5b506103bf600480360381019080803573ffffffffffffffffffffffffffffffffffffffff169060200190929190803590602001908201803590602001908080601f016020809104026020016040519081016040528093929190818152602001838380828437820191505050505050919291929050505061105a565b005b3480156103cd57600080fd5b506104066004803603810190808035906020019082018035906020019190919293919293908035151590602001909291905050506110db565b005b34801561041457600080fd5b5061041d6113f4565b6040518080602001828103825283818151815260200191508051906020019080838360005b8381101561045d578082015181840152602081019050610442565b50505050905090810190601f16801561048a5780820380516001836020036101000a031916815260200191505b509250505060405180910390f35b3480156104a457600080fd5b506104d9600480360381019080803573ffffffffffffffffffffffffffffffffffffffff16906020019092919050505061142d565b005b3480156104e757600080fd5b50610542600480360381019080803590602001908201803590602001908080601f01602080910402602001604051908101604052809392919081815260200183838082843782019150505050505091929192905050506114ed565b604051808373ffffffffffffffffffffffffffffffffffffffff1673ffffffffffffffffffffffffffffffffffffffff16815260200182600281111561058457fe5b60ff1681526020019250505060405180910390f35b3480156105a557600080fd5b50610620600480360381019080803573ffffffffffffffffffffffffffffffffffffffff169060200190929190803590602001908201803590602001908080601f01602080910402602001604051908101604052809392919081815260200183838082843782019150505050505091929192905050506117e2565b604051808215151515815260200191505060405180910390f35b34801561064657600080fd5b506106a1600480360381019080803590602001908201803590602001908080601f0160208091040260200160405190810160405280939291908181526020018383808284378201915050505050509192919290505050611869565b005b3480156106af57600080fd5b506106e4600480360381019080803573ffffffffffffffffffffffffffffffffffffffff169060200190929190505050611a48565b604051808215151515815260200191505060405180910390f35b34801561070a57600080fd5b5061076260048036038101908080359060200190820180359060200190808060200260200160405190810160405280939291908181526020018383602002808284378201915050505050509192919290505050611ba8565b005b34801561077057600080fd5b506107a5600480360381019080803573ffffffffffffffffffffffffffffffffffffffff169060200190929190505050611d21565b005b3480156107b357600080fd5b506107bc611e1d565b6040518080602001828103825283818151815260200191508051906020019080838360005b838110156107fc5780820151818401526020810190506107e1565b50505050905090810190601f1680156108295780820380516001836020036101000a031916815260200191505b509250505060405180910390f35b34801561084357600080fd5b506108be600480360381019080803573ffffffffffffffffffffffffffffffffffffffff169060200190929190803590602001908201803590602001908080601f0160208091040260200160405190810160405280939291908181526020018383808284378201915050505050509192919290505050611ebf565b005b3480156108cc57600080fd5b506108d5611f5d565b604051808273ffffffffffffffffffffffffffffffffffffffff1673ffffffffffffffffffffffffffffffffffffffff16815260200191505060405180910390f35b34801561092357600080fd5b50610974600480360381019080803590602001908201803590602001919091929391929390803590602001908201803590602001919091929391929390803515159060200190929190505050611f82565b005b34801561098257600080fd5b506109b7600480360381019080803573ffffffffffffffffffffffffffffffffffffffff169060200190929190505050612377565b60405180826000191660001916815260200191505060405180910390f35b3480156109e157600080fd5b506109ea61238f565b6040518080602001828103825283818151815260200191508051906020019080838360005b83811015610a2a578082015181840152602081019050610a0f565b50505050905090810190601f168015610a575780820380516001836020036101000a031916815260200191505b509250505060405180910390f35b348015610a7157600080fd5b50610a94600480360381019080803560001916906020019092919050505061242d565b604051808573ffffffffffffffffffffffffffffffffffffffff1673ffffffffffffffffffffffffffffffffffffffff16815260200180602001846002811115610ada57fe5b60ff16815260200180602001838103835286818151815260200191508051906020019080838360005b83811015610b1e578082015181840152602081019050610b03565b50505050905090810190601f168015610b4b5780820380516001836020036101000a031916815260200191505b50838103825284818151815260200191508051906020019080838360005b83811015610b84578082015181840152602081019050610b69565b50505050905090810190601f168015610bb15780820380516001836020036101000a031916815260200191505b50965050505050505060405180910390f35b348015610bcf57600080fd5b50610bd86125ba565b6040518080602001828103825283818151815260200191508051906020019080838360005b83811015610c18578082015181840152602081019050610bfd565b50505050905090810190601f168015610c455780820380516001836020036101000a031916815260200191505b509250505060405180910390f35b348015610c5f57600080fd5b50610c686125f3565b6040518080602001828103825283818151815260200191508051906020019080838360005b83811015610ca8578082015181840152602081019050610c8d565b50505050905090810190601f168015610cd55780820380516001836020036101000a031916815260200191505b509250505060405180910390f35b348015610cef57600080fd5b50610cf861262c565b6040518080602001828103825283818151815260200191508051906020019080838360005b83811015610d38578082015181840152602081019050610d1d565b50505050905090810190601f168015610d655780820380516001836020036101000a031916815260200191505b509250505060405180910390f35b348015610d7f57600080fd5b50610d88612665565b6040518080602001828103825283818151815260200191508051906020019080838360005b83811015610dc8578082015181840152602081019050610dad565b50505050905090810190601f168015610df55780820380516001836020036101000a031916815260200191505b509250505060405180910390f35b600281815481101515610e1257fe5b906000526020600020016000915090508054600181600116156101000203166002900480601f016020809104026020016040519081016040528092919081815260200182805460018160011615610100020316600290048015610eb65780601f10610e8b57610100808354040283529160200191610eb6565b820191906000526020600020905b815481529060010190602001808311610e9957829003601f168201915b505050505081565b600781815481101515610ecd57fe5b90600052602060002090600402016000915090508060000160009054906101000a900473ffffffffffffffffffffffffffffffffffffffff1690806001018054600181600116156101000203166002900480601f016020809104026020016040519081016040528092919081815260200182805460018160011615610100020316600290048015610f9f5780601f10610f7457610100808354040283529160200191610f9f565b820191906000526020600020905b815481529060010190602001808311610f8257829003601f168201915b5050505050908060020160009054906101000a900460ff1690806003018054600181600116156101000203166002900480601f0160208091040260200160405190810160405280929190818152602001828054600181600116156101000203166002900480156110505780601f1061102557610100808354040283529160200191611050565b820191906000526020600020905b81548152906001019060200180831161103357829003601f168201915b5050505050905084565b6110d7826001836040518082805190602001908083835b6020831015156110965780518252602082019150602081019050602083039250611071565b6001836020036101000a038019825116818451168082178552505050505050905001915050908152602001604051809103902061269e90919063ffffffff16565b5050565b6000336110e781611a48565b15156110f257600080fd5b600061112f86868080601f0160208091040260200160405190810160405280939291908181526020018383808284378201915050505050506126b7565b50602060ff1611151561114157600080fd5b61117c85858080601f0160208091040260200160405190810160405280939291908181526020018383808284378201915050505050506126b7565b9150600060056000846000191660001916815260200190815260200160002060000160009054906101000a900473ffffffffffffffffffffffffffffffffffffffff1673ffffffffffffffffffffffffffffffffffffffff16141515156111e257600080fd5b3373ffffffffffffffffffffffffffffffffffffffff1660056000846000191660001916815260200190815260200160002060000160009054906101000a900473ffffffffffffffffffffffffffffffffffffffff1673ffffffffffffffffffffffffffffffffffffffff161415151561125b57600080fd5b6000600281111561126857fe5b60056000846000191660001916815260200190815260200160002060020160009054906101000a900460ff16600281111561129f57fe5b1415156112ab57600080fd5b821561133d57600160056000846000191660001916815260200190815260200160002060020160006101000a81548160ff021916908360028111156112ec57fe5b021790555061133860056000846000191660001916815260200190815260200160002060000160009054906101000a900473ffffffffffffffffffffffffffffffffffffffff166126c5565b61137e565b600260056000846000191660001916815260200190815260200160002060020160006101000a81548160ff0219169083600281111561137857fe5b02179055505b7fa2ec2c9e3f9f8539e81b7b1fbb60772faef5a26ab705e5329b9f5dfb4035e936833360405180831515151581526020018273ffffffffffffffffffffffffffffffffffffffff1673ffffffffffffffffffffffffffffffffffffffff1681526020019250505060405180910390a15050505050565b6040805190810160405280600a81526020017f616d6261737361646f720000000000000000000000000000000000000000000081525081565b61146c336040805190810160405280600581526020017f61646d696e00000000000000000000000000000000000000000000000000000081525061105a565b6114ab816040805190810160405280600781526020017f61647669736f720000000000000000000000000000000000000000000000000081525061105a565b6114ea816040805190810160405280600781526020017f61647669736f720000000000000000000000000000000000000000000000000081525061276a565b50565b60008060006114fa612b21565b600060056000611509886126b7565b6000191660001916815260200190815260200160002060000160009054906101000a900473ffffffffffffffffffffffffffffffffffffffff1673ffffffffffffffffffffffffffffffffffffffff161415151561156657600080fd5b600060056000611575886126b7565b6000191660001916815260200190815260200160002060000160009054906101000a900473ffffffffffffffffffffffffffffffffffffffff1673ffffffffffffffffffffffffffffffffffffffff16141515156115d257600080fd5b6115db856126b7565b9150600560008360001916600019168152602001908152602001600020608060405190810160405290816000820160009054906101000a900473ffffffffffffffffffffffffffffffffffffffff1673ffffffffffffffffffffffffffffffffffffffff1673ffffffffffffffffffffffffffffffffffffffff168152602001600182018054600181600116156101000203166002900480601f0160208091040260200160405190810160405280929190818152602001828054600181600116156101000203166002900480156116f35780601f106116c8576101008083540402835291602001916116f3565b820191906000526020600020905b8154815290600101906020018083116116d657829003601f168201915b505050505081526020016002820160009054906101000a900460ff16600281111561171a57fe5b600281111561172557fe5b8152602001600382018054600181600116156101000203166002900480601f0160208091040260200160405190810160405280929190818152602001828054600181600116156101000203166002900480156117c25780601f10611797576101008083540402835291602001916117c2565b820191906000526020600020905b8154815290600101906020018083116117a557829003601f168201915b505050505081525050905080600001518160400151935093505050915091565b6000611861836001846040518082805190602001908083835b60208310151561182057805182526020820191506020810190506020830392506117fb565b6001836020036101000a03801982511681845116808217855250505050505090500191505090815260200160405180910390206128bb90919063ffffffff16565b905092915050565b6118a8336040805190810160405280600581526020017f61646d696e0000000000000000000000000000000000000000000000000000008152506117e2565b806118ee57506118ed336040805190810160405280600781526020017f61647669736f72000000000000000000000000000000000000000000000000008152506117e2565b5b15156118f957600080fd5b6002819080600181540180825580915050906001820390600052602060002001600090919290919091509080519060200190611936929190612b6b565b5050806003908051906020019061194e929190612b6b565b507f6d6eae271da0ff27174c7ef6da7f0ae76c697dbf8134161d15febe0708f7953133426003604051808473ffffffffffffffffffffffffffffffffffffffff1673ffffffffffffffffffffffffffffffffffffffff16815260200183815260200180602001828103825283818154600181600116156101000203166002900481526020019150805460018160011615610100020316600290048015611a355780601f10611a0a57610100808354040283529160200191611a35565b820191906000526020600020905b815481529060010190602001808311611a1857829003601f168201915b505094505050505060405180910390a150565b6000611a89826040805190810160405280600581526020017f61646d696e0000000000000000000000000000000000000000000000000000008152506117e2565b80611acf5750611ace826040805190810160405280600781526020017f61647669736f72000000000000000000000000000000000000000000000000008152506117e2565b5b80611b155750611b14826040805190810160405280600b81526020017f657370656369616c6973740000000000000000000000000000000000000000008152506117e2565b5b80611b5b5750611b5a826040805190810160405280600a81526020017f616d6261737361646f72000000000000000000000000000000000000000000008152506117e2565b5b80611ba15750611ba0826040805190810160405280600c81526020017f636f6c6c61626f7261746f7200000000000000000000000000000000000000008152506117e2565b5b9050919050565b6000611be9336040805190810160405280600581526020017f61646d696e0000000000000000000000000000000000000000000000000000008152506117e2565b80611c2f5750611c2e336040805190810160405280600781526020017f61647669736f72000000000000000000000000000000000000000000000000008152506117e2565b5b1515611c3a57600080fd5b600090505b8151811015611cab57611c9e8282815181101515611c5957fe5b906020019060200201516040805190810160405280600781526020017f61647669736f7200000000000000000000000000000000000000000000000000815250612914565b8080600101915050611c3f565b7ff6b3dad323d4fe309efd8e13dfa1c0c9468967428cab4fc2de574e99be84e095825133604051808360ff1660ff1681526020018273ffffffffffffffffffffffffffffffffffffffff1673ffffffffffffffffffffffffffffffffffffffff1681526020019250505060405180910390a15050565b611d60336040805190810160405280600581526020017f61646d696e00000000000000000000000000000000000000000000000000000081525061105a565b600073ffffffffffffffffffffffffffffffffffffffff168173ffffffffffffffffffffffffffffffffffffffff1614151515611d9c57600080fd5b611ddb336040805190810160405280600581526020017f61646d696e00000000000000000000000000000000000000000000000000000081525061276a565b611e1a816040805190810160405280600581526020017f61646d696e000000000000000000000000000000000000000000000000000000815250612914565b50565b606060038054600181600116156101000203166002900480601f016020809104026020016040519081016040528092919081815260200182805460018160011615610100020316600290048015611eb55780601f10611e8a57610100808354040283529160200191611eb5565b820191906000526020600020905b815481529060010190602001808311611e9857829003601f168201915b5050505050905090565b611efe336040805190810160405280600581526020017f61646d696e0000000000000000000000000000000000000000000000000000008152506117e2565b80611f445750611f43336040805190810160405280600781526020017f61647669736f72000000000000000000000000000000000000000000000000008152506117e2565b5b1515611f4f57600080fd5b611f59828261276a565b5050565b6000809054906101000a900473ffffffffffffffffffffffffffffffffffffffff1681565b6000611f8c612b21565b821515611f9857600080fd5b6000611fd588888080601f0160208091040260200160405190810160405280939291908181526020018383808284378201915050505050506126b7565b50602060ff16111515611fe757600080fd5b61202287878080601f0160208091040260200160405190810160405280939291908181526020018383808284378201915050505050506126b7565b9150600060056000846000191660001916815260200190815260200160002060000160009054906101000a900473ffffffffffffffffffffffffffffffffffffffff1673ffffffffffffffffffffffffffffffffffffffff1614151561208757600080fd5b6080604051908101604052803373ffffffffffffffffffffffffffffffffffffffff16815260200188888080601f0160208091040260200160405190810160405280939291908181526020018383808284378201915050505050508152602001600060028111156120f457fe5b815260200186868080601f01602080910402602001604051908101604052809392919081815260200183838082843782019150505050505081525090506007819080600181540180825580915050906001820390600052602060002090600402016000909192909190915060008201518160000160006101000a81548173ffffffffffffffffffffffffffffffffffffffff021916908373ffffffffffffffffffffffffffffffffffffffff16021790555060208201518160010190805190602001906121c2929190612beb565b5060408201518160020160006101000a81548160ff021916908360028111156121e757fe5b02179055506060820151816003019080519060200190612208929190612beb565b505050508060056000846000191660001916815260200190815260200160002060008201518160000160006101000a81548173ffffffffffffffffffffffffffffffffffffffff021916908373ffffffffffffffffffffffffffffffffffffffff160217905550602082015181600101908051906020019061228b929190612beb565b5060408201518160020160006101000a81548160ff021916908360028111156122b057fe5b021790555060608201518160030190805190602001906122d1929190612beb565b5090505081600660003373ffffffffffffffffffffffffffffffffffffffff1673ffffffffffffffffffffffffffffffffffffffff16815260200190815260200160002081600019169055507fa64991bb878d570c4ded98e60d71a36b7ead98700fbf4b04ac704829d7100e988787604051808060200182810382528484828181526020019250808284378201915050935050505060405180910390a150505050505050565b60066020528060005260406000206000915090505481565b60038054600181600116156101000203166002900480601f0160208091040260200160405190810160405280929190818152602001828054600181600116156101000203166002900480156124255780601f106123fa57610100808354040283529160200191612425565b820191906000526020600020905b81548152906001019060200180831161240857829003601f168201915b505050505081565b60056020528060005260406000206000915090508060000160009054906101000a900473ffffffffffffffffffffffffffffffffffffffff1690806001018054600181600116156101000203166002900480601f0160208091040260200160405190810160405280929190818152602001828054600181600116156101000203166002900480156124ff5780601f106124d4576101008083540402835291602001916124ff565b820191906000526020600020905b8154815290600101906020018083116124e257829003601f168201915b5050505050908060020160009054906101000a900460ff1690806003018054600181600116156101000203166002900480601f0160208091040260200160405190810160405280929190818152602001828054600181600116156101000203166002900480156125b05780601f10612585576101008083540402835291602001916125b0565b820191906000526020600020905b81548152906001019060200180831161259357829003601f168201915b5050505050905084565b6040805190810160405280600781526020017f61647669736f720000000000000000000000000000000000000000000000000081525081565b6040805190810160405280600581526020017f61646d696e00000000000000000000000000000000000000000000000000000081525081565b6040805190810160405280600c81526020017f636f6c6c61626f7261746f72000000000000000000000000000000000000000081525081565b6040805190810160405280600b81526020017f657370656369616c69737400000000000000000000000000000000000000000081525081565b6126a882826128bb565b15156126b357600080fd5b5050565b600060208201519050919050565b612704816040805190810160405280600c81526020017f636f6c6c61626f7261746f720000000000000000000000000000000000000000815250612914565b7f4091eebfa2b1f57cff068416da5103e7bb37dff57001aca37c07b7b050a7330a81604051808273ffffffffffffffffffffffffffffffffffffffff1673ffffffffffffffffffffffffffffffffffffffff16815260200191505060405180910390a150565b6127e7826001836040518082805190602001908083835b6020831015156127a65780518252602082019150602081019050602083039250612781565b6001836020036101000a0380198251168184511680821785525050505050509050019150509081526020016040518091039020612a6590919063ffffffff16565b7fd211483f91fc6eff862467f8de606587a30c8fc9981056f051b897a418df803a8282604051808373ffffffffffffffffffffffffffffffffffffffff1673ffffffffffffffffffffffffffffffffffffffff16815260200180602001828103825283818151815260200191508051906020019080838360005b8381101561287c578082015181840152602081019050612861565b50505050905090810190601f1680156128a95780820380516001836020036101000a031916815260200191505b50935050505060405180910390a15050565b60008260000160008373ffffffffffffffffffffffffffffffffffffffff1673ffffffffffffffffffffffffffffffffffffffff16815260200190815260200160002060009054906101000a900460ff16905092915050565b612991826001836040518082805190602001908083835b602083101515612950578051825260208201915060208101905060208303925061292b565b6001836020036101000a0380198251168184511680821785525050505050509050019150509081526020016040518091039020612ac390919063ffffffff16565b7fbfec83d64eaa953f2708271a023ab9ee82057f8f3578d548c1a4ba0b5b7004898282604051808373ffffffffffffffffffffffffffffffffffffffff1673ffffffffffffffffffffffffffffffffffffffff16815260200180602001828103825283818151815260200191508051906020019080838360005b83811015612a26578082015181840152602081019050612a0b565b50505050905090810190601f168015612a535780820380516001836020036101000a031916815260200191505b50935050505060405180910390a15050565b60008260000160008373ffffffffffffffffffffffffffffffffffffffff1673ffffffffffffffffffffffffffffffffffffffff16815260200190815260200160002060006101000a81548160ff0219169083151502179055505050565b60018260000160008373ffffffffffffffffffffffffffffffffffffffff1673ffffffffffffffffffffffffffffffffffffffff16815260200190815260200160002060006101000a81548160ff0219169083151502179055505050565b608060405190810160405280600073ffffffffffffffffffffffffffffffffffffffff1681526020016060815260200160006002811115612b5e57fe5b8152602001606081525090565b828054600181600116156101000203166002900490600052602060002090601f016020900481019282601f10612bac57805160ff1916838001178555612bda565b82800160010185558215612bda579182015b82811115612bd9578251825591602001919060010190612bbe565b5b509050612be79190612c6b565b5090565b828054600181600116156101000203166002900490600052602060002090601f016020900481019282601f10612c2c57805160ff1916838001178555612c5a565b82800160010185558215612c5a579182015b82811115612c59578251825591602001919060010190612c3e565b5b509050612c679190612c6b565b5090565b612c8d91905b80821115612c89576000816000905550600101612c71565b5090565b905600a165627a7a723058209da0e097eb3b1cb5e8671293786b976f3b75615a3daa6cfd9bb832c99ee613200029",
  "source": "pragma solidity 0.4.24;\n\nimport \"./TermsAndCondition.sol\";\nimport \"../util/StringUtils.sol\";\n\ncontract PersonIdentity is TermsAndCondition {\n    using StringUtils for string;\n    enum Status {PENDING, APPROVE, REJECTED}\n    Status status;\n    mapping (bytes32=>Person) public mapPerson;\n    mapping (address=>bytes32) public mapPersonAddress;\n    Person[] public person;\n    event PersonValidate(bool isValid, address validator);\n    event RequestPerson(string idUport);\n\n    struct Person {\n        address sender;\n        string hashUport;\n        Status status;\n        string hashTerms;\n    }\n\n    /**\n    * @dev Request approve to participate of DAO\n    * @param _uPort idPort\n    * @param _hashTerms hash of terms    \n    * @param _accepted true or false\n    */   \n    function requestApprove(string _uPort, string _hashTerms, bool _accepted) external {\n        require(_accepted);\n        require(_uPort.stringToBytes32().length > 0);\n        bytes32 hashUportByte32 = _uPort.stringToBytes32();\n        require(mapPerson[hashUportByte32].sender == 0x0);\n        // require(!isCollaborator(msg.sender));\n\n        Person memory p = Person ({\n            sender: msg.sender,\n            hashUport: _uPort,\n            status: Status.PENDING,\n            hashTerms: _hashTerms\n        });\n        person.push(p);\n        mapPerson[hashUportByte32] = p;\n        mapPersonAddress[msg.sender] = hashUportByte32;\n        emit RequestPerson(_uPort);\n    }\n\n    /**\n    * @dev Validate the request to participate of DAO\n    * @param _uPort idPort\n    * @param _approveOrDisapprove true or false\n    */    \n    function validate(string _uPort, bool _approveOrDisapprove) external onlyCollaborator(msg.sender) {\n        require(_uPort.stringToBytes32().length > 0);\n        bytes32 hashUportByte32 = _uPort.stringToBytes32();\n        require(mapPerson[hashUportByte32].sender != 0x0);\n        require(mapPerson[hashUportByte32].sender != msg.sender);\n        require(mapPerson[hashUportByte32].status == Status.PENDING);\n\n        if (_approveOrDisapprove) {\n            mapPerson[hashUportByte32].status = Status.APPROVE;\n            addCollaborator(mapPerson[hashUportByte32].sender);\n        } else {\n            mapPerson[hashUportByte32].status = Status.REJECTED;\n        }\n        emit PersonValidate(_approveOrDisapprove, msg.sender);\n    }\n\n    /**\n    * @dev Return the information about uport address\n    * @param _uPort idPort\n    * @return address\n    * @return Status    \n    */   \n    function getPersonByIdUport(string _uPort) view public returns(address, Status) {\n        require(mapPerson[_uPort.stringToBytes32()].sender != 0x0);\n        require(mapPerson[_uPort.stringToBytes32()].sender != 0x0);\n        bytes32 nameAsBytes = _uPort.stringToBytes32();\n        Person memory p = mapPerson[nameAsBytes];\n\n        return (p.sender, p.status);\n    }\n}",
  "sourcePath": "/Users/hgleite/Documents/henrique/GoBlockchain/smart-contract-identity/contracts/identity/PersonIdentity.sol",
  "compiler": {
    "name": "solc",
    "version": "0.4.24+commit.e67f0147.Emscripten.clang"
  },
  "schemaVersion": "2.0.0",
  "updatedAt": "2018-08-18T23:53:54.323Z"
}