{
  "contractName": "PersonIdentity",
  "abi": [
    {
      "constant": true,
      "inputs": [
        {
          "name": "",
          "type": "uint256"
        }
      ],
      "name": "hashTerms",
      "outputs": [
        {
          "name": "",
          "type": "string"
        }
      ],
      "payable": false,
      "stateMutability": "view",
      "type": "function"
    },
    {
      "constant": true,
      "inputs": [
        {
          "name": "",
          "type": "uint256"
        }
      ],
      "name": "person",
      "outputs": [
        {
          "name": "sender",
          "type": "address"
        },
        {
          "name": "hashUport",
          "type": "string"
        },
        {
          "name": "status",
          "type": "uint8"
        },
        {
          "name": "hashTerms",
          "type": "string"
        }
      ],
      "payable": false,
      "stateMutability": "view",
      "type": "function"
    },
    {
      "constant": true,
      "inputs": [
        {
          "name": "addr",
          "type": "address"
        },
        {
          "name": "roleName",
          "type": "string"
        }
      ],
      "name": "checkRole",
      "outputs": [],
      "payable": false,
      "stateMutability": "view",
      "type": "function"
    },
    {
      "constant": true,
      "inputs": [
        {
          "name": "addr",
          "type": "address"
        },
        {
          "name": "roleName",
          "type": "string"
        }
      ],
      "name": "hasRole",
      "outputs": [
        {
          "name": "",
          "type": "bool"
        }
      ],
      "payable": false,
      "stateMutability": "view",
      "type": "function"
    },
    {
      "constant": false,
      "inputs": [
        {
          "name": "_hash",
          "type": "string"
        }
      ],
      "name": "setTermsAndCondition",
      "outputs": [],
      "payable": false,
      "stateMutability": "nonpayable",
      "type": "function"
    },
    {
      "constant": true,
      "inputs": [],
      "name": "retu",
      "outputs": [
        {
          "name": "",
          "type": "uint8"
        }
      ],
      "payable": false,
      "stateMutability": "view",
      "type": "function"
    },
    {
      "constant": false,
      "inputs": [
        {
          "name": "_newSuperuser",
          "type": "address"
        }
      ],
      "name": "transferAdmin",
      "outputs": [],
      "payable": false,
      "stateMutability": "nonpayable",
      "type": "function"
    },
    {
      "constant": true,
      "inputs": [],
      "name": "getValidHash",
      "outputs": [
        {
          "name": "",
          "type": "string"
        }
      ],
      "payable": false,
      "stateMutability": "view",
      "type": "function"
    },
    {
      "constant": false,
      "inputs": [
        {
          "name": "addr",
          "type": "address"
        },
        {
          "name": "roleName",
          "type": "string"
        }
      ],
      "name": "adminRemoveRole",
      "outputs": [],
      "payable": false,
      "stateMutability": "nonpayable",
      "type": "function"
    },
    {
      "constant": true,
      "inputs": [],
      "name": "owner",
      "outputs": [
        {
          "name": "",
          "type": "address"
        }
      ],
      "payable": false,
      "stateMutability": "view",
      "type": "function"
    },
    {
      "constant": true,
      "inputs": [
        {
          "name": "",
          "type": "address"
        }
      ],
      "name": "mapPersonAddress",
      "outputs": [
        {
          "name": "",
          "type": "bytes32"
        }
      ],
      "payable": false,
      "stateMutability": "view",
      "type": "function"
    },
    {
      "constant": true,
      "inputs": [],
      "name": "validHash",
      "outputs": [
        {
          "name": "",
          "type": "string"
        }
      ],
      "payable": false,
      "stateMutability": "view",
      "type": "function"
    },
    {
      "constant": true,
      "inputs": [
        {
          "name": "",
          "type": "bytes32"
        }
      ],
      "name": "mapPerson",
      "outputs": [
        {
          "name": "sender",
          "type": "address"
        },
        {
          "name": "hashUport",
          "type": "string"
        },
        {
          "name": "status",
          "type": "uint8"
        },
        {
          "name": "hashTerms",
          "type": "string"
        }
      ],
      "payable": false,
      "stateMutability": "view",
      "type": "function"
    },
    {
      "constant": true,
      "inputs": [],
      "name": "ROLE_ADMIN",
      "outputs": [
        {
          "name": "",
          "type": "string"
        }
      ],
      "payable": false,
      "stateMutability": "view",
      "type": "function"
    },
    {
      "constant": false,
      "inputs": [
        {
          "name": "_type",
          "type": "uint8"
        },
        {
          "name": "_start",
          "type": "uint64"
        },
        {
          "name": "_end",
          "type": "uint64"
        }
      ],
      "name": "addReputation",
      "outputs": [],
      "payable": false,
      "stateMutability": "nonpayable",
      "type": "function"
    },
    {
      "constant": false,
      "inputs": [
        {
          "name": "_type",
          "type": "uint8"
        }
      ],
      "name": "removeReputation",
      "outputs": [],
      "payable": false,
      "stateMutability": "nonpayable",
      "type": "function"
    },
    {
      "constant": true,
      "inputs": [],
      "name": "ROLE_COLLABORATOR",
      "outputs": [
        {
          "name": "",
          "type": "string"
        }
      ],
      "payable": false,
      "stateMutability": "view",
      "type": "function"
    },
    {
      "inputs": [],
      "payable": false,
      "stateMutability": "nonpayable",
      "type": "constructor"
    },
    {
      "anonymous": false,
      "inputs": [
        {
          "indexed": false,
          "name": "isValid",
          "type": "bool"
        },
        {
          "indexed": false,
          "name": "validator",
          "type": "address"
        }
      ],
      "name": "PersonValidate",
      "type": "event"
    },
    {
      "anonymous": false,
      "inputs": [
        {
          "indexed": false,
          "name": "idUport",
          "type": "string"
        }
      ],
      "name": "RequestPerson",
      "type": "event"
    },
    {
      "anonymous": false,
      "inputs": [
        {
          "indexed": false,
          "name": "sender",
          "type": "address"
        },
        {
          "indexed": false,
          "name": "time",
          "type": "uint256"
        },
        {
          "indexed": false,
          "name": "validHash",
          "type": "string"
        }
      ],
      "name": "TermsAndConditionChanged",
      "type": "event"
    },
    {
      "anonymous": false,
      "inputs": [
        {
          "indexed": false,
          "name": "collaborator",
          "type": "address"
        }
      ],
      "name": "NewCollaborator",
      "type": "event"
    },
    {
      "anonymous": false,
      "inputs": [
        {
          "indexed": false,
          "name": "qtd",
          "type": "uint8"
        },
        {
          "indexed": false,
          "name": "responsable",
          "type": "address"
        }
      ],
      "name": "NewAdvisors",
      "type": "event"
    },
    {
      "anonymous": false,
      "inputs": [
        {
          "indexed": false,
          "name": "addr",
          "type": "address"
        },
        {
          "indexed": false,
          "name": "roleName",
          "type": "string"
        }
      ],
      "name": "RoleAdded",
      "type": "event"
    },
    {
      "anonymous": false,
      "inputs": [
        {
          "indexed": false,
          "name": "addr",
          "type": "address"
        },
        {
          "indexed": false,
          "name": "roleName",
          "type": "string"
        }
      ],
      "name": "RoleRemoved",
      "type": "event"
    },
    {
      "anonymous": false,
      "inputs": [
        {
          "indexed": true,
          "name": "previousOwner",
          "type": "address"
        },
        {
          "indexed": true,
          "name": "newOwner",
          "type": "address"
        }
      ],
      "name": "OwnershipTransferred",
      "type": "event"
    },
    {
      "constant": false,
      "inputs": [
        {
          "name": "_uPort",
          "type": "string"
        },
        {
          "name": "_hashTerms",
          "type": "string"
        },
        {
          "name": "_accepted",
          "type": "bool"
        }
      ],
      "name": "requestApprove",
      "outputs": [],
      "payable": false,
      "stateMutability": "nonpayable",
      "type": "function"
    },
    {
      "constant": false,
      "inputs": [
        {
          "name": "_uPort",
          "type": "string"
        },
        {
          "name": "_approveOrDisapprove",
          "type": "bool"
        }
      ],
      "name": "validate",
      "outputs": [],
      "payable": false,
      "stateMutability": "nonpayable",
      "type": "function"
    },
    {
      "constant": true,
      "inputs": [
        {
          "name": "_uPort",
          "type": "string"
        }
      ],
      "name": "getPersonByIdUport",
      "outputs": [
        {
          "name": "",
          "type": "address"
        },
        {
          "name": "",
          "type": "uint8"
        }
      ],
      "payable": false,
      "stateMutability": "view",
      "type": "function"
    },
    {
      "constant": true,
      "inputs": [],
      "name": "getListPerson",
      "outputs": [
        {
          "name": "",
          "type": "uint256"
        }
      ],
      "payable": false,
      "stateMutability": "view",
      "type": "function"
    }
  ],
  "bytecode": "0x60806040523480156200001157600080fd5b506200001c620003e3565b336000806101000a81548173ffffffffffffffffffffffffffffffffffffffff021916908373ffffffffffffffffffffffffffffffffffffffff160217905550620000ac336040805190810160405280600581526020017f61646d696e0000000000000000000000000000000000000000000000000000008152506200021f640100000000026401000000009004565b6080604051908101604052803373ffffffffffffffffffffffffffffffffffffffff1681526020016020604051908101604052806000815250815260200160016002811115620000f857fe5b81526020016040805190810160405280600381526020017f307830000000000000000000000000000000000000000000000000000000000081525081525090506008819080600181540180825580915050906001820390600052602060002090600402016000909192909190915060008201518160000160006101000a81548173ffffffffffffffffffffffffffffffffffffffff021916908373ffffffffffffffffffffffffffffffffffffffff1602179055506020820151816001019080519060200190620001cb9291906200042e565b5060408201518160020160006101000a81548160ff02191690836002811115620001f157fe5b02179055506060820151816003019080519060200190620002149291906200042e565b5050505050620004dd565b620002ae826002836040518082805190602001908083835b6020831015156200025e578051825260208201915060208101905060208303925062000237565b6001836020036101000a0380198251168184511680821785525050505050509050019150509081526020016040518091039020620003856401000000000262002e33179091906401000000009004565b7fbfec83d64eaa953f2708271a023ab9ee82057f8f3578d548c1a4ba0b5b7004898282604051808373ffffffffffffffffffffffffffffffffffffffff1673ffffffffffffffffffffffffffffffffffffffff16815260200180602001828103825283818151815260200191508051906020019080838360005b838110156200034557808201518184015260208101905062000328565b50505050905090810190601f168015620003735780820380516001836020036101000a031916815260200191505b50935050505060405180910390a15050565b60018260000160008373ffffffffffffffffffffffffffffffffffffffff1673ffffffffffffffffffffffffffffffffffffffff16815260200190815260200160002060006101000a81548160ff0219169083151502179055505050565b608060405190810160405280600073ffffffffffffffffffffffffffffffffffffffff16815260200160608152602001600060028111156200042157fe5b8152602001606081525090565b828054600181600116156101000203166002900490600052602060002090601f016020900481019282601f106200047157805160ff1916838001178555620004a2565b82800160010185558215620004a2579182015b82811115620004a157825182559160200191906001019062000484565b5b509050620004b19190620004b5565b5090565b620004da91905b80821115620004d6576000816000905550600101620004bc565b5090565b90565b61305a80620004ed6000396000f30060806040526004361061011d576000357c0100000000000000000000000000000000000000000000000000000000900463ffffffff168063035c36f114610122578063092a1820146101c85780630988ca8c146103225780630b6292bb146103ab5780631fd64ca5146103f2578063217fe6c6146104b0578063390541a5146105515780633fc2651f146105ba57806375829def146105f35780638129301c1461063657806388cee87e146106c65780638da5cb5b1461074f578063a1c7349e146107a6578063b7b3767714610805578063bd367e1114610830578063cbda77221461088f578063cfefe0881461091f578063d391014b14610a7d578063d56c40dd14610b0d578063dd059ed514610b65578063ed3e024a14610b95575b600080fd5b34801561012e57600080fd5b5061014d60048036038101908080359060200190929190505050610c25565b6040518080602001828103825283818151815260200191508051906020019080838360005b8381101561018d578082015181840152602081019050610172565b50505050905090810190601f1680156101ba5780820380516001836020036101000a031916815260200191505b509250505060405180910390f35b3480156101d457600080fd5b506101f360048036038101908080359060200190929190505050610ce0565b604051808573ffffffffffffffffffffffffffffffffffffffff1673ffffffffffffffffffffffffffffffffffffffff1681526020018060200184600281111561023957fe5b60ff16815260200180602001838103835286818151815260200191508051906020019080838360005b8381101561027d578082015181840152602081019050610262565b50505050905090810190601f1680156102aa5780820380516001836020036101000a031916815260200191505b50838103825284818151815260200191508051906020019080838360005b838110156102e35780820151818401526020810190506102c8565b50505050905090810190601f1680156103105780820380516001836020036101000a031916815260200191505b50965050505050505060405180910390f35b34801561032e57600080fd5b506103a9600480360381019080803573ffffffffffffffffffffffffffffffffffffffff169060200190929190803590602001908201803590602001908080601f0160208091040260200160405190810160405280939291908181526020018383808284378201915050505050509192919290505050610e7c565b005b3480156103b757600080fd5b506103f0600480360381019080803590602001908201803590602001919091929391929390803515159060200190929190505050610efd565b005b3480156103fe57600080fd5b50610459600480360381019080803590602001908201803590602001908080601f01602080910402602001604051908101604052809392919081815260200183838082843782019150505050505091929192905050506112b7565b604051808373ffffffffffffffffffffffffffffffffffffffff1673ffffffffffffffffffffffffffffffffffffffff16815260200182600281111561049b57fe5b60ff1681526020019250505060405180910390f35b3480156104bc57600080fd5b50610537600480360381019080803573ffffffffffffffffffffffffffffffffffffffff169060200190929190803590602001908201803590602001908080601f016020809104026020016040519081016040528093929190818152602001838380828437820191505050505050919291929050505061155f565b604051808215151515815260200191505060405180910390f35b34801561055d57600080fd5b506105b8600480360381019080803590602001908201803590602001908080601f01602080910402602001604051908101604052809392919081815260200183838082843782019150505050505091929192905050506115e6565b005b3480156105c657600080fd5b506105cf6117e8565b604051808260038111156105df57fe5b60ff16815260200191505060405180910390f35b3480156105ff57600080fd5b50610634600480360381019080803573ffffffffffffffffffffffffffffffffffffffff1690602001909291905050506117fb565b005b34801561064257600080fd5b5061064b611a20565b6040518080602001828103825283818151815260200191508051906020019080838360005b8381101561068b578082015181840152602081019050610670565b50505050905090810190601f1680156106b85780820380516001836020036101000a031916815260200191505b509250505060405180910390f35b3480156106d257600080fd5b5061074d600480360381019080803573ffffffffffffffffffffffffffffffffffffffff169060200190929190803590602001908201803590602001908080601f0160208091040260200160405190810160405280939291908181526020018383808284378201915050505050509192919290505050611ac2565b005b34801561075b57600080fd5b50610764611b83565b604051808273ffffffffffffffffffffffffffffffffffffffff1673ffffffffffffffffffffffffffffffffffffffff16815260200191505060405180910390f35b3480156107b257600080fd5b50610803600480360381019080803590602001908201803590602001919091929391929390803590602001908201803590602001919091929391929390803515159060200190929190505050611ba8565b005b34801561081157600080fd5b5061081a612378565b6040518082815260200191505060405180910390f35b34801561083c57600080fd5b50610871600480360381019080803573ffffffffffffffffffffffffffffffffffffffff169060200190929190505050612385565b60405180826000191660001916815260200191505060405180910390f35b34801561089b57600080fd5b506108a461239d565b6040518080602001828103825283818151815260200191508051906020019080838360005b838110156108e45780820151818401526020810190506108c9565b50505050905090810190601f1680156109115780820380516001836020036101000a031916815260200191505b509250505060405180910390f35b34801561092b57600080fd5b5061094e600480360381019080803560001916906020019092919050505061243b565b604051808573ffffffffffffffffffffffffffffffffffffffff1673ffffffffffffffffffffffffffffffffffffffff1681526020018060200184600281111561099457fe5b60ff16815260200180602001838103835286818151815260200191508051906020019080838360005b838110156109d85780820151818401526020810190506109bd565b50505050905090810190601f168015610a055780820380516001836020036101000a031916815260200191505b50838103825284818151815260200191508051906020019080838360005b83811015610a3e578082015181840152602081019050610a23565b50505050905090810190601f168015610a6b5780820380516001836020036101000a031916815260200191505b50965050505050505060405180910390f35b348015610a8957600080fd5b50610a926125c8565b6040518080602001828103825283818151815260200191508051906020019080838360005b83811015610ad2578082015181840152602081019050610ab7565b50505050905090810190601f168015610aff5780820380516001836020036101000a031916815260200191505b509250505060405180910390f35b348015610b1957600080fd5b50610b63600480360381019080803560ff169060200190929190803567ffffffffffffffff169060200190929190803567ffffffffffffffff169060200190929190505050612601565b005b348015610b7157600080fd5b50610b93600480360381019080803560ff169060200190929190505050612842565b005b348015610ba157600080fd5b50610baa6129d5565b6040518080602001828103825283818151815260200191508051906020019080838360005b83811015610bea578082015181840152602081019050610bcf565b50505050905090810190601f168015610c175780820380516001836020036101000a031916815260200191505b509250505060405180910390f35b600381815481101515610c3457fe5b906000526020600020016000915090508054600181600116156101000203166002900480601f016020809104026020016040519081016040528092919081815260200182805460018160011615610100020316600290048015610cd85780601f10610cad57610100808354040283529160200191610cd8565b820191906000526020600020905b815481529060010190602001808311610cbb57829003601f168201915b505050505081565b600881815481101515610cef57fe5b90600052602060002090600402016000915090508060000160009054906101000a900473ffffffffffffffffffffffffffffffffffffffff1690806001018054600181600116156101000203166002900480601f016020809104026020016040519081016040528092919081815260200182805460018160011615610100020316600290048015610dc15780601f10610d9657610100808354040283529160200191610dc1565b820191906000526020600020905b815481529060010190602001808311610da457829003601f168201915b5050505050908060020160009054906101000a900460ff1690806003018054600181600116156101000203166002900480601f016020809104026020016040519081016040528092919081815260200182805460018160011615610100020316600290048015610e725780601f10610e4757610100808354040283529160200191610e72565b820191906000526020600020905b815481529060010190602001808311610e5557829003601f168201915b5050505050905084565b610ef9826002836040518082805190602001908083835b602083101515610eb85780518252602082019150602081019050602083039250610e93565b6001836020036101000a0380198251168184511680821785525050505050509050019150509081526020016040518091039020612a0e90919063ffffffff16565b5050565b600033610f3f816040805190810160405280600c81526020017f636f6c6c61626f7261746f72000000000000000000000000000000000000000081525061155f565b1515610fb3576040517f08c379a00000000000000000000000000000000000000000000000000000000081526004018080602001828103825260208152602001807f4e6563657373617279206f6e6c7920524f4c455f434f4c4c41424f5241544f5281525060200191505060405180910390fd5b6000600102610ff386868080601f016020809104026020016040519081016040528093929190818152602001838380828437820191505050505050612a27565b600019161415151561100457600080fd5b61103f85858080601f016020809104026020016040519081016040528093929190818152602001838380828437820191505050505050612a27565b9150600060066000846000191660001916815260200190815260200160002060000160009054906101000a900473ffffffffffffffffffffffffffffffffffffffff1673ffffffffffffffffffffffffffffffffffffffff16141515156110a557600080fd5b3373ffffffffffffffffffffffffffffffffffffffff1660066000846000191660001916815260200190815260200160002060000160009054906101000a900473ffffffffffffffffffffffffffffffffffffffff1673ffffffffffffffffffffffffffffffffffffffff161415151561111e57600080fd5b6000600281111561112b57fe5b60066000846000191660001916815260200190815260200160002060020160009054906101000a900460ff16600281111561116257fe5b14151561116e57600080fd5b821561120057600160066000846000191660001916815260200190815260200160002060020160006101000a81548160ff021916908360028111156111af57fe5b02179055506111fb60066000846000191660001916815260200190815260200160002060000160009054906101000a900473ffffffffffffffffffffffffffffffffffffffff16612a35565b611241565b600260066000846000191660001916815260200190815260200160002060020160006101000a81548160ff0219169083600281111561123b57fe5b02179055505b7fa2ec2c9e3f9f8539e81b7b1fbb60772faef5a26ab705e5329b9f5dfb4035e936833360405180831515151581526020018273ffffffffffffffffffffffffffffffffffffffff1673ffffffffffffffffffffffffffffffffffffffff1681526020019250505060405180910390a15050505050565b60008060006112c4612e91565b60006001026112d286612a27565b60001916141515156112e357600080fd5b6000600660006112f288612a27565b6000191660001916815260200190815260200160002060000160009054906101000a900473ffffffffffffffffffffffffffffffffffffffff1673ffffffffffffffffffffffffffffffffffffffff161415151561134f57600080fd5b61135885612a27565b9150600660008360001916600019168152602001908152602001600020608060405190810160405290816000820160009054906101000a900473ffffffffffffffffffffffffffffffffffffffff1673ffffffffffffffffffffffffffffffffffffffff1673ffffffffffffffffffffffffffffffffffffffff168152602001600182018054600181600116156101000203166002900480601f0160208091040260200160405190810160405280929190818152602001828054600181600116156101000203166002900480156114705780601f1061144557610100808354040283529160200191611470565b820191906000526020600020905b81548152906001019060200180831161145357829003601f168201915b505050505081526020016002820160009054906101000a900460ff16600281111561149757fe5b60028111156114a257fe5b8152602001600382018054600181600116156101000203166002900480601f01602080910402602001604051908101604052809291908181526020018280546001816001161561010002031660029004801561153f5780601f106115145761010080835404028352916020019161153f565b820191906000526020600020905b81548152906001019060200180831161152257829003601f168201915b505050505081525050905080600001518160400151935093505050915091565b60006115de836002846040518082805190602001908083835b60208310151561159d5780518252602082019150602081019050602083039250611578565b6001836020036101000a0380198251168184511680821785525050505050509050019150509081526020016040518091039020612ada90919063ffffffff16565b905092915050565b611625336040805190810160405280600581526020017f61646d696e00000000000000000000000000000000000000000000000000000081525061155f565b1515611699576040517f08c379a00000000000000000000000000000000000000000000000000000000081526004018080602001828103825260198152602001807f4e6563657373617279206f6e6c7920524f4c455f41444d494e0000000000000081525060200191505060405180910390fd5b60038190806001815401808255809150509060018203906000526020600020016000909192909190915090805190602001906116d6929190612edb565b505080600490805190602001906116ee929190612edb565b507f6d6eae271da0ff27174c7ef6da7f0ae76c697dbf8134161d15febe0708f7953133426004604051808473ffffffffffffffffffffffffffffffffffffffff1673ffffffffffffffffffffffffffffffffffffffff168152602001838152602001806020018281038252838181546001816001161561010002031660029004815260200191508054600181600116156101000203166002900480156117d55780601f106117aa576101008083540402835291602001916117d5565b820191906000526020600020905b8154815290600101906020018083116117b857829003601f168201915b505094505050505060405180910390a150565b600060149054906101000a900460ff1681565b61183a336040805190810160405280600581526020017f61646d696e00000000000000000000000000000000000000000000000000000081525061155f565b15156118ae576040517f08c379a00000000000000000000000000000000000000000000000000000000081526004018080602001828103825260198152602001807f4e6563657373617279206f6e6c7920524f4c455f41444d494e0000000000000081525060200191505060405180910390fd5b806118ee816040805190810160405280600c81526020017f636f6c6c61626f7261746f72000000000000000000000000000000000000000081525061155f565b1515611962576040517f08c379a00000000000000000000000000000000000000000000000000000000081526004018080602001828103825260208152602001807f4e6563657373617279206f6e6c7920524f4c455f434f4c4c41424f5241544f5281525060200191505060405180910390fd5b600073ffffffffffffffffffffffffffffffffffffffff168273ffffffffffffffffffffffffffffffffffffffff161415151561199e57600080fd5b6119dd336040805190810160405280600581526020017f61646d696e000000000000000000000000000000000000000000000000000000815250612b33565b611a1c826040805190810160405280600581526020017f61646d696e000000000000000000000000000000000000000000000000000000815250612c84565b5050565b606060048054600181600116156101000203166002900480601f016020809104026020016040519081016040528092919081815260200182805460018160011615610100020316600290048015611ab85780601f10611a8d57610100808354040283529160200191611ab8565b820191906000526020600020905b815481529060010190602001808311611a9b57829003601f168201915b5050505050905090565b611b01336040805190810160405280600581526020017f61646d696e00000000000000000000000000000000000000000000000000000081525061155f565b1515611b75576040517f08c379a00000000000000000000000000000000000000000000000000000000081526004018080602001828103825260198152602001807f4e6563657373617279206f6e6c7920524f4c455f41444d494e0000000000000081525060200191505060405180910390fd5b611b7f8282612b33565b5050565b6000809054906101000a900473ffffffffffffffffffffffffffffffffffffffff1681565b6000611bb2612e91565b821515611c27576040517f08c379a00000000000000000000000000000000000000000000000000000000081526004018080602001828103825260138152602001807f4e6563657373617279205f61636365707465640000000000000000000000000081525060200191505060405180910390fd5b6000600102611c6788888080601f016020809104026020016040519081016040528093929190818152602001838380828437820191505050505050612a27565b6000191614151515611ce1576040517f08c379a00000000000000000000000000000000000000000000000000000000081526004018080602001828103825260108152602001807f4e6563657373617279205f75506f72740000000000000000000000000000000081525060200191505060405180910390fd5b6000600102611d2186868080601f016020809104026020016040519081016040528093929190818152602001838380828437820191505050505050612a27565b6000191614151515611d9b576040517f08c379a00000000000000000000000000000000000000000000000000000000081526004018080602001828103825260148152602001807f4e6563657373617279205f686173685465726d7300000000000000000000000081525060200191505060405180910390fd5b6000600102600760003373ffffffffffffffffffffffffffffffffffffffff1673ffffffffffffffffffffffffffffffffffffffff1681526020019081526020016000205460001916141515611e7f576040517f08c379a00000000000000000000000000000000000000000000000000000000081526004018080602001828103825260328152602001807f4e6563657373617279202074686572652069736e27742020757365722077697481526020017f68207468652073616d652061646472657373000000000000000000000000000081525060400191505060405180910390fd5b611eba87878080601f016020809104026020016040519081016040528093929190818152602001838380828437820191505050505050612a27565b9150600060066000846000191660001916815260200190815260200160002060000160009054906101000a900473ffffffffffffffffffffffffffffffffffffffff1673ffffffffffffffffffffffffffffffffffffffff16141515611fae576040517f08c379a00000000000000000000000000000000000000000000000000000000081526004018080602001828103825260378152602001807f4e65636573736172792074686572652069736e2774202075736572207769746881526020017f207468652073616d6520616464726573732075706f727400000000000000000081525060400191505060405180910390fd5b611fed336040805190810160405280600c81526020017f636f6c6c61626f7261746f72000000000000000000000000000000000000000081525061155f565b151515612088576040517f08c379a00000000000000000000000000000000000000000000000000000000081526004018080602001828103825260228152602001807f4e65636573736172792074686572652069736e277420436f6c6c61626f72617481526020017f6f7200000000000000000000000000000000000000000000000000000000000081525060400191505060405180910390fd5b6080604051908101604052803373ffffffffffffffffffffffffffffffffffffffff16815260200188888080601f0160208091040260200160405190810160405280939291908181526020018383808284378201915050505050508152602001600060028111156120f557fe5b815260200186868080601f01602080910402602001604051908101604052809392919081815260200183838082843782019150505050505081525090506008819080600181540180825580915050906001820390600052602060002090600402016000909192909190915060008201518160000160006101000a81548173ffffffffffffffffffffffffffffffffffffffff021916908373ffffffffffffffffffffffffffffffffffffffff16021790555060208201518160010190805190602001906121c3929190612f5b565b5060408201518160020160006101000a81548160ff021916908360028111156121e857fe5b02179055506060820151816003019080519060200190612209929190612f5b565b505050508060066000846000191660001916815260200190815260200160002060008201518160000160006101000a81548173ffffffffffffffffffffffffffffffffffffffff021916908373ffffffffffffffffffffffffffffffffffffffff160217905550602082015181600101908051906020019061228c929190612f5b565b5060408201518160020160006101000a81548160ff021916908360028111156122b157fe5b021790555060608201518160030190805190602001906122d2929190612f5b565b5090505081600760003373ffffffffffffffffffffffffffffffffffffffff1673ffffffffffffffffffffffffffffffffffffffff16815260200190815260200160002081600019169055507fa64991bb878d570c4ded98e60d71a36b7ead98700fbf4b04ac704829d7100e988787604051808060200182810382528484828181526020019250808284378201915050935050505060405180910390a150505050505050565b6000600880549050905090565b60076020528060005260406000206000915090505481565b60048054600181600116156101000203166002900480601f0160208091040260200160405190810160405280929190818152602001828054600181600116156101000203166002900480156124335780601f1061240857610100808354040283529160200191612433565b820191906000526020600020905b81548152906001019060200180831161241657829003601f168201915b505050505081565b60066020528060005260406000206000915090508060000160009054906101000a900473ffffffffffffffffffffffffffffffffffffffff1690806001018054600181600116156101000203166002900480601f01602080910402602001604051908101604052809291908181526020018280546001816001161561010002031660029004801561250d5780601f106124e25761010080835404028352916020019161250d565b820191906000526020600020905b8154815290600101906020018083116124f057829003601f168201915b5050505050908060020160009054906101000a900460ff1690806003018054600181600116156101000203166002900480601f0160208091040260200160405190810160405280929190818152602001828054600181600116156101000203166002900480156125be5780601f10612593576101008083540402835291602001916125be565b820191906000526020600020905b8154815290600101906020018083116125a157829003601f168201915b5050505050905084565b6040805190810160405280600581526020017f61646d696e00000000000000000000000000000000000000000000000000000081525081565b612609612fdb565b6000809054906101000a900473ffffffffffffffffffffffffffffffffffffffff1673ffffffffffffffffffffffffffffffffffffffff163373ffffffffffffffffffffffffffffffffffffffff1614151561266457600080fd5b6001600085600381111561267457fe5b60ff1660ff16815260200190815260200160002060020160009054906101000a900460ff1615151561270e576040517f08c379a000000000000000000000000000000000000000000000000000000000815260040180806020018281038252600e8152602001807f50726f66696c652065786973747300000000000000000000000000000000000081525060200191505060405180910390fd5b60408051908101604052808467ffffffffffffffff1681526020018367ffffffffffffffff16815250905060606040519081016040528085600381111561275157fe5b8152602001828152602001600115158152506001600086600381111561277357fe5b60ff1660ff16815260200190815260200160002060008201518160000160006101000a81548160ff021916908360038111156127ab57fe5b021790555060208201518160010160008201518160000160006101000a81548167ffffffffffffffff021916908367ffffffffffffffff16021790555060208201518160000160086101000a81548167ffffffffffffffff021916908367ffffffffffffffff160217905550505060408201518160020160006101000a81548160ff02191690831515021790555090505050505050565b6000809054906101000a900473ffffffffffffffffffffffffffffffffffffffff1673ffffffffffffffffffffffffffffffffffffffff163373ffffffffffffffffffffffffffffffffffffffff1614151561289d57600080fd5b600160008260038111156128ad57fe5b60ff1660ff16815260200190815260200160002060020160009054906101000a900460ff161515612946576040517f08c379a00000000000000000000000000000000000000000000000000000000081526004018080602001828103825260198152602001807f50726f66696c6520616c72656164792063616e63656c6c65640000000000000081525060200191505060405180910390fd5b6001600082600381111561295657fe5b60ff1660ff168152602001908152602001600020600080820160006101000a81549060ff021916905560018201600080820160006101000a81549067ffffffffffffffff02191690556000820160086101000a81549067ffffffffffffffff021916905550506002820160006101000a81549060ff0219169055505050565b6040805190810160405280600c81526020017f636f6c6c61626f7261746f72000000000000000000000000000000000000000081525081565b612a188282612ada565b1515612a2357600080fd5b5050565b600060208201519050919050565b612a74816040805190810160405280600c81526020017f636f6c6c61626f7261746f720000000000000000000000000000000000000000815250612c84565b7f4091eebfa2b1f57cff068416da5103e7bb37dff57001aca37c07b7b050a7330a81604051808273ffffffffffffffffffffffffffffffffffffffff1673ffffffffffffffffffffffffffffffffffffffff16815260200191505060405180910390a150565b60008260000160008373ffffffffffffffffffffffffffffffffffffffff1673ffffffffffffffffffffffffffffffffffffffff16815260200190815260200160002060009054906101000a900460ff16905092915050565b612bb0826002836040518082805190602001908083835b602083101515612b6f5780518252602082019150602081019050602083039250612b4a565b6001836020036101000a0380198251168184511680821785525050505050509050019150509081526020016040518091039020612dd590919063ffffffff16565b7fd211483f91fc6eff862467f8de606587a30c8fc9981056f051b897a418df803a8282604051808373ffffffffffffffffffffffffffffffffffffffff1673ffffffffffffffffffffffffffffffffffffffff16815260200180602001828103825283818151815260200191508051906020019080838360005b83811015612c45578082015181840152602081019050612c2a565b50505050905090810190601f168015612c725780820380516001836020036101000a031916815260200191505b50935050505060405180910390a15050565b612d01826002836040518082805190602001908083835b602083101515612cc05780518252602082019150602081019050602083039250612c9b565b6001836020036101000a0380198251168184511680821785525050505050509050019150509081526020016040518091039020612e3390919063ffffffff16565b7fbfec83d64eaa953f2708271a023ab9ee82057f8f3578d548c1a4ba0b5b7004898282604051808373ffffffffffffffffffffffffffffffffffffffff1673ffffffffffffffffffffffffffffffffffffffff16815260200180602001828103825283818151815260200191508051906020019080838360005b83811015612d96578082015181840152602081019050612d7b565b50505050905090810190601f168015612dc35780820380516001836020036101000a031916815260200191505b50935050505060405180910390a15050565b60008260000160008373ffffffffffffffffffffffffffffffffffffffff1673ffffffffffffffffffffffffffffffffffffffff16815260200190815260200160002060006101000a81548160ff0219169083151502179055505050565b60018260000160008373ffffffffffffffffffffffffffffffffffffffff1673ffffffffffffffffffffffffffffffffffffffff16815260200190815260200160002060006101000a81548160ff0219169083151502179055505050565b608060405190810160405280600073ffffffffffffffffffffffffffffffffffffffff1681526020016060815260200160006002811115612ece57fe5b8152602001606081525090565b828054600181600116156101000203166002900490600052602060002090601f016020900481019282601f10612f1c57805160ff1916838001178555612f4a565b82800160010185558215612f4a579182015b82811115612f49578251825591602001919060010190612f2e565b5b509050612f579190613009565b5090565b828054600181600116156101000203166002900490600052602060002090601f016020900481019282601f10612f9c57805160ff1916838001178555612fca565b82800160010185558215612fca579182015b82811115612fc9578251825591602001919060010190612fae565b5b509050612fd79190613009565b5090565b6040805190810160405280600067ffffffffffffffff168152602001600067ffffffffffffffff1681525090565b61302b91905b8082111561302757600081600090555060010161300f565b5090565b905600a165627a7a72305820f622ac0d979c9ace4f81d68930e8bc28f68165cfe64301f64574f4c68eea07b20029",
  "source": "pragma solidity 0.4.24;\n\nimport \"./TermsAndCondition.sol\";\nimport \"../util/StringUtils.sol\";\n\ncontract PersonIdentity is TermsAndCondition {\n    using StringUtils for string;\n    enum Status {PENDING, APPROVE, REJECTED}\n    Status status;\n    mapping (bytes32=>Person) public mapPerson;\n    mapping (address=>bytes32) public mapPersonAddress;\n    Person[] public person;\n    event PersonValidate(bool isValid, address validator);\n    event RequestPerson(string idUport);\n\n    struct Person {\n        address sender;\n        string hashUport;\n        Status status;\n        string hashTerms;\n    }\n\n    constructor() public {\n        Person memory p = Person ({\n            sender: msg.sender,\n            hashUport: \"\",\n            status: Status.APPROVE,\n            hashTerms: \"0x0\"\n        });\n\n        person.push(p);\n    }\n\n    /**\n    * @dev Request approve to participate of DAO\n    * @param _uPort idPort\n    * @param _hashTerms hash of terms    \n    * @param _accepted true or false\n    */   \n    function requestApprove(string _uPort, string _hashTerms, bool _accepted) external {\n        require(_accepted, \"Necessary _accepted\");\n        require(_uPort.stringToBytes32() != 0x0, \"Necessary _uPort\");\n        require(_hashTerms.stringToBytes32() != 0x0, \"Necessary _hashTerms\");\n        require(mapPersonAddress[msg.sender] == 0x0, \"Necessary  there isn't  user with the same address\");\n        bytes32 hashUportByte32 = _uPort.stringToBytes32();\n        require(mapPerson[hashUportByte32].sender == 0x0, \"Necessary there isn't  user with the same address uport\");\n        require(!hasRole(msg.sender, ROLE_COLLABORATOR), \"Necessary there isn't Collaborator\");\n\n        Person memory p = Person ({\n            sender: msg.sender,\n            hashUport: _uPort,\n            status: Status.PENDING,\n            hashTerms: _hashTerms\n        });\n        person.push(p);\n        mapPerson[hashUportByte32] = p;\n        mapPersonAddress[msg.sender] = hashUportByte32;\n        emit RequestPerson(_uPort);\n    }\n\n    /**\n    * @dev Validate the request to participate of DAO\n    * @param _uPort idPort\n    * @param _approveOrDisapprove true or false\n    */    \n    function validate(string _uPort, bool _approveOrDisapprove) external onlyCollaborator(msg.sender) {\n        require(_uPort.stringToBytes32() != 0x0);\n        bytes32 hashUportByte32 = _uPort.stringToBytes32();\n        require(mapPerson[hashUportByte32].sender != 0x0);\n        require(mapPerson[hashUportByte32].sender != msg.sender);\n        require(mapPerson[hashUportByte32].status == Status.PENDING);\n\n        if (_approveOrDisapprove) {\n            mapPerson[hashUportByte32].status = Status.APPROVE;\n            addCollaborator(mapPerson[hashUportByte32].sender);\n        } else {\n            mapPerson[hashUportByte32].status = Status.REJECTED;\n        }\n        emit PersonValidate(_approveOrDisapprove, msg.sender);\n    }\n\n    /**\n    * @dev Return the information about uport address\n    * @param _uPort idPort\n    * @return address\n    * @return Status    \n    */   \n    function getPersonByIdUport(string _uPort) view public returns(address, Status) {\n        require(_uPort.stringToBytes32() != 0x0);\n        require(mapPerson[_uPort.stringToBytes32()].sender != 0x0);\n        bytes32 nameAsBytes = _uPort.stringToBytes32();\n        Person memory p = mapPerson[nameAsBytes];\n\n        return (p.sender, p.status);\n    }\n\n    /**\n    * @dev Return the total of person\n    * @return uint256  \n    */   \n    function getListPerson() public view returns(uint256) {\n        return person.length;\n    }  \n}",
  "sourcePath": "/Users/hgleite/Documents/henrique/GoBlockchain/smart-contract-identity/contracts/identity/PersonIdentity.sol",
  "compiler": {
    "name": "solc",
    "version": "0.4.24+commit.e67f0147.Emscripten.clang"
  },
  "schemaVersion": "2.0.0",
  "updatedAt": "2018-08-29T05:05:33.128Z"
}