{
  "contractName": "PersonIdentity",
  "abi": [
    {
      "constant": true,
      "inputs": [
        {
          "name": "",
          "type": "uint256"
        }
      ],
      "name": "hashTerms",
      "outputs": [
        {
          "name": "",
          "type": "string"
        }
      ],
      "payable": false,
      "stateMutability": "view",
      "type": "function"
    },
    {
      "constant": true,
      "inputs": [
        {
          "name": "",
          "type": "uint256"
        }
      ],
      "name": "person",
      "outputs": [
        {
          "name": "sender",
          "type": "address"
        },
        {
          "name": "name",
          "type": "string"
        },
        {
          "name": "hashUport",
          "type": "string"
        },
        {
          "name": "status",
          "type": "uint8"
        },
        {
          "name": "hashTerms",
          "type": "string"
        }
      ],
      "payable": false,
      "stateMutability": "view",
      "type": "function"
    },
    {
      "constant": true,
      "inputs": [
        {
          "name": "addr",
          "type": "address"
        },
        {
          "name": "roleName",
          "type": "string"
        }
      ],
      "name": "checkRole",
      "outputs": [],
      "payable": false,
      "stateMutability": "view",
      "type": "function"
    },
    {
      "constant": true,
      "inputs": [],
      "name": "ROLE_AMBASSADOR",
      "outputs": [
        {
          "name": "",
          "type": "string"
        }
      ],
      "payable": false,
      "stateMutability": "view",
      "type": "function"
    },
    {
      "constant": false,
      "inputs": [
        {
          "name": "_addr",
          "type": "address"
        }
      ],
      "name": "removeAdvisor",
      "outputs": [],
      "payable": false,
      "stateMutability": "nonpayable",
      "type": "function"
    },
    {
      "constant": true,
      "inputs": [
        {
          "name": "addr",
          "type": "address"
        },
        {
          "name": "roleName",
          "type": "string"
        }
      ],
      "name": "hasRole",
      "outputs": [
        {
          "name": "",
          "type": "bool"
        }
      ],
      "payable": false,
      "stateMutability": "view",
      "type": "function"
    },
    {
      "constant": false,
      "inputs": [
        {
          "name": "_hash",
          "type": "string"
        }
      ],
      "name": "setTermsAndCondition",
      "outputs": [],
      "payable": false,
      "stateMutability": "nonpayable",
      "type": "function"
    },
    {
      "constant": true,
      "inputs": [
        {
          "name": "_addressUser",
          "type": "address"
        }
      ],
      "name": "isCollaborator",
      "outputs": [
        {
          "name": "_isCollaborator",
          "type": "bool"
        }
      ],
      "payable": false,
      "stateMutability": "view",
      "type": "function"
    },
    {
      "constant": true,
      "inputs": [
        {
          "name": "_hash",
          "type": "string"
        }
      ],
      "name": "isValidHash",
      "outputs": [
        {
          "name": "",
          "type": "bool"
        }
      ],
      "payable": false,
      "stateMutability": "view",
      "type": "function"
    },
    {
      "constant": false,
      "inputs": [
        {
          "name": "_advisors",
          "type": "address[]"
        }
      ],
      "name": "addAdvisors",
      "outputs": [],
      "payable": false,
      "stateMutability": "nonpayable",
      "type": "function"
    },
    {
      "constant": false,
      "inputs": [
        {
          "name": "_newSuperuser",
          "type": "address"
        }
      ],
      "name": "transferAdmin",
      "outputs": [],
      "payable": false,
      "stateMutability": "nonpayable",
      "type": "function"
    },
    {
      "constant": false,
      "inputs": [
        {
          "name": "addr",
          "type": "address"
        },
        {
          "name": "roleName",
          "type": "string"
        }
      ],
      "name": "adminRemoveRole",
      "outputs": [],
      "payable": false,
      "stateMutability": "nonpayable",
      "type": "function"
    },
    {
      "constant": true,
      "inputs": [],
      "name": "owner",
      "outputs": [
        {
          "name": "",
          "type": "address"
        }
      ],
      "payable": false,
      "stateMutability": "view",
      "type": "function"
    },
    {
      "constant": true,
      "inputs": [
        {
          "name": "",
          "type": "address"
        }
      ],
      "name": "mapPersonAddress",
      "outputs": [
        {
          "name": "",
          "type": "bytes32"
        }
      ],
      "payable": false,
      "stateMutability": "view",
      "type": "function"
    },
    {
      "constant": true,
      "inputs": [],
      "name": "validHash",
      "outputs": [
        {
          "name": "",
          "type": "string"
        }
      ],
      "payable": false,
      "stateMutability": "view",
      "type": "function"
    },
    {
      "constant": true,
      "inputs": [
        {
          "name": "",
          "type": "bytes32"
        }
      ],
      "name": "mapPerson",
      "outputs": [
        {
          "name": "sender",
          "type": "address"
        },
        {
          "name": "name",
          "type": "string"
        },
        {
          "name": "hashUport",
          "type": "string"
        },
        {
          "name": "status",
          "type": "uint8"
        },
        {
          "name": "hashTerms",
          "type": "string"
        }
      ],
      "payable": false,
      "stateMutability": "view",
      "type": "function"
    },
    {
      "constant": true,
      "inputs": [],
      "name": "ROLE_ADVISOR",
      "outputs": [
        {
          "name": "",
          "type": "string"
        }
      ],
      "payable": false,
      "stateMutability": "view",
      "type": "function"
    },
    {
      "constant": true,
      "inputs": [],
      "name": "ROLE_ADMIN",
      "outputs": [
        {
          "name": "",
          "type": "string"
        }
      ],
      "payable": false,
      "stateMutability": "view",
      "type": "function"
    },
    {
      "constant": true,
      "inputs": [],
      "name": "ROLE_COLLABORATOR",
      "outputs": [
        {
          "name": "",
          "type": "string"
        }
      ],
      "payable": false,
      "stateMutability": "view",
      "type": "function"
    },
    {
      "constant": true,
      "inputs": [],
      "name": "ROLE_ESPECIALIST",
      "outputs": [
        {
          "name": "",
          "type": "string"
        }
      ],
      "payable": false,
      "stateMutability": "view",
      "type": "function"
    },
    {
      "anonymous": false,
      "inputs": [
        {
          "indexed": false,
          "name": "isValid",
          "type": "bool"
        },
        {
          "indexed": false,
          "name": "validator",
          "type": "address"
        }
      ],
      "name": "PersonValidate",
      "type": "event"
    },
    {
      "anonymous": false,
      "inputs": [
        {
          "indexed": false,
          "name": "sender",
          "type": "address"
        },
        {
          "indexed": false,
          "name": "time",
          "type": "uint256"
        },
        {
          "indexed": false,
          "name": "validHash",
          "type": "string"
        }
      ],
      "name": "TermsAndConditionChanged",
      "type": "event"
    },
    {
      "anonymous": false,
      "inputs": [
        {
          "indexed": false,
          "name": "collaborator",
          "type": "address"
        }
      ],
      "name": "NewCollaborator",
      "type": "event"
    },
    {
      "anonymous": false,
      "inputs": [
        {
          "indexed": false,
          "name": "addr",
          "type": "address"
        },
        {
          "indexed": false,
          "name": "roleName",
          "type": "string"
        }
      ],
      "name": "RoleAdded",
      "type": "event"
    },
    {
      "anonymous": false,
      "inputs": [
        {
          "indexed": false,
          "name": "addr",
          "type": "address"
        },
        {
          "indexed": false,
          "name": "roleName",
          "type": "string"
        }
      ],
      "name": "RoleRemoved",
      "type": "event"
    },
    {
      "anonymous": false,
      "inputs": [
        {
          "indexed": true,
          "name": "previousOwner",
          "type": "address"
        },
        {
          "indexed": true,
          "name": "newOwner",
          "type": "address"
        }
      ],
      "name": "OwnershipTransferred",
      "type": "event"
    },
    {
      "constant": false,
      "inputs": [
        {
          "name": "_name",
          "type": "string"
        },
        {
          "name": "hashUport",
          "type": "string"
        },
        {
          "name": "_hashTerms",
          "type": "string"
        },
        {
          "name": "accepted",
          "type": "bool"
        }
      ],
      "name": "requestApprove",
      "outputs": [],
      "payable": false,
      "stateMutability": "nonpayable",
      "type": "function"
    },
    {
      "constant": false,
      "inputs": [
        {
          "name": "hashUport",
          "type": "string"
        },
        {
          "name": "approveOrDisapprove",
          "type": "bool"
        }
      ],
      "name": "validate",
      "outputs": [],
      "payable": false,
      "stateMutability": "nonpayable",
      "type": "function"
    }
  ],
  "bytecode": "0x6080604052336000806101000a81548173ffffffffffffffffffffffffffffffffffffffff021916908373ffffffffffffffffffffffffffffffffffffffff16021790555062000094336040805190810160405280600581526020017f61646d696e000000000000000000000000000000000000000000000000000000815250620000ea640100000000026401000000009004565b620000e4336040805190810160405280600781526020017f61647669736f7200000000000000000000000000000000000000000000000000815250620000ea640100000000026401000000009004565b620002ae565b62000179826001836040518082805190602001908083835b60208310151562000129578051825260208201915060208101905060208303925062000102565b6001836020036101000a03801982511681845116808217855250505050505090500191505090815260200160405180910390206200025064010000000002620029ef179091906401000000009004565b7fbfec83d64eaa953f2708271a023ab9ee82057f8f3578d548c1a4ba0b5b7004898282604051808373ffffffffffffffffffffffffffffffffffffffff1673ffffffffffffffffffffffffffffffffffffffff16815260200180602001828103825283818151815260200191508051906020019080838360005b8381101562000210578082015181840152602081019050620001f3565b50505050905090810190601f1680156200023e5780820380516001836020036101000a031916815260200191505b50935050505060405180910390a15050565b60018260000160008373ffffffffffffffffffffffffffffffffffffffff1673ffffffffffffffffffffffffffffffffffffffff16815260200190815260200160002060006101000a81548160ff0219169083151502179055505050565b612bef80620002be6000396000f300608060405260043610610128576000357c0100000000000000000000000000000000000000000000000000000000900463ffffffff168063035c36f11461012d578063092a1820146101d35780630988ca8c146103995780630b6292bb146104225780630bbc74c6146104695780630eeccb84146104f9578063217fe6c61461053c578063390541a5146105dd5780636af8c4e7146106465780636edcb12f146106a1578063730cc4fa1461072257806375829def1461078857806388cee87e146107cb5780638da5cb5b14610854578063bd367e11146108ab578063cbda77221461090a578063cfefe0881461099a578063d1f8a4c114610b64578063d391014b14610bf4578063d85e434914610c84578063ed3e024a14610cfb578063f583369b14610d8b575b600080fd5b34801561013957600080fd5b5061015860048036038101908080359060200190929190505050610e1b565b6040518080602001828103825283818151815260200191508051906020019080838360005b8381101561019857808201518184015260208101905061017d565b50505050905090810190601f1680156101c55780820380516001836020036101000a031916815260200191505b509250505060405180910390f35b3480156101df57600080fd5b506101fe60048036038101908080359060200190929190505050610ed6565b604051808673ffffffffffffffffffffffffffffffffffffffff1673ffffffffffffffffffffffffffffffffffffffff168152602001806020018060200185600281111561024857fe5b60ff16815260200180602001848103845288818151815260200191508051906020019080838360005b8381101561028c578082015181840152602081019050610271565b50505050905090810190601f1680156102b95780820380516001836020036101000a031916815260200191505b50848103835287818151815260200191508051906020019080838360005b838110156102f25780820151818401526020810190506102d7565b50505050905090810190601f16801561031f5780820380516001836020036101000a031916815260200191505b50848103825285818151815260200191508051906020019080838360005b8381101561035857808201518184015260208101905061033d565b50505050905090810190601f1680156103855780820380516001836020036101000a031916815260200191505b509850505050505050505060405180910390f35b3480156103a557600080fd5b50610420600480360381019080803573ffffffffffffffffffffffffffffffffffffffff169060200190929190803590602001908201803590602001908080601f0160208091040260200160405190810160405280939291908181526020018383808284378201915050505050509192919290505050611110565b005b34801561042e57600080fd5b50610467600480360381019080803590602001908201803590602001919091929391929390803515159060200190929190505050611191565b005b34801561047557600080fd5b5061047e6113f6565b6040518080602001828103825283818151815260200191508051906020019080838360005b838110156104be5780820151818401526020810190506104a3565b50505050905090810190601f1680156104eb5780820380516001836020036101000a031916815260200191505b509250505060405180910390f35b34801561050557600080fd5b5061053a600480360381019080803573ffffffffffffffffffffffffffffffffffffffff16906020019092919050505061142f565b005b34801561054857600080fd5b506105c3600480360381019080803573ffffffffffffffffffffffffffffffffffffffff169060200190929190803590602001908201803590602001908080601f01602080910402602001604051908101604052809392919081815260200183838082843782019150505050505091929192905050506114ef565b604051808215151515815260200191505060405180910390f35b3480156105e957600080fd5b50610644600480360381019080803590602001908201803590602001908080601f0160208091040260200160405190810160405280939291908181526020018383808284378201915050505050509192919290505050611576565b005b34801561065257600080fd5b50610687600480360381019080803573ffffffffffffffffffffffffffffffffffffffff169060200190929190505050611755565b604051808215151515815260200191505060405180910390f35b3480156106ad57600080fd5b50610708600480360381019080803590602001908201803590602001908080601f01602080910402602001604051908101604052809392919081815260200183838082843782019150505050505091929192905050506118b5565b604051808215151515815260200191505060405180910390f35b34801561072e57600080fd5b5061078660048036038101908080359060200190820180359060200190808060200260200160405190810160405280939291908181526020018383602002808284378201915050505050509192919290505050611ad2565b005b34801561079457600080fd5b506107c9600480360381019080803573ffffffffffffffffffffffffffffffffffffffff169060200190929190505050611bd9565b005b3480156107d757600080fd5b50610852600480360381019080803573ffffffffffffffffffffffffffffffffffffffff169060200190929190803590602001908201803590602001908080601f0160208091040260200160405190810160405280939291908181526020018383808284378201915050505050509192919290505050611cd5565b005b34801561086057600080fd5b50610869611d73565b604051808273ffffffffffffffffffffffffffffffffffffffff1673ffffffffffffffffffffffffffffffffffffffff16815260200191505060405180910390f35b3480156108b757600080fd5b506108ec600480360381019080803573ffffffffffffffffffffffffffffffffffffffff169060200190929190505050611d98565b60405180826000191660001916815260200191505060405180910390f35b34801561091657600080fd5b5061091f611db0565b6040518080602001828103825283818151815260200191508051906020019080838360005b8381101561095f578082015181840152602081019050610944565b50505050905090810190601f16801561098c5780820380516001836020036101000a031916815260200191505b509250505060405180910390f35b3480156109a657600080fd5b506109c96004803603810190808035600019169060200190929190505050611e4e565b604051808673ffffffffffffffffffffffffffffffffffffffff1673ffffffffffffffffffffffffffffffffffffffff1681526020018060200180602001856002811115610a1357fe5b60ff16815260200180602001848103845288818151815260200191508051906020019080838360005b83811015610a57578082015181840152602081019050610a3c565b50505050905090810190601f168015610a845780820380516001836020036101000a031916815260200191505b50848103835287818151815260200191508051906020019080838360005b83811015610abd578082015181840152602081019050610aa2565b50505050905090810190601f168015610aea5780820380516001836020036101000a031916815260200191505b50848103825285818151815260200191508051906020019080838360005b83811015610b23578082015181840152602081019050610b08565b50505050905090810190601f168015610b505780820380516001836020036101000a031916815260200191505b509850505050505050505060405180910390f35b348015610b7057600080fd5b50610b79612079565b6040518080602001828103825283818151815260200191508051906020019080838360005b83811015610bb9578082015181840152602081019050610b9e565b50505050905090810190601f168015610be65780820380516001836020036101000a031916815260200191505b509250505060405180910390f35b348015610c0057600080fd5b50610c096120b2565b6040518080602001828103825283818151815260200191508051906020019080838360005b83811015610c49578082015181840152602081019050610c2e565b50505050905090810190601f168015610c765780820380516001836020036101000a031916815260200191505b509250505060405180910390f35b348015610c9057600080fd5b50610cf96004803603810190808035906020019082018035906020019190919293919293908035906020019082018035906020019190919293919293908035906020019082018035906020019190919293919293908035151590602001909291905050506120eb565b005b348015610d0757600080fd5b50610d10612558565b6040518080602001828103825283818151815260200191508051906020019080838360005b83811015610d50578082015181840152602081019050610d35565b50505050905090810190601f168015610d7d5780820380516001836020036101000a031916815260200191505b509250505060405180910390f35b348015610d9757600080fd5b50610da0612591565b6040518080602001828103825283818151815260200191508051906020019080838360005b83811015610de0578082015181840152602081019050610dc5565b50505050905090810190601f168015610e0d5780820380516001836020036101000a031916815260200191505b509250505060405180910390f35b600281815481101515610e2a57fe5b906000526020600020016000915090508054600181600116156101000203166002900480601f016020809104026020016040519081016040528092919081815260200182805460018160011615610100020316600290048015610ece5780601f10610ea357610100808354040283529160200191610ece565b820191906000526020600020905b815481529060010190602001808311610eb157829003601f168201915b505050505081565b600781815481101515610ee557fe5b90600052602060002090600502016000915090508060000160009054906101000a900473ffffffffffffffffffffffffffffffffffffffff1690806001018054600181600116156101000203166002900480601f016020809104026020016040519081016040528092919081815260200182805460018160011615610100020316600290048015610fb75780601f10610f8c57610100808354040283529160200191610fb7565b820191906000526020600020905b815481529060010190602001808311610f9a57829003601f168201915b505050505090806002018054600181600116156101000203166002900480601f0160208091040260200160405190810160405280929190818152602001828054600181600116156101000203166002900480156110555780601f1061102a57610100808354040283529160200191611055565b820191906000526020600020905b81548152906001019060200180831161103857829003601f168201915b5050505050908060030160009054906101000a900460ff1690806004018054600181600116156101000203166002900480601f0160208091040260200160405190810160405280929190818152602001828054600181600116156101000203166002900480156111065780601f106110db57610100808354040283529160200191611106565b820191906000526020600020905b8154815290600101906020018083116110e957829003601f168201915b5050505050905085565b61118d826001836040518082805190602001908083835b60208310151561114c5780518252602082019150602081019050602083039250611127565b6001836020036101000a03801982511681845116808217855250505050505090500191505090815260200160405180910390206125ca90919063ffffffff16565b5050565b60003361119d81611755565b15156111a857600080fd5b60006111e586868080601f0160208091040260200160405190810160405280939291908181526020018383808284378201915050505050506125e3565b50602060ff161115156111f757600080fd5b61123285858080601f0160208091040260200160405190810160405280939291908181526020018383808284378201915050505050506125e3565b91503373ffffffffffffffffffffffffffffffffffffffff1660056000846000191660001916815260200190815260200160002060000160009054906101000a900473ffffffffffffffffffffffffffffffffffffffff1673ffffffffffffffffffffffffffffffffffffffff16141515156112ad57600080fd5b821561133f57600160056000846000191660001916815260200190815260200160002060030160006101000a81548160ff021916908360028111156112ee57fe5b021790555061133a60056000846000191660001916815260200190815260200160002060000160009054906101000a900473ffffffffffffffffffffffffffffffffffffffff166125f1565b611380565b600260056000846000191660001916815260200190815260200160002060030160006101000a81548160ff0219169083600281111561137a57fe5b02179055505b7fa2ec2c9e3f9f8539e81b7b1fbb60772faef5a26ab705e5329b9f5dfb4035e936833360405180831515151581526020018273ffffffffffffffffffffffffffffffffffffffff1673ffffffffffffffffffffffffffffffffffffffff1681526020019250505060405180910390a15050505050565b6040805190810160405280600a81526020017f616d6261737361646f720000000000000000000000000000000000000000000081525081565b61146e336040805190810160405280600581526020017f61646d696e000000000000000000000000000000000000000000000000000000815250611110565b6114ad816040805190810160405280600781526020017f61647669736f7200000000000000000000000000000000000000000000000000815250611110565b6114ec816040805190810160405280600781526020017f61647669736f7200000000000000000000000000000000000000000000000000815250612696565b50565b600061156e836001846040518082805190602001908083835b60208310151561152d5780518252602082019150602081019050602083039250611508565b6001836020036101000a03801982511681845116808217855250505050505090500191505090815260200160405180910390206127e790919063ffffffff16565b905092915050565b6115b5336040805190810160405280600581526020017f61646d696e0000000000000000000000000000000000000000000000000000008152506114ef565b806115fb57506115fa336040805190810160405280600781526020017f61647669736f72000000000000000000000000000000000000000000000000008152506114ef565b5b151561160657600080fd5b6002819080600181540180825580915050906001820390600052602060002001600090919290919091509080519060200190611643929190612a4d565b5050806003908051906020019061165b929190612a4d565b507f6d6eae271da0ff27174c7ef6da7f0ae76c697dbf8134161d15febe0708f7953133426003604051808473ffffffffffffffffffffffffffffffffffffffff1673ffffffffffffffffffffffffffffffffffffffff168152602001838152602001806020018281038252838181546001816001161561010002031660029004815260200191508054600181600116156101000203166002900480156117425780601f1061171757610100808354040283529160200191611742565b820191906000526020600020905b81548152906001019060200180831161172557829003601f168201915b505094505050505060405180910390a150565b6000611796826040805190810160405280600581526020017f61646d696e0000000000000000000000000000000000000000000000000000008152506114ef565b806117dc57506117db826040805190810160405280600781526020017f61647669736f72000000000000000000000000000000000000000000000000008152506114ef565b5b806118225750611821826040805190810160405280600b81526020017f657370656369616c6973740000000000000000000000000000000000000000008152506114ef565b5b806118685750611867826040805190810160405280600a81526020017f616d6261737361646f72000000000000000000000000000000000000000000008152506114ef565b5b806118ae57506118ad826040805190810160405280600c81526020017f636f6c6c61626f7261746f7200000000000000000000000000000000000000008152506114ef565b5b9050919050565b600060038054600181600116156101000203166002900480601f01602080910402602001604051908101604052809291908181526020018280546001816001161561010002031660029004801561194d5780601f106119225761010080835404028352916020019161194d565b820191906000526020600020905b81548152906001019060200180831161193057829003601f168201915b505050505073__StringUtils___________________________6346bdca9a9091846040518363ffffffff167c0100000000000000000000000000000000000000000000000000000000028152600401808060200180602001838103835285818151815260200191508051906020019080838360005b838110156119de5780820151818401526020810190506119c3565b50505050905090810190601f168015611a0b5780820380516001836020036101000a031916815260200191505b50838103825284818151815260200191508051906020019080838360005b83811015611a44578082015181840152602081019050611a29565b50505050905090810190601f168015611a715780820380516001836020036101000a031916815260200191505b5094505050505060206040518083038186803b158015611a9057600080fd5b505af4158015611aa4573d6000803e3d6000fd5b505050506040513d6020811015611aba57600080fd5b81019080805190602001909291905050509050919050565b6000611b13336040805190810160405280600581526020017f61646d696e0000000000000000000000000000000000000000000000000000008152506114ef565b80611b595750611b58336040805190810160405280600781526020017f61647669736f72000000000000000000000000000000000000000000000000008152506114ef565b5b1515611b6457600080fd5b600090505b8151811015611bd557611bc88282815181101515611b8357fe5b906020019060200201516040805190810160405280600781526020017f61647669736f7200000000000000000000000000000000000000000000000000815250612840565b8080600101915050611b69565b5050565b611c18336040805190810160405280600581526020017f61646d696e000000000000000000000000000000000000000000000000000000815250611110565b600073ffffffffffffffffffffffffffffffffffffffff168173ffffffffffffffffffffffffffffffffffffffff1614151515611c5457600080fd5b611c93336040805190810160405280600581526020017f61646d696e000000000000000000000000000000000000000000000000000000815250612696565b611cd2816040805190810160405280600581526020017f61646d696e000000000000000000000000000000000000000000000000000000815250612840565b50565b611d14336040805190810160405280600581526020017f61646d696e0000000000000000000000000000000000000000000000000000008152506114ef565b80611d5a5750611d59336040805190810160405280600781526020017f61647669736f72000000000000000000000000000000000000000000000000008152506114ef565b5b1515611d6557600080fd5b611d6f8282612696565b5050565b6000809054906101000a900473ffffffffffffffffffffffffffffffffffffffff1681565b60066020528060005260406000206000915090505481565b60038054600181600116156101000203166002900480601f016020809104026020016040519081016040528092919081815260200182805460018160011615610100020316600290048015611e465780601f10611e1b57610100808354040283529160200191611e46565b820191906000526020600020905b815481529060010190602001808311611e2957829003601f168201915b505050505081565b60056020528060005260406000206000915090508060000160009054906101000a900473ffffffffffffffffffffffffffffffffffffffff1690806001018054600181600116156101000203166002900480601f016020809104026020016040519081016040528092919081815260200182805460018160011615610100020316600290048015611f205780601f10611ef557610100808354040283529160200191611f20565b820191906000526020600020905b815481529060010190602001808311611f0357829003601f168201915b505050505090806002018054600181600116156101000203166002900480601f016020809104026020016040519081016040528092919081815260200182805460018160011615610100020316600290048015611fbe5780601f10611f9357610100808354040283529160200191611fbe565b820191906000526020600020905b815481529060010190602001808311611fa157829003601f168201915b5050505050908060030160009054906101000a900460ff1690806004018054600181600116156101000203166002900480601f01602080910402602001604051908101604052809291908181526020018280546001816001161561010002031660029004801561206f5780601f106120445761010080835404028352916020019161206f565b820191906000526020600020905b81548152906001019060200180831161205257829003601f168201915b5050505050905085565b6040805190810160405280600781526020017f61647669736f720000000000000000000000000000000000000000000000000081525081565b6040805190810160405280600581526020017f61646d696e00000000000000000000000000000000000000000000000000000081525081565b60006120f5612acd565b600061213288888080601f0160208091040260200160405190810160405280939291908181526020018383808284378201915050505050506125e3565b50602060ff1611151561214457600080fd5b61217f87878080601f0160208091040260200160405190810160405280939291908181526020018383808284378201915050505050506125e3565b9150600060056000846000191660001916815260200190815260200160002060000160009054906101000a900473ffffffffffffffffffffffffffffffffffffffff1673ffffffffffffffffffffffffffffffffffffffff161415156121e457600080fd5b8280156121f45750600089899050115b15156121ff57600080fd5b61223a85858080601f0160208091040260200160405190810160405280939291908181526020018383808284378201915050505050506118b5565b151561224557600080fd5b60a0604051908101604052803373ffffffffffffffffffffffffffffffffffffffff1681526020018a8a8080601f016020809104026020016040519081016040528093929190818152602001838380828437820191505050505050815260200188888080601f0160208091040260200160405190810160405280939291908181526020018383808284378201915050505050508152602001600060028111156122ea57fe5b815260200186868080601f01602080910402602001604051908101604052809392919081815260200183838082843782019150505050505081525090506007819080600181540180825580915050906001820390600052602060002090600502016000909192909190915060008201518160000160006101000a81548173ffffffffffffffffffffffffffffffffffffffff021916908373ffffffffffffffffffffffffffffffffffffffff16021790555060208201518160010190805190602001906123b8929190612b1e565b5060408201518160020190805190602001906123d5929190612b1e565b5060608201518160030160006101000a81548160ff021916908360028111156123fa57fe5b0217905550608082015181600401908051906020019061241b929190612b1e565b505050508060056000846000191660001916815260200190815260200160002060008201518160000160006101000a81548173ffffffffffffffffffffffffffffffffffffffff021916908373ffffffffffffffffffffffffffffffffffffffff160217905550602082015181600101908051906020019061249e929190612b1e565b5060408201518160020190805190602001906124bb929190612b1e565b5060608201518160030160006101000a81548160ff021916908360028111156124e057fe5b02179055506080820151816004019080519060200190612501929190612b1e565b5090505081600660003373ffffffffffffffffffffffffffffffffffffffff1673ffffffffffffffffffffffffffffffffffffffff1681526020019081526020016000208160001916905550505050505050505050565b6040805190810160405280600c81526020017f636f6c6c61626f7261746f72000000000000000000000000000000000000000081525081565b6040805190810160405280600b81526020017f657370656369616c69737400000000000000000000000000000000000000000081525081565b6125d482826127e7565b15156125df57600080fd5b5050565b600060208201519050919050565b612630816040805190810160405280600c81526020017f636f6c6c61626f7261746f720000000000000000000000000000000000000000815250612840565b7f4091eebfa2b1f57cff068416da5103e7bb37dff57001aca37c07b7b050a7330a81604051808273ffffffffffffffffffffffffffffffffffffffff1673ffffffffffffffffffffffffffffffffffffffff16815260200191505060405180910390a150565b612713826001836040518082805190602001908083835b6020831015156126d257805182526020820191506020810190506020830392506126ad565b6001836020036101000a038019825116818451168082178552505050505050905001915050908152602001604051809103902061299190919063ffffffff16565b7fd211483f91fc6eff862467f8de606587a30c8fc9981056f051b897a418df803a8282604051808373ffffffffffffffffffffffffffffffffffffffff1673ffffffffffffffffffffffffffffffffffffffff16815260200180602001828103825283818151815260200191508051906020019080838360005b838110156127a857808201518184015260208101905061278d565b50505050905090810190601f1680156127d55780820380516001836020036101000a031916815260200191505b50935050505060405180910390a15050565b60008260000160008373ffffffffffffffffffffffffffffffffffffffff1673ffffffffffffffffffffffffffffffffffffffff16815260200190815260200160002060009054906101000a900460ff16905092915050565b6128bd826001836040518082805190602001908083835b60208310151561287c5780518252602082019150602081019050602083039250612857565b6001836020036101000a03801982511681845116808217855250505050505090500191505090815260200160405180910390206129ef90919063ffffffff16565b7fbfec83d64eaa953f2708271a023ab9ee82057f8f3578d548c1a4ba0b5b7004898282604051808373ffffffffffffffffffffffffffffffffffffffff1673ffffffffffffffffffffffffffffffffffffffff16815260200180602001828103825283818151815260200191508051906020019080838360005b83811015612952578082015181840152602081019050612937565b50505050905090810190601f16801561297f5780820380516001836020036101000a031916815260200191505b50935050505060405180910390a15050565b60008260000160008373ffffffffffffffffffffffffffffffffffffffff1673ffffffffffffffffffffffffffffffffffffffff16815260200190815260200160002060006101000a81548160ff0219169083151502179055505050565b60018260000160008373ffffffffffffffffffffffffffffffffffffffff1673ffffffffffffffffffffffffffffffffffffffff16815260200190815260200160002060006101000a81548160ff0219169083151502179055505050565b828054600181600116156101000203166002900490600052602060002090601f016020900481019282601f10612a8e57805160ff1916838001178555612abc565b82800160010185558215612abc579182015b82811115612abb578251825591602001919060010190612aa0565b5b509050612ac99190612b9e565b5090565b60a060405190810160405280600073ffffffffffffffffffffffffffffffffffffffff168152602001606081526020016060815260200160006002811115612b1157fe5b8152602001606081525090565b828054600181600116156101000203166002900490600052602060002090601f016020900481019282601f10612b5f57805160ff1916838001178555612b8d565b82800160010185558215612b8d579182015b82811115612b8c578251825591602001919060010190612b71565b5b509050612b9a9190612b9e565b5090565b612bc091905b80821115612bbc576000816000905550600101612ba4565b5090565b905600a165627a7a7230582074f0e0537eadcfdc2bc693597be7946cf3e5eb2738b4c87cbc679498f73314d40029",
  "source": "pragma solidity 0.4.24;\n\nimport \"../util/StringUtils.sol\";\nimport \"./TermsAndCondition.sol\";\n\ncontract PersonIdentity is TermsAndCondition {\n    using StringUtils for string;\n    enum Status {PENDING, APPROVE, REJECTED}\n    Status status;\n    mapping (bytes32=>Person) public mapPerson;\n    mapping (address=>bytes32) public mapPersonAddress;\n    Person[] public person;\n    event PersonValidate(bool isValid, address validator);\n\n    struct Person {\n        address sender;\n        string name;\n        string hashUport;\n        Status status;\n        string hashTerms;\n    }\n\n    function requestApprove(string _name, string hashUport, string _hashTerms, bool accepted) external {\n        require(hashUport.stringToBytes32().length > 0);\n        bytes32 hashUportByte32 = hashUport.stringToBytes32();\n        require(mapPerson[hashUportByte32].sender == 0x0);\n        require(accepted && bytes(_name).length > 0);\n        require(isValidHash(_hashTerms));\n\n        Person memory p = Person ({\n            sender: msg.sender,\n            name: _name,\n            hashUport: hashUport,\n            status: Status.PENDING,\n            hashTerms: _hashTerms\n        });\n        person.push(p);\n        mapPerson[hashUportByte32] = p;\n        mapPersonAddress[msg.sender] = hashUportByte32;\n    }\n    \n    function validate(string hashUport, bool approveOrDisapprove) external onlyCollaborator(msg.sender) {\n        require(hashUport.stringToBytes32().length > 0);\n        bytes32 hashUportByte32 = hashUport.stringToBytes32();\n        require(mapPerson[hashUportByte32].sender != msg.sender);\n        if (approveOrDisapprove) {\n            mapPerson[hashUportByte32].status = Status.APPROVE;\n            addCollaborator(mapPerson[hashUportByte32].sender);\n        } else {\n            mapPerson[hashUportByte32].status = Status.REJECTED;\n        }\n        emit PersonValidate(approveOrDisapprove, msg.sender);\n    }\n}",
  "sourcePath": "/Users/hgleite/Documents/henrique/GoBlockchain/smart-contract-identity/contracts/identity/PersonIdentity.sol",
  "compiler": {
    "name": "solc",
    "version": "0.4.24+commit.e67f0147.Emscripten.clang"
  },
  "schemaVersion": "2.0.0",
  "updatedAt": "2018-08-16T02:33:59.258Z"
}