{
  "contractName": "Reputation",
  "abi": [
    {
      "constant": true,
      "inputs": [],
      "name": "retu",
      "outputs": [
        {
          "name": "",
          "type": "uint8"
        }
      ],
      "payable": false,
      "stateMutability": "view",
      "type": "function"
    },
    {
      "constant": true,
      "inputs": [],
      "name": "owner",
      "outputs": [
        {
          "name": "",
          "type": "address"
        }
      ],
      "payable": false,
      "stateMutability": "view",
      "type": "function"
    },
    {
      "anonymous": false,
      "inputs": [
        {
          "indexed": true,
          "name": "previousOwner",
          "type": "address"
        },
        {
          "indexed": true,
          "name": "newOwner",
          "type": "address"
        }
      ],
      "name": "OwnershipTransferred",
      "type": "event"
    },
    {
      "constant": false,
      "inputs": [
        {
          "name": "_type",
          "type": "uint8"
        },
        {
          "name": "_start",
          "type": "uint64"
        },
        {
          "name": "_end",
          "type": "uint64"
        }
      ],
      "name": "addReputation",
      "outputs": [],
      "payable": false,
      "stateMutability": "nonpayable",
      "type": "function"
    },
    {
      "constant": false,
      "inputs": [
        {
          "name": "_type",
          "type": "uint8"
        }
      ],
      "name": "removeReputation",
      "outputs": [],
      "payable": false,
      "stateMutability": "nonpayable",
      "type": "function"
    }
  ],
  "bytecode": "0x6080604052336000806101000a81548173ffffffffffffffffffffffffffffffffffffffff021916908373ffffffffffffffffffffffffffffffffffffffff1602179055506105e5806100536000396000f300608060405260043610610062576000357c0100000000000000000000000000000000000000000000000000000000900463ffffffff1680633fc2651f146100675780638da5cb5b146100a0578063d56c40dd146100f7578063dd059ed51461014f575b600080fd5b34801561007357600080fd5b5061007c61017f565b6040518082600381111561008c57fe5b60ff16815260200191505060405180910390f35b3480156100ac57600080fd5b506100b5610192565b604051808273ffffffffffffffffffffffffffffffffffffffff1673ffffffffffffffffffffffffffffffffffffffff16815260200191505060405180910390f35b34801561010357600080fd5b5061014d600480360381019080803560ff169060200190929190803567ffffffffffffffff169060200190929190803567ffffffffffffffff1690602001909291905050506101b7565b005b34801561015b57600080fd5b5061017d600480360381019080803560ff1690602001909291905050506103f8565b005b600060149054906101000a900460ff1681565b6000809054906101000a900473ffffffffffffffffffffffffffffffffffffffff1681565b6101bf61058b565b6000809054906101000a900473ffffffffffffffffffffffffffffffffffffffff1673ffffffffffffffffffffffffffffffffffffffff163373ffffffffffffffffffffffffffffffffffffffff1614151561021a57600080fd5b6001600085600381111561022a57fe5b60ff1660ff16815260200190815260200160002060020160009054906101000a900460ff161515156102c4576040517f08c379a000000000000000000000000000000000000000000000000000000000815260040180806020018281038252600e8152602001807f50726f66696c652065786973747300000000000000000000000000000000000081525060200191505060405180910390fd5b60408051908101604052808467ffffffffffffffff1681526020018367ffffffffffffffff16815250905060606040519081016040528085600381111561030757fe5b8152602001828152602001600115158152506001600086600381111561032957fe5b60ff1660ff16815260200190815260200160002060008201518160000160006101000a81548160ff0219169083600381111561036157fe5b021790555060208201518160010160008201518160000160006101000a81548167ffffffffffffffff021916908367ffffffffffffffff16021790555060208201518160000160086101000a81548167ffffffffffffffff021916908367ffffffffffffffff160217905550505060408201518160020160006101000a81548160ff02191690831515021790555090505050505050565b6000809054906101000a900473ffffffffffffffffffffffffffffffffffffffff1673ffffffffffffffffffffffffffffffffffffffff163373ffffffffffffffffffffffffffffffffffffffff1614151561045357600080fd5b6001600082600381111561046357fe5b60ff1660ff16815260200190815260200160002060020160009054906101000a900460ff1615156104fc576040517f08c379a00000000000000000000000000000000000000000000000000000000081526004018080602001828103825260198152602001807f50726f66696c6520616c72656164792063616e63656c6c65640000000000000081525060200191505060405180910390fd5b6001600082600381111561050c57fe5b60ff1660ff168152602001908152602001600020600080820160006101000a81549060ff021916905560018201600080820160006101000a81549067ffffffffffffffff02191690556000820160086101000a81549067ffffffffffffffff021916905550506002820160006101000a81549060ff0219169055505050565b6040805190810160405280600067ffffffffffffffff168152602001600067ffffffffffffffff16815250905600a165627a7a72305820459a1076511d0c834ad9b3cdcc9f8ac86ff1395c227245a81cb1dde066ecb4c70029",
  "source": "pragma solidity ^0.4.23;\n\nimport \"./zeppelin/ownership/Ownable.sol\";\ncontract Reputation is Ownable {\n\n    /**\n    * Profile by collaborators\n    */\n    enum TypeProfile{COLAB, AMBASSADOR, ESPECIALIST, ADVISOR}\n    TypeProfile public retu;\n\n    mapping (uint8 => Profile) mapProfile;\n\n    /**\n    * Range of reputation, ex:\n    * 1 until 100 is a collaborator\n    * 101 until 300 is a ambassador    \n    */\n    struct RangeReputation {\n        uint64 start;\n        uint64 end;\n    }\n    /**\n    * Profile of collaborators\n    */\n    struct Profile {\n        TypeProfile typeProfile;\n        RangeReputation range;\n        bool status;\n    }\n\n    /**\n    * @dev addReputation. Add a reputation with the range, ex: Ambassador = 100, 200\n    * @param _type is the type of profile\n    * @param _start the number of start range \n    * @param _end the number of end range \n    */    \n    function addReputation(TypeProfile _type, uint64 _start, uint64 _end) \n        public onlyOwner {\n        require(! mapProfile[uint8(_type)].status, \"Profile exists\");\n        RangeReputation memory range = RangeReputation(_start, _end);\n        mapProfile[uint8(_type)] = Profile(_type, range, true);\n    }\n\n    /**\n    * @dev removeReputation. Remove a reputation, change the status to false\n    */    \n    function removeReputation(TypeProfile _type) public onlyOwner {\n        require(mapProfile[uint8(_type)].status, \"Profile already cancelled\");\n        delete mapProfile[uint8(_type)];\n    }\n}\n\n",
  "sourcePath": "/Users/hgleite/Documents/henrique/GoBlockchain/smart-contract-identity/contracts/Reputation.sol",
  "compiler": {
    "name": "solc",
    "version": "0.4.24+commit.e67f0147.Emscripten.clang"
  },
  "schemaVersion": "2.0.0",
  "updatedAt": "2018-08-29T05:05:33.115Z"
}