{
  "contractName": "StringUtils",
  "abi": [
    {
      "constant": true,
      "inputs": [
        {
          "name": "_a",
          "type": "string"
        },
        {
          "name": "_b",
          "type": "string"
        }
      ],
      "name": "compare",
      "outputs": [
        {
          "name": "",
          "type": "int256"
        }
      ],
      "payable": false,
      "stateMutability": "pure",
      "type": "function"
    },
    {
      "constant": true,
      "inputs": [
        {
          "name": "_a",
          "type": "string"
        },
        {
          "name": "_b",
          "type": "string"
        }
      ],
      "name": "equal",
      "outputs": [
        {
          "name": "",
          "type": "bool"
        }
      ],
      "payable": false,
      "stateMutability": "pure",
      "type": "function"
    }
  ],
  "bytecode": "0x6104c8610030600b82828239805160001a6073146000811461002057610022565bfe5b5030600052607381538281f3007300000000000000000000000000000000000000003014608060405260043610610063576000357c0100000000000000000000000000000000000000000000000000000000900463ffffffff1680633a96fdd71461006857806346bdca9a1461011e575b600080fd5b610108600480360381019080803590602001908201803590602001908080601f0160208091040260200160405190810160405280939291908181526020018383808284378201915050505050509192919290803590602001908201803590602001908080601f01602080910402602001604051908101604052809392919081815260200183838082843782019150505050505091929192905050506101d8565b6040518082815260200191505060405180910390f35b6101be600480360381019080803590602001908201803590602001908080601f0160208091040260200160405190810160405280939291908181526020018383808284378201915050505050509192919290803590602001908201803590602001908080601f0160208091040260200160405190810160405280939291908181526020018383808284378201915050505050509192919290505050610486565b604051808215151515815260200191505060405180910390f35b60006060806000808693508592508351915081835110156101f857825191505b600090508181101561047b57828181518110151561021257fe5b9060200101517f010000000000000000000000000000000000000000000000000000000000000090047f0100000000000000000000000000000000000000000000000000000000000000027effffffffffffffffffffffffffffffffffffffffffffffffffffffffffffff1916848281518110151561028d57fe5b9060200101517f010000000000000000000000000000000000000000000000000000000000000090047f0100000000000000000000000000000000000000000000000000000000000000027effffffffffffffffffffffffffffffffffffffffffffffffffffffffffffff19161015610328577fffffffffffffffffffffffffffffffffffffffffffffffffffffffffffffffff945061047c565b828181518110151561033657fe5b9060200101517f010000000000000000000000000000000000000000000000000000000000000090047f0100000000000000000000000000000000000000000000000000000000000000027effffffffffffffffffffffffffffffffffffffffffffffffffffffffffffff191684828151811015156103b157fe5b9060200101517f010000000000000000000000000000000000000000000000000000000000000090047f0100000000000000000000000000000000000000000000000000000000000000027effffffffffffffffffffffffffffffffffffffffffffffffffffffffffffff1916111561042d576001945061047c565b82518451101561045f577fffffffffffffffffffffffffffffffffffffffffffffffffffffffffffffffff945061047c565b825184511115610472576001945061047c565b6000945061047c565b5b5050505092915050565b60008061049384846101d8565b149050929150505600a165627a7a723058209e21bd457116485eb13b98b925a00384bae0dfdf2703bbbf9f61518b837544280029",
  "source": "pragma solidity ^0.4.24;\n\nlibrary StringUtils {\n    function stringToBytes32(string memory _source) pure internal returns (bytes32 result)\n    {\n        assembly {\n            result := mload(add(_source, 32))\n        }\n    }\n    // @dev Does a byte-by-byte lexicographical comparison of two strings.\n    // @return a negative number if `_a` is smaller, zero if they are equal\n    /// and a positive numbe if `_b` is smaller.\n    function compare(string _a, string _b) public pure returns (int) {\n        bytes memory a = bytes(_a);\n        bytes memory b = bytes(_b);\n        uint minLength = a.length;\n        if (b.length < minLength) minLength = b.length;\n        //@todo unroll the loop into increments of 32 and do full 32 byte comparisons\n        for (uint i = 0; i < minLength; i ++) {\n            if (a[i] < b[i]){\n                return -1;\n            } else if (a[i] > b[i]) {\n                return 1;\n            }\n            if (a.length < b.length) {\n                return -1;\n            } else if (a.length > b.length) {\n                return 1;\n            } else {\n                return 0;\n            }\n        }\n    }\n    /// @dev Compares two strings and returns true iff they are equal.\n    function equal(string _a, string _b) public pure returns (bool)\n    {\n        return compare(_a, _b) == 0;\n    }\n}",
  "sourcePath": "/Users/hgleite/Documents/henrique/GoBlockchain/smart-contract-identity/contracts/util/StringUtils.sol",
  "compiler": {
    "name": "solc",
    "version": "0.4.24+commit.e67f0147.Emscripten.clang"
  },
  "schemaVersion": "2.0.0",
  "updatedAt": "2018-08-16T02:33:59.261Z"
}