{
  "contractName": "TermsAndCondition",
  "abi": [
    {
      "constant": true,
      "inputs": [
        {
          "name": "",
          "type": "uint256"
        }
      ],
      "name": "hashTerms",
      "outputs": [
        {
          "name": "",
          "type": "string"
        }
      ],
      "payable": false,
      "stateMutability": "view",
      "type": "function"
    },
    {
      "constant": true,
      "inputs": [
        {
          "name": "addr",
          "type": "address"
        },
        {
          "name": "roleName",
          "type": "string"
        }
      ],
      "name": "checkRole",
      "outputs": [],
      "payable": false,
      "stateMutability": "view",
      "type": "function"
    },
    {
      "constant": true,
      "inputs": [
        {
          "name": "addr",
          "type": "address"
        },
        {
          "name": "roleName",
          "type": "string"
        }
      ],
      "name": "hasRole",
      "outputs": [
        {
          "name": "",
          "type": "bool"
        }
      ],
      "payable": false,
      "stateMutability": "view",
      "type": "function"
    },
    {
      "constant": false,
      "inputs": [
        {
          "name": "_newSuperuser",
          "type": "address"
        }
      ],
      "name": "transferAdmin",
      "outputs": [],
      "payable": false,
      "stateMutability": "nonpayable",
      "type": "function"
    },
    {
      "constant": false,
      "inputs": [
        {
          "name": "addr",
          "type": "address"
        },
        {
          "name": "roleName",
          "type": "string"
        }
      ],
      "name": "adminRemoveRole",
      "outputs": [],
      "payable": false,
      "stateMutability": "nonpayable",
      "type": "function"
    },
    {
      "constant": true,
      "inputs": [],
      "name": "validHash",
      "outputs": [
        {
          "name": "",
          "type": "string"
        }
      ],
      "payable": false,
      "stateMutability": "view",
      "type": "function"
    },
    {
      "constant": true,
      "inputs": [],
      "name": "ROLE_ADMIN",
      "outputs": [
        {
          "name": "",
          "type": "string"
        }
      ],
      "payable": false,
      "stateMutability": "view",
      "type": "function"
    },
    {
      "constant": true,
      "inputs": [],
      "name": "ROLE_COLLABORATOR",
      "outputs": [
        {
          "name": "",
          "type": "string"
        }
      ],
      "payable": false,
      "stateMutability": "view",
      "type": "function"
    },
    {
      "anonymous": false,
      "inputs": [
        {
          "indexed": false,
          "name": "sender",
          "type": "address"
        },
        {
          "indexed": false,
          "name": "time",
          "type": "uint256"
        },
        {
          "indexed": false,
          "name": "validHash",
          "type": "string"
        }
      ],
      "name": "TermsAndConditionChanged",
      "type": "event"
    },
    {
      "anonymous": false,
      "inputs": [
        {
          "indexed": false,
          "name": "collaborator",
          "type": "address"
        }
      ],
      "name": "NewCollaborator",
      "type": "event"
    },
    {
      "anonymous": false,
      "inputs": [
        {
          "indexed": false,
          "name": "addr",
          "type": "address"
        },
        {
          "indexed": false,
          "name": "roleName",
          "type": "string"
        }
      ],
      "name": "RoleAdded",
      "type": "event"
    },
    {
      "anonymous": false,
      "inputs": [
        {
          "indexed": false,
          "name": "addr",
          "type": "address"
        },
        {
          "indexed": false,
          "name": "roleName",
          "type": "string"
        }
      ],
      "name": "RoleRemoved",
      "type": "event"
    },
    {
      "constant": false,
      "inputs": [
        {
          "name": "_hash",
          "type": "string"
        }
      ],
      "name": "setTermsAndCondition",
      "outputs": [],
      "payable": false,
      "stateMutability": "nonpayable",
      "type": "function"
    },
    {
      "constant": true,
      "inputs": [],
      "name": "getValidHash",
      "outputs": [
        {
          "name": "",
          "type": "string"
        }
      ],
      "payable": false,
      "stateMutability": "view",
      "type": "function"
    }
  ],
  "bytecode": "0x608060405262000054336040805190810160405280600581526020017f61646d696e000000000000000000000000000000000000000000000000000000815250620000aa640100000000026401000000009004565b620000a4336040805190810160405280600c81526020017f636f6c6c61626f7261746f720000000000000000000000000000000000000000815250620000aa640100000000026401000000009004565b6200026e565b62000139826000836040518082805190602001908083835b602083101515620000e95780518252602082019150602081019050602083039250620000c2565b6001836020036101000a03801982511681845116808217855250505050505090500191505090815260200160405180910390206200021064010000000002620011bd179091906401000000009004565b7fbfec83d64eaa953f2708271a023ab9ee82057f8f3578d548c1a4ba0b5b7004898282604051808373ffffffffffffffffffffffffffffffffffffffff1673ffffffffffffffffffffffffffffffffffffffff16815260200180602001828103825283818151815260200191508051906020019080838360005b83811015620001d0578082015181840152602081019050620001b3565b50505050905090810190601f168015620001fe5780820380516001836020036101000a031916815260200191505b50935050505060405180910390a15050565b60018260000160008373ffffffffffffffffffffffffffffffffffffffff1673ffffffffffffffffffffffffffffffffffffffff16815260200190815260200160002060006101000a81548160ff0219169083151502179055505050565b6112ec806200027e6000396000f3006080604052600436106100a4576000357c0100000000000000000000000000000000000000000000000000000000900463ffffffff168063035c36f1146100a95780630988ca8c1461014f578063217fe6c6146101d8578063390541a51461027957806375829def146102e25780638129301c1461032557806388cee87e146103b5578063cbda77221461043e578063d391014b146104ce578063ed3e024a1461055e575b600080fd5b3480156100b557600080fd5b506100d4600480360381019080803590602001909291905050506105ee565b6040518080602001828103825283818151815260200191508051906020019080838360005b838110156101145780820151818401526020810190506100f9565b50505050905090810190601f1680156101415780820380516001836020036101000a031916815260200191505b509250505060405180910390f35b34801561015b57600080fd5b506101d6600480360381019080803573ffffffffffffffffffffffffffffffffffffffff169060200190929190803590602001908201803590602001908080601f01602080910402602001604051908101604052809392919081815260200183838082843782019150505050505091929192905050506106a9565b005b3480156101e457600080fd5b5061025f600480360381019080803573ffffffffffffffffffffffffffffffffffffffff169060200190929190803590602001908201803590602001908080601f016020809104026020016040519081016040528093929190818152602001838380828437820191505050505050919291929050505061072a565b604051808215151515815260200191505060405180910390f35b34801561028557600080fd5b506102e0600480360381019080803590602001908201803590602001908080601f01602080910402602001604051908101604052809392919081815260200183838082843782019150505050505091929192905050506107b1565b005b3480156102ee57600080fd5b50610323600480360381019080803573ffffffffffffffffffffffffffffffffffffffff1690602001909291905050506109b3565b005b34801561033157600080fd5b5061033a610bd8565b6040518080602001828103825283818151815260200191508051906020019080838360005b8381101561037a57808201518184015260208101905061035f565b50505050905090810190601f1680156103a75780820380516001836020036101000a031916815260200191505b509250505060405180910390f35b3480156103c157600080fd5b5061043c600480360381019080803573ffffffffffffffffffffffffffffffffffffffff169060200190929190803590602001908201803590602001908080601f0160208091040260200160405190810160405280939291908181526020018383808284378201915050505050509192919290505050610c7a565b005b34801561044a57600080fd5b50610453610d3b565b6040518080602001828103825283818151815260200191508051906020019080838360005b83811015610493578082015181840152602081019050610478565b50505050905090810190601f1680156104c05780820380516001836020036101000a031916815260200191505b509250505060405180910390f35b3480156104da57600080fd5b506104e3610dd9565b6040518080602001828103825283818151815260200191508051906020019080838360005b83811015610523578082015181840152602081019050610508565b50505050905090810190601f1680156105505780820380516001836020036101000a031916815260200191505b509250505060405180910390f35b34801561056a57600080fd5b50610573610e12565b6040518080602001828103825283818151815260200191508051906020019080838360005b838110156105b3578082015181840152602081019050610598565b50505050905090810190601f1680156105e05780820380516001836020036101000a031916815260200191505b509250505060405180910390f35b6001818154811015156105fd57fe5b906000526020600020016000915090508054600181600116156101000203166002900480601f0160208091040260200160405190810160405280929190818152602001828054600181600116156101000203166002900480156106a15780601f10610676576101008083540402835291602001916106a1565b820191906000526020600020905b81548152906001019060200180831161068457829003601f168201915b505050505081565b610726826000836040518082805190602001908083835b6020831015156106e557805182526020820191506020810190506020830392506106c0565b6001836020036101000a0380198251168184511680821785525050505050509050019150509081526020016040518091039020610e4b90919063ffffffff16565b5050565b60006107a9836000846040518082805190602001908083835b6020831015156107685780518252602082019150602081019050602083039250610743565b6001836020036101000a0380198251168184511680821785525050505050509050019150509081526020016040518091039020610e6490919063ffffffff16565b905092915050565b6107f0336040805190810160405280600581526020017f61646d696e00000000000000000000000000000000000000000000000000000081525061072a565b1515610864576040517f08c379a00000000000000000000000000000000000000000000000000000000081526004018080602001828103825260198152602001807f4e6563657373617279206f6e6c7920524f4c455f41444d494e0000000000000081525060200191505060405180910390fd5b60018190806001815401808255809150509060018203906000526020600020016000909192909190915090805190602001906108a192919061121b565b505080600290805190602001906108b992919061121b565b507f6d6eae271da0ff27174c7ef6da7f0ae76c697dbf8134161d15febe0708f7953133426002604051808473ffffffffffffffffffffffffffffffffffffffff1673ffffffffffffffffffffffffffffffffffffffff168152602001838152602001806020018281038252838181546001816001161561010002031660029004815260200191508054600181600116156101000203166002900480156109a05780601f10610975576101008083540402835291602001916109a0565b820191906000526020600020905b81548152906001019060200180831161098357829003601f168201915b505094505050505060405180910390a150565b6109f2336040805190810160405280600581526020017f61646d696e00000000000000000000000000000000000000000000000000000081525061072a565b1515610a66576040517f08c379a00000000000000000000000000000000000000000000000000000000081526004018080602001828103825260198152602001807f4e6563657373617279206f6e6c7920524f4c455f41444d494e0000000000000081525060200191505060405180910390fd5b80610aa6816040805190810160405280600c81526020017f636f6c6c61626f7261746f72000000000000000000000000000000000000000081525061072a565b1515610b1a576040517f08c379a00000000000000000000000000000000000000000000000000000000081526004018080602001828103825260208152602001807f4e6563657373617279206f6e6c7920524f4c455f434f4c4c41424f5241544f5281525060200191505060405180910390fd5b600073ffffffffffffffffffffffffffffffffffffffff168273ffffffffffffffffffffffffffffffffffffffff1614151515610b5657600080fd5b610b95336040805190810160405280600581526020017f61646d696e000000000000000000000000000000000000000000000000000000815250610ebd565b610bd4826040805190810160405280600581526020017f61646d696e00000000000000000000000000000000000000000000000000000081525061100e565b5050565b606060028054600181600116156101000203166002900480601f016020809104026020016040519081016040528092919081815260200182805460018160011615610100020316600290048015610c705780601f10610c4557610100808354040283529160200191610c70565b820191906000526020600020905b815481529060010190602001808311610c5357829003601f168201915b5050505050905090565b610cb9336040805190810160405280600581526020017f61646d696e00000000000000000000000000000000000000000000000000000081525061072a565b1515610d2d576040517f08c379a00000000000000000000000000000000000000000000000000000000081526004018080602001828103825260198152602001807f4e6563657373617279206f6e6c7920524f4c455f41444d494e0000000000000081525060200191505060405180910390fd5b610d378282610ebd565b5050565b60028054600181600116156101000203166002900480601f016020809104026020016040519081016040528092919081815260200182805460018160011615610100020316600290048015610dd15780601f10610da657610100808354040283529160200191610dd1565b820191906000526020600020905b815481529060010190602001808311610db457829003601f168201915b505050505081565b6040805190810160405280600581526020017f61646d696e00000000000000000000000000000000000000000000000000000081525081565b6040805190810160405280600c81526020017f636f6c6c61626f7261746f72000000000000000000000000000000000000000081525081565b610e558282610e64565b1515610e6057600080fd5b5050565b60008260000160008373ffffffffffffffffffffffffffffffffffffffff1673ffffffffffffffffffffffffffffffffffffffff16815260200190815260200160002060009054906101000a900460ff16905092915050565b610f3a826000836040518082805190602001908083835b602083101515610ef95780518252602082019150602081019050602083039250610ed4565b6001836020036101000a038019825116818451168082178552505050505050905001915050908152602001604051809103902061115f90919063ffffffff16565b7fd211483f91fc6eff862467f8de606587a30c8fc9981056f051b897a418df803a8282604051808373ffffffffffffffffffffffffffffffffffffffff1673ffffffffffffffffffffffffffffffffffffffff16815260200180602001828103825283818151815260200191508051906020019080838360005b83811015610fcf578082015181840152602081019050610fb4565b50505050905090810190601f168015610ffc5780820380516001836020036101000a031916815260200191505b50935050505060405180910390a15050565b61108b826000836040518082805190602001908083835b60208310151561104a5780518252602082019150602081019050602083039250611025565b6001836020036101000a03801982511681845116808217855250505050505090500191505090815260200160405180910390206111bd90919063ffffffff16565b7fbfec83d64eaa953f2708271a023ab9ee82057f8f3578d548c1a4ba0b5b7004898282604051808373ffffffffffffffffffffffffffffffffffffffff1673ffffffffffffffffffffffffffffffffffffffff16815260200180602001828103825283818151815260200191508051906020019080838360005b83811015611120578082015181840152602081019050611105565b50505050905090810190601f16801561114d5780820380516001836020036101000a031916815260200191505b50935050505060405180910390a15050565b60008260000160008373ffffffffffffffffffffffffffffffffffffffff1673ffffffffffffffffffffffffffffffffffffffff16815260200190815260200160002060006101000a81548160ff0219169083151502179055505050565b60018260000160008373ffffffffffffffffffffffffffffffffffffffff1673ffffffffffffffffffffffffffffffffffffffff16815260200190815260200160002060006101000a81548160ff0219169083151502179055505050565b828054600181600116156101000203166002900490600052602060002090601f016020900481019282601f1061125c57805160ff191683800117855561128a565b8280016001018555821561128a579182015b8281111561128957825182559160200191906001019061126e565b5b509050611297919061129b565b5090565b6112bd91905b808211156112b95760008160009055506001016112a1565b5090565b905600a165627a7a7230582066f99c177955887d8355d5398d007e60acdb813faeb0fcb6b7aee33c24931eb00029",
  "source": "pragma solidity 0.4.24;\n\nimport \"../Collaborator.sol\";\n\ncontract TermsAndCondition is Collaborator {\n    string[] public hashTerms;\n    string public validHash;\n    event TermsAndConditionChanged(address sender, uint256 time, string validHash );\n\n    /**\n    * @dev Set the hash of terms and conditions;\n    * @param _hash The new valid hash\n    */\n    function setTermsAndCondition(string _hash) public onlyAdmin {\n        hashTerms.push(_hash);\n        validHash = _hash;\n        emit TermsAndConditionChanged(msg.sender, now, validHash);\n    }\n\n\n    /**\n    * @dev Return the last hash\n    * @return string\n    */\n    function getValidHash() public view returns(string) {\n        return validHash;\n    }\n}\n",
  "sourcePath": "/Users/hgleite/Documents/henrique/GoBlockchain/smart-contract-identity/contracts/identity/TermsAndCondition.sol",
  "compiler": {
    "name": "solc",
    "version": "0.4.24+commit.e67f0147.Emscripten.clang"
  },
  "schemaVersion": "2.0.0",
  "updatedAt": "2018-09-03T02:53:01.273Z"
}