{
  "contractName": "TermsAndCondition",
  "abi": [
    {
      "constant": true,
      "inputs": [
        {
          "name": "",
          "type": "uint256"
        }
      ],
      "name": "hashTerms",
      "outputs": [
        {
          "name": "",
          "type": "string"
        }
      ],
      "payable": false,
      "stateMutability": "view",
      "type": "function"
    },
    {
      "constant": true,
      "inputs": [
        {
          "name": "addr",
          "type": "address"
        },
        {
          "name": "roleName",
          "type": "string"
        }
      ],
      "name": "checkRole",
      "outputs": [],
      "payable": false,
      "stateMutability": "view",
      "type": "function"
    },
    {
      "constant": true,
      "inputs": [
        {
          "name": "addr",
          "type": "address"
        },
        {
          "name": "roleName",
          "type": "string"
        }
      ],
      "name": "hasRole",
      "outputs": [
        {
          "name": "",
          "type": "bool"
        }
      ],
      "payable": false,
      "stateMutability": "view",
      "type": "function"
    },
    {
      "constant": true,
      "inputs": [],
      "name": "retu",
      "outputs": [
        {
          "name": "",
          "type": "uint8"
        }
      ],
      "payable": false,
      "stateMutability": "view",
      "type": "function"
    },
    {
      "constant": false,
      "inputs": [
        {
          "name": "_newSuperuser",
          "type": "address"
        }
      ],
      "name": "transferAdmin",
      "outputs": [],
      "payable": false,
      "stateMutability": "nonpayable",
      "type": "function"
    },
    {
      "constant": false,
      "inputs": [
        {
          "name": "addr",
          "type": "address"
        },
        {
          "name": "roleName",
          "type": "string"
        }
      ],
      "name": "adminRemoveRole",
      "outputs": [],
      "payable": false,
      "stateMutability": "nonpayable",
      "type": "function"
    },
    {
      "constant": true,
      "inputs": [],
      "name": "owner",
      "outputs": [
        {
          "name": "",
          "type": "address"
        }
      ],
      "payable": false,
      "stateMutability": "view",
      "type": "function"
    },
    {
      "constant": true,
      "inputs": [],
      "name": "validHash",
      "outputs": [
        {
          "name": "",
          "type": "string"
        }
      ],
      "payable": false,
      "stateMutability": "view",
      "type": "function"
    },
    {
      "constant": true,
      "inputs": [],
      "name": "ROLE_ADMIN",
      "outputs": [
        {
          "name": "",
          "type": "string"
        }
      ],
      "payable": false,
      "stateMutability": "view",
      "type": "function"
    },
    {
      "constant": false,
      "inputs": [
        {
          "name": "_type",
          "type": "uint8"
        },
        {
          "name": "_start",
          "type": "uint64"
        },
        {
          "name": "_end",
          "type": "uint64"
        }
      ],
      "name": "addReputation",
      "outputs": [],
      "payable": false,
      "stateMutability": "nonpayable",
      "type": "function"
    },
    {
      "constant": false,
      "inputs": [
        {
          "name": "_type",
          "type": "uint8"
        }
      ],
      "name": "removeReputation",
      "outputs": [],
      "payable": false,
      "stateMutability": "nonpayable",
      "type": "function"
    },
    {
      "constant": true,
      "inputs": [],
      "name": "ROLE_COLLABORATOR",
      "outputs": [
        {
          "name": "",
          "type": "string"
        }
      ],
      "payable": false,
      "stateMutability": "view",
      "type": "function"
    },
    {
      "anonymous": false,
      "inputs": [
        {
          "indexed": false,
          "name": "sender",
          "type": "address"
        },
        {
          "indexed": false,
          "name": "time",
          "type": "uint256"
        },
        {
          "indexed": false,
          "name": "validHash",
          "type": "string"
        }
      ],
      "name": "TermsAndConditionChanged",
      "type": "event"
    },
    {
      "anonymous": false,
      "inputs": [
        {
          "indexed": false,
          "name": "collaborator",
          "type": "address"
        }
      ],
      "name": "NewCollaborator",
      "type": "event"
    },
    {
      "anonymous": false,
      "inputs": [
        {
          "indexed": false,
          "name": "qtd",
          "type": "uint8"
        },
        {
          "indexed": false,
          "name": "responsable",
          "type": "address"
        }
      ],
      "name": "NewAdvisors",
      "type": "event"
    },
    {
      "anonymous": false,
      "inputs": [
        {
          "indexed": false,
          "name": "addr",
          "type": "address"
        },
        {
          "indexed": false,
          "name": "roleName",
          "type": "string"
        }
      ],
      "name": "RoleAdded",
      "type": "event"
    },
    {
      "anonymous": false,
      "inputs": [
        {
          "indexed": false,
          "name": "addr",
          "type": "address"
        },
        {
          "indexed": false,
          "name": "roleName",
          "type": "string"
        }
      ],
      "name": "RoleRemoved",
      "type": "event"
    },
    {
      "anonymous": false,
      "inputs": [
        {
          "indexed": true,
          "name": "previousOwner",
          "type": "address"
        },
        {
          "indexed": true,
          "name": "newOwner",
          "type": "address"
        }
      ],
      "name": "OwnershipTransferred",
      "type": "event"
    },
    {
      "constant": false,
      "inputs": [
        {
          "name": "_hash",
          "type": "string"
        }
      ],
      "name": "setTermsAndCondition",
      "outputs": [],
      "payable": false,
      "stateMutability": "nonpayable",
      "type": "function"
    },
    {
      "constant": true,
      "inputs": [],
      "name": "getValidHash",
      "outputs": [
        {
          "name": "",
          "type": "string"
        }
      ],
      "payable": false,
      "stateMutability": "view",
      "type": "function"
    }
  ],
  "bytecode": "0x6080604052336000806101000a81548173ffffffffffffffffffffffffffffffffffffffff021916908373ffffffffffffffffffffffffffffffffffffffff16021790555062000094336040805190810160405280600581526020017f61646d696e0000000000000000000000000000000000000000000000000000008152506200009a640100000000026401000000009004565b6200025e565b62000129826002836040518082805190602001908083835b602083101515620000d95780518252602082019150602081019050602083039250620000b2565b6001836020036101000a038019825116818451168082178552505050505050905001915050908152602001604051809103902062000200640100000000026200170d179091906401000000009004565b7fbfec83d64eaa953f2708271a023ab9ee82057f8f3578d548c1a4ba0b5b7004898282604051808373ffffffffffffffffffffffffffffffffffffffff1673ffffffffffffffffffffffffffffffffffffffff16815260200180602001828103825283818151815260200191508051906020019080838360005b83811015620001c0578082015181840152602081019050620001a3565b50505050905090810190601f168015620001ee5780820380516001836020036101000a031916815260200191505b50935050505060405180910390a15050565b60018260000160008373ffffffffffffffffffffffffffffffffffffffff1673ffffffffffffffffffffffffffffffffffffffff16815260200190815260200160002060006101000a81548160ff0219169083151502179055505050565b61186a806200026e6000396000f3006080604052600436106100d0576000357c0100000000000000000000000000000000000000000000000000000000900463ffffffff168063035c36f1146100d55780630988ca8c1461017b578063217fe6c614610204578063390541a5146102a55780633fc2651f1461030e57806375829def146103475780638129301c1461038a57806388cee87e1461041a5780638da5cb5b146104a3578063cbda7722146104fa578063d391014b1461058a578063d56c40dd1461061a578063dd059ed514610672578063ed3e024a146106a2575b600080fd5b3480156100e157600080fd5b5061010060048036038101908080359060200190929190505050610732565b6040518080602001828103825283818151815260200191508051906020019080838360005b83811015610140578082015181840152602081019050610125565b50505050905090810190601f16801561016d5780820380516001836020036101000a031916815260200191505b509250505060405180910390f35b34801561018757600080fd5b50610202600480360381019080803573ffffffffffffffffffffffffffffffffffffffff169060200190929190803590602001908201803590602001908080601f01602080910402602001604051908101604052809392919081815260200183838082843782019150505050505091929192905050506107ed565b005b34801561021057600080fd5b5061028b600480360381019080803573ffffffffffffffffffffffffffffffffffffffff169060200190929190803590602001908201803590602001908080601f016020809104026020016040519081016040528093929190818152602001838380828437820191505050505050919291929050505061086e565b604051808215151515815260200191505060405180910390f35b3480156102b157600080fd5b5061030c600480360381019080803590602001908201803590602001908080601f01602080910402602001604051908101604052809392919081815260200183838082843782019150505050505091929192905050506108f5565b005b34801561031a57600080fd5b50610323610af7565b6040518082600381111561033357fe5b60ff16815260200191505060405180910390f35b34801561035357600080fd5b50610388600480360381019080803573ffffffffffffffffffffffffffffffffffffffff169060200190929190505050610b0a565b005b34801561039657600080fd5b5061039f610d2f565b6040518080602001828103825283818151815260200191508051906020019080838360005b838110156103df5780820151818401526020810190506103c4565b50505050905090810190601f16801561040c5780820380516001836020036101000a031916815260200191505b509250505060405180910390f35b34801561042657600080fd5b506104a1600480360381019080803573ffffffffffffffffffffffffffffffffffffffff169060200190929190803590602001908201803590602001908080601f0160208091040260200160405190810160405280939291908181526020018383808284378201915050505050509192919290505050610dd1565b005b3480156104af57600080fd5b506104b8610e92565b604051808273ffffffffffffffffffffffffffffffffffffffff1673ffffffffffffffffffffffffffffffffffffffff16815260200191505060405180910390f35b34801561050657600080fd5b5061050f610eb7565b6040518080602001828103825283818151815260200191508051906020019080838360005b8381101561054f578082015181840152602081019050610534565b50505050905090810190601f16801561057c5780820380516001836020036101000a031916815260200191505b509250505060405180910390f35b34801561059657600080fd5b5061059f610f55565b6040518080602001828103825283818151815260200191508051906020019080838360005b838110156105df5780820151818401526020810190506105c4565b50505050905090810190601f16801561060c5780820380516001836020036101000a031916815260200191505b509250505060405180910390f35b34801561062657600080fd5b50610670600480360381019080803560ff169060200190929190803567ffffffffffffffff169060200190929190803567ffffffffffffffff169060200190929190505050610f8e565b005b34801561067e57600080fd5b506106a0600480360381019080803560ff1690602001909291905050506111cf565b005b3480156106ae57600080fd5b506106b7611362565b6040518080602001828103825283818151815260200191508051906020019080838360005b838110156106f75780820151818401526020810190506106dc565b50505050905090810190601f1680156107245780820380516001836020036101000a031916815260200191505b509250505060405180910390f35b60038181548110151561074157fe5b906000526020600020016000915090508054600181600116156101000203166002900480601f0160208091040260200160405190810160405280929190818152602001828054600181600116156101000203166002900480156107e55780601f106107ba576101008083540402835291602001916107e5565b820191906000526020600020905b8154815290600101906020018083116107c857829003601f168201915b505050505081565b61086a826002836040518082805190602001908083835b6020831015156108295780518252602082019150602081019050602083039250610804565b6001836020036101000a038019825116818451168082178552505050505050905001915050908152602001604051809103902061139b90919063ffffffff16565b5050565b60006108ed836002846040518082805190602001908083835b6020831015156108ac5780518252602082019150602081019050602083039250610887565b6001836020036101000a03801982511681845116808217855250505050505090500191505090815260200160405180910390206113b490919063ffffffff16565b905092915050565b610934336040805190810160405280600581526020017f61646d696e00000000000000000000000000000000000000000000000000000081525061086e565b15156109a8576040517f08c379a00000000000000000000000000000000000000000000000000000000081526004018080602001828103825260198152602001807f4e6563657373617279206f6e6c7920524f4c455f41444d494e0000000000000081525060200191505060405180910390fd5b60038190806001815401808255809150509060018203906000526020600020016000909192909190915090805190602001906109e592919061176b565b505080600490805190602001906109fd92919061176b565b507f6d6eae271da0ff27174c7ef6da7f0ae76c697dbf8134161d15febe0708f7953133426004604051808473ffffffffffffffffffffffffffffffffffffffff1673ffffffffffffffffffffffffffffffffffffffff16815260200183815260200180602001828103825283818154600181600116156101000203166002900481526020019150805460018160011615610100020316600290048015610ae45780601f10610ab957610100808354040283529160200191610ae4565b820191906000526020600020905b815481529060010190602001808311610ac757829003601f168201915b505094505050505060405180910390a150565b600060149054906101000a900460ff1681565b610b49336040805190810160405280600581526020017f61646d696e00000000000000000000000000000000000000000000000000000081525061086e565b1515610bbd576040517f08c379a00000000000000000000000000000000000000000000000000000000081526004018080602001828103825260198152602001807f4e6563657373617279206f6e6c7920524f4c455f41444d494e0000000000000081525060200191505060405180910390fd5b80610bfd816040805190810160405280600c81526020017f636f6c6c61626f7261746f72000000000000000000000000000000000000000081525061086e565b1515610c71576040517f08c379a00000000000000000000000000000000000000000000000000000000081526004018080602001828103825260208152602001807f4e6563657373617279206f6e6c7920524f4c455f434f4c4c41424f5241544f5281525060200191505060405180910390fd5b600073ffffffffffffffffffffffffffffffffffffffff168273ffffffffffffffffffffffffffffffffffffffff1614151515610cad57600080fd5b610cec336040805190810160405280600581526020017f61646d696e00000000000000000000000000000000000000000000000000000081525061140d565b610d2b826040805190810160405280600581526020017f61646d696e00000000000000000000000000000000000000000000000000000081525061155e565b5050565b606060048054600181600116156101000203166002900480601f016020809104026020016040519081016040528092919081815260200182805460018160011615610100020316600290048015610dc75780601f10610d9c57610100808354040283529160200191610dc7565b820191906000526020600020905b815481529060010190602001808311610daa57829003601f168201915b5050505050905090565b610e10336040805190810160405280600581526020017f61646d696e00000000000000000000000000000000000000000000000000000081525061086e565b1515610e84576040517f08c379a00000000000000000000000000000000000000000000000000000000081526004018080602001828103825260198152602001807f4e6563657373617279206f6e6c7920524f4c455f41444d494e0000000000000081525060200191505060405180910390fd5b610e8e828261140d565b5050565b6000809054906101000a900473ffffffffffffffffffffffffffffffffffffffff1681565b60048054600181600116156101000203166002900480601f016020809104026020016040519081016040528092919081815260200182805460018160011615610100020316600290048015610f4d5780601f10610f2257610100808354040283529160200191610f4d565b820191906000526020600020905b815481529060010190602001808311610f3057829003601f168201915b505050505081565b6040805190810160405280600581526020017f61646d696e00000000000000000000000000000000000000000000000000000081525081565b610f966117eb565b6000809054906101000a900473ffffffffffffffffffffffffffffffffffffffff1673ffffffffffffffffffffffffffffffffffffffff163373ffffffffffffffffffffffffffffffffffffffff16141515610ff157600080fd5b6001600085600381111561100157fe5b60ff1660ff16815260200190815260200160002060020160009054906101000a900460ff1615151561109b576040517f08c379a000000000000000000000000000000000000000000000000000000000815260040180806020018281038252600e8152602001807f50726f66696c652065786973747300000000000000000000000000000000000081525060200191505060405180910390fd5b60408051908101604052808467ffffffffffffffff1681526020018367ffffffffffffffff1681525090506060604051908101604052808560038111156110de57fe5b8152602001828152602001600115158152506001600086600381111561110057fe5b60ff1660ff16815260200190815260200160002060008201518160000160006101000a81548160ff0219169083600381111561113857fe5b021790555060208201518160010160008201518160000160006101000a81548167ffffffffffffffff021916908367ffffffffffffffff16021790555060208201518160000160086101000a81548167ffffffffffffffff021916908367ffffffffffffffff160217905550505060408201518160020160006101000a81548160ff02191690831515021790555090505050505050565b6000809054906101000a900473ffffffffffffffffffffffffffffffffffffffff1673ffffffffffffffffffffffffffffffffffffffff163373ffffffffffffffffffffffffffffffffffffffff1614151561122a57600080fd5b6001600082600381111561123a57fe5b60ff1660ff16815260200190815260200160002060020160009054906101000a900460ff1615156112d3576040517f08c379a00000000000000000000000000000000000000000000000000000000081526004018080602001828103825260198152602001807f50726f66696c6520616c72656164792063616e63656c6c65640000000000000081525060200191505060405180910390fd5b600160008260038111156112e357fe5b60ff1660ff168152602001908152602001600020600080820160006101000a81549060ff021916905560018201600080820160006101000a81549067ffffffffffffffff02191690556000820160086101000a81549067ffffffffffffffff021916905550506002820160006101000a81549060ff0219169055505050565b6040805190810160405280600c81526020017f636f6c6c61626f7261746f72000000000000000000000000000000000000000081525081565b6113a582826113b4565b15156113b057600080fd5b5050565b60008260000160008373ffffffffffffffffffffffffffffffffffffffff1673ffffffffffffffffffffffffffffffffffffffff16815260200190815260200160002060009054906101000a900460ff16905092915050565b61148a826002836040518082805190602001908083835b6020831015156114495780518252602082019150602081019050602083039250611424565b6001836020036101000a03801982511681845116808217855250505050505090500191505090815260200160405180910390206116af90919063ffffffff16565b7fd211483f91fc6eff862467f8de606587a30c8fc9981056f051b897a418df803a8282604051808373ffffffffffffffffffffffffffffffffffffffff1673ffffffffffffffffffffffffffffffffffffffff16815260200180602001828103825283818151815260200191508051906020019080838360005b8381101561151f578082015181840152602081019050611504565b50505050905090810190601f16801561154c5780820380516001836020036101000a031916815260200191505b50935050505060405180910390a15050565b6115db826002836040518082805190602001908083835b60208310151561159a5780518252602082019150602081019050602083039250611575565b6001836020036101000a038019825116818451168082178552505050505050905001915050908152602001604051809103902061170d90919063ffffffff16565b7fbfec83d64eaa953f2708271a023ab9ee82057f8f3578d548c1a4ba0b5b7004898282604051808373ffffffffffffffffffffffffffffffffffffffff1673ffffffffffffffffffffffffffffffffffffffff16815260200180602001828103825283818151815260200191508051906020019080838360005b83811015611670578082015181840152602081019050611655565b50505050905090810190601f16801561169d5780820380516001836020036101000a031916815260200191505b50935050505060405180910390a15050565b60008260000160008373ffffffffffffffffffffffffffffffffffffffff1673ffffffffffffffffffffffffffffffffffffffff16815260200190815260200160002060006101000a81548160ff0219169083151502179055505050565b60018260000160008373ffffffffffffffffffffffffffffffffffffffff1673ffffffffffffffffffffffffffffffffffffffff16815260200190815260200160002060006101000a81548160ff0219169083151502179055505050565b828054600181600116156101000203166002900490600052602060002090601f016020900481019282601f106117ac57805160ff19168380011785556117da565b828001600101855582156117da579182015b828111156117d95782518255916020019190600101906117be565b5b5090506117e79190611819565b5090565b6040805190810160405280600067ffffffffffffffff168152602001600067ffffffffffffffff1681525090565b61183b91905b8082111561183757600081600090555060010161181f565b5090565b905600a165627a7a72305820afdb283ea15cb60550e5a01c119d6c4af209e3fc58d41a41a723386899b8d8ea0029",
  "source": "pragma solidity 0.4.24;\n\nimport \"../Collaborator.sol\";\n\ncontract TermsAndCondition is Collaborator {\n    string[] public hashTerms;\n    string public validHash;\n    event TermsAndConditionChanged(address sender, uint256 time, string validHash );\n\n    /**\n    * @dev Set the hash of terms and conditions;\n    * @param _hash The new valid hash\n    */\n    function setTermsAndCondition(string _hash) public onlyAdmin {\n        hashTerms.push(_hash);\n        validHash = _hash;\n        emit TermsAndConditionChanged(msg.sender, now, validHash);\n    }\n\n\n    /**\n    * @dev Return the last hash\n    * @return string\n    */\n    function getValidHash() public view returns(string) {\n        return validHash;\n    }\n}\n",
  "sourcePath": "/Users/hgleite/Documents/henrique/GoBlockchain/smart-contract-identity/contracts/identity/TermsAndCondition.sol",
  "compiler": {
    "name": "solc",
    "version": "0.4.24+commit.e67f0147.Emscripten.clang"
  },
  "schemaVersion": "2.0.0",
  "updatedAt": "2018-08-29T05:05:33.135Z"
}