{
  "contractName": "TermsAndCondition",
  "abi": [
    {
      "constant": true,
      "inputs": [
        {
          "name": "",
          "type": "uint256"
        }
      ],
      "name": "hashTerms",
      "outputs": [
        {
          "name": "",
          "type": "string"
        }
      ],
      "payable": false,
      "stateMutability": "view",
      "type": "function"
    },
    {
      "constant": true,
      "inputs": [
        {
          "name": "addr",
          "type": "address"
        },
        {
          "name": "roleName",
          "type": "string"
        }
      ],
      "name": "checkRole",
      "outputs": [],
      "payable": false,
      "stateMutability": "view",
      "type": "function"
    },
    {
      "constant": true,
      "inputs": [],
      "name": "ROLE_AMBASSADOR",
      "outputs": [
        {
          "name": "",
          "type": "string"
        }
      ],
      "payable": false,
      "stateMutability": "view",
      "type": "function"
    },
    {
      "constant": false,
      "inputs": [
        {
          "name": "_addr",
          "type": "address"
        }
      ],
      "name": "removeAdvisor",
      "outputs": [],
      "payable": false,
      "stateMutability": "nonpayable",
      "type": "function"
    },
    {
      "constant": true,
      "inputs": [
        {
          "name": "addr",
          "type": "address"
        },
        {
          "name": "roleName",
          "type": "string"
        }
      ],
      "name": "hasRole",
      "outputs": [
        {
          "name": "",
          "type": "bool"
        }
      ],
      "payable": false,
      "stateMutability": "view",
      "type": "function"
    },
    {
      "constant": true,
      "inputs": [
        {
          "name": "_addressUser",
          "type": "address"
        }
      ],
      "name": "isCollaborator",
      "outputs": [
        {
          "name": "_isCollaborator",
          "type": "bool"
        }
      ],
      "payable": false,
      "stateMutability": "view",
      "type": "function"
    },
    {
      "constant": false,
      "inputs": [
        {
          "name": "_advisors",
          "type": "address[]"
        }
      ],
      "name": "addAdvisors",
      "outputs": [],
      "payable": false,
      "stateMutability": "nonpayable",
      "type": "function"
    },
    {
      "constant": false,
      "inputs": [
        {
          "name": "_newSuperuser",
          "type": "address"
        }
      ],
      "name": "transferAdmin",
      "outputs": [],
      "payable": false,
      "stateMutability": "nonpayable",
      "type": "function"
    },
    {
      "constant": false,
      "inputs": [
        {
          "name": "addr",
          "type": "address"
        },
        {
          "name": "roleName",
          "type": "string"
        }
      ],
      "name": "adminRemoveRole",
      "outputs": [],
      "payable": false,
      "stateMutability": "nonpayable",
      "type": "function"
    },
    {
      "constant": true,
      "inputs": [],
      "name": "owner",
      "outputs": [
        {
          "name": "",
          "type": "address"
        }
      ],
      "payable": false,
      "stateMutability": "view",
      "type": "function"
    },
    {
      "constant": true,
      "inputs": [],
      "name": "validHash",
      "outputs": [
        {
          "name": "",
          "type": "string"
        }
      ],
      "payable": false,
      "stateMutability": "view",
      "type": "function"
    },
    {
      "constant": true,
      "inputs": [],
      "name": "ROLE_ADVISOR",
      "outputs": [
        {
          "name": "",
          "type": "string"
        }
      ],
      "payable": false,
      "stateMutability": "view",
      "type": "function"
    },
    {
      "constant": true,
      "inputs": [],
      "name": "ROLE_ADMIN",
      "outputs": [
        {
          "name": "",
          "type": "string"
        }
      ],
      "payable": false,
      "stateMutability": "view",
      "type": "function"
    },
    {
      "constant": true,
      "inputs": [],
      "name": "ROLE_COLLABORATOR",
      "outputs": [
        {
          "name": "",
          "type": "string"
        }
      ],
      "payable": false,
      "stateMutability": "view",
      "type": "function"
    },
    {
      "constant": true,
      "inputs": [],
      "name": "ROLE_ESPECIALIST",
      "outputs": [
        {
          "name": "",
          "type": "string"
        }
      ],
      "payable": false,
      "stateMutability": "view",
      "type": "function"
    },
    {
      "anonymous": false,
      "inputs": [
        {
          "indexed": false,
          "name": "sender",
          "type": "address"
        },
        {
          "indexed": false,
          "name": "time",
          "type": "uint256"
        },
        {
          "indexed": false,
          "name": "validHash",
          "type": "string"
        }
      ],
      "name": "TermsAndConditionChanged",
      "type": "event"
    },
    {
      "anonymous": false,
      "inputs": [
        {
          "indexed": false,
          "name": "collaborator",
          "type": "address"
        }
      ],
      "name": "NewCollaborator",
      "type": "event"
    },
    {
      "anonymous": false,
      "inputs": [
        {
          "indexed": false,
          "name": "addr",
          "type": "address"
        },
        {
          "indexed": false,
          "name": "roleName",
          "type": "string"
        }
      ],
      "name": "RoleAdded",
      "type": "event"
    },
    {
      "anonymous": false,
      "inputs": [
        {
          "indexed": false,
          "name": "addr",
          "type": "address"
        },
        {
          "indexed": false,
          "name": "roleName",
          "type": "string"
        }
      ],
      "name": "RoleRemoved",
      "type": "event"
    },
    {
      "anonymous": false,
      "inputs": [
        {
          "indexed": true,
          "name": "previousOwner",
          "type": "address"
        },
        {
          "indexed": true,
          "name": "newOwner",
          "type": "address"
        }
      ],
      "name": "OwnershipTransferred",
      "type": "event"
    },
    {
      "constant": false,
      "inputs": [
        {
          "name": "_hash",
          "type": "string"
        }
      ],
      "name": "setTermsAndCondition",
      "outputs": [],
      "payable": false,
      "stateMutability": "nonpayable",
      "type": "function"
    },
    {
      "constant": true,
      "inputs": [
        {
          "name": "_hash",
          "type": "string"
        }
      ],
      "name": "isValidHash",
      "outputs": [
        {
          "name": "",
          "type": "bool"
        }
      ],
      "payable": false,
      "stateMutability": "view",
      "type": "function"
    }
  ],
  "bytecode": "0x6080604052336000806101000a81548173ffffffffffffffffffffffffffffffffffffffff021916908373ffffffffffffffffffffffffffffffffffffffff16021790555062000094336040805190810160405280600581526020017f61646d696e000000000000000000000000000000000000000000000000000000815250620000ea640100000000026401000000009004565b620000e4336040805190810160405280600781526020017f61647669736f7200000000000000000000000000000000000000000000000000815250620000ea640100000000026401000000009004565b620002ae565b62000179826001836040518082805190602001908083835b60208310151562000129578051825260208201915060208101905060208303925062000102565b6001836020036101000a0380198251168184511680821785525050505050509050019150509081526020016040518091039020620002506401000000000262001909179091906401000000009004565b7fbfec83d64eaa953f2708271a023ab9ee82057f8f3578d548c1a4ba0b5b7004898282604051808373ffffffffffffffffffffffffffffffffffffffff1673ffffffffffffffffffffffffffffffffffffffff16815260200180602001828103825283818151815260200191508051906020019080838360005b8381101562000210578082015181840152602081019050620001f3565b50505050905090810190601f1680156200023e5780820380516001836020036101000a031916815260200191505b50935050505060405180910390a15050565b60018260000160008373ffffffffffffffffffffffffffffffffffffffff1673ffffffffffffffffffffffffffffffffffffffff16815260200190815260200160002060006101000a81548160ff0219169083151502179055505050565b611a3880620002be6000396000f3006080604052600436106100f1576000357c0100000000000000000000000000000000000000000000000000000000900463ffffffff168063035c36f1146100f65780630988ca8c1461019c5780630bbc74c6146102255780630eeccb84146102b5578063217fe6c6146102f8578063390541a5146103995780636af8c4e7146104025780636edcb12f1461045d578063730cc4fa146104de57806375829def1461054457806388cee87e146105875780638da5cb5b14610610578063cbda772214610667578063d1f8a4c1146106f7578063d391014b14610787578063ed3e024a14610817578063f583369b146108a7575b600080fd5b34801561010257600080fd5b5061012160048036038101908080359060200190929190505050610937565b6040518080602001828103825283818151815260200191508051906020019080838360005b83811015610161578082015181840152602081019050610146565b50505050905090810190601f16801561018e5780820380516001836020036101000a031916815260200191505b509250505060405180910390f35b3480156101a857600080fd5b50610223600480360381019080803573ffffffffffffffffffffffffffffffffffffffff169060200190929190803590602001908201803590602001908080601f01602080910402602001604051908101604052809392919081815260200183838082843782019150505050505091929192905050506109f2565b005b34801561023157600080fd5b5061023a610a73565b6040518080602001828103825283818151815260200191508051906020019080838360005b8381101561027a57808201518184015260208101905061025f565b50505050905090810190601f1680156102a75780820380516001836020036101000a031916815260200191505b509250505060405180910390f35b3480156102c157600080fd5b506102f6600480360381019080803573ffffffffffffffffffffffffffffffffffffffff169060200190929190505050610aac565b005b34801561030457600080fd5b5061037f600480360381019080803573ffffffffffffffffffffffffffffffffffffffff169060200190929190803590602001908201803590602001908080601f0160208091040260200160405190810160405280939291908181526020018383808284378201915050505050509192919290505050610b6c565b604051808215151515815260200191505060405180910390f35b3480156103a557600080fd5b50610400600480360381019080803590602001908201803590602001908080601f0160208091040260200160405190810160405280939291908181526020018383808284378201915050505050509192919290505050610bf3565b005b34801561040e57600080fd5b50610443600480360381019080803573ffffffffffffffffffffffffffffffffffffffff169060200190929190505050610dd2565b604051808215151515815260200191505060405180910390f35b34801561046957600080fd5b506104c4600480360381019080803590602001908201803590602001908080601f0160208091040260200160405190810160405280939291908181526020018383808284378201915050505050509192919290505050610f32565b604051808215151515815260200191505060405180910390f35b3480156104ea57600080fd5b506105426004803603810190808035906020019082018035906020019080806020026020016040519081016040528093929190818152602001838360200280828437820191505050505050919291929050505061114f565b005b34801561055057600080fd5b50610585600480360381019080803573ffffffffffffffffffffffffffffffffffffffff169060200190929190505050611256565b005b34801561059357600080fd5b5061060e600480360381019080803573ffffffffffffffffffffffffffffffffffffffff169060200190929190803590602001908201803590602001908080601f0160208091040260200160405190810160405280939291908181526020018383808284378201915050505050509192919290505050611352565b005b34801561061c57600080fd5b506106256113f0565b604051808273ffffffffffffffffffffffffffffffffffffffff1673ffffffffffffffffffffffffffffffffffffffff16815260200191505060405180910390f35b34801561067357600080fd5b5061067c611415565b6040518080602001828103825283818151815260200191508051906020019080838360005b838110156106bc5780820151818401526020810190506106a1565b50505050905090810190601f1680156106e95780820380516001836020036101000a031916815260200191505b509250505060405180910390f35b34801561070357600080fd5b5061070c6114b3565b6040518080602001828103825283818151815260200191508051906020019080838360005b8381101561074c578082015181840152602081019050610731565b50505050905090810190601f1680156107795780820380516001836020036101000a031916815260200191505b509250505060405180910390f35b34801561079357600080fd5b5061079c6114ec565b6040518080602001828103825283818151815260200191508051906020019080838360005b838110156107dc5780820151818401526020810190506107c1565b50505050905090810190601f1680156108095780820380516001836020036101000a031916815260200191505b509250505060405180910390f35b34801561082357600080fd5b5061082c611525565b6040518080602001828103825283818151815260200191508051906020019080838360005b8381101561086c578082015181840152602081019050610851565b50505050905090810190601f1680156108995780820380516001836020036101000a031916815260200191505b509250505060405180910390f35b3480156108b357600080fd5b506108bc61155e565b6040518080602001828103825283818151815260200191508051906020019080838360005b838110156108fc5780820151818401526020810190506108e1565b50505050905090810190601f1680156109295780820380516001836020036101000a031916815260200191505b509250505060405180910390f35b60028181548110151561094657fe5b906000526020600020016000915090508054600181600116156101000203166002900480601f0160208091040260200160405190810160405280929190818152602001828054600181600116156101000203166002900480156109ea5780601f106109bf576101008083540402835291602001916109ea565b820191906000526020600020905b8154815290600101906020018083116109cd57829003601f168201915b505050505081565b610a6f826001836040518082805190602001908083835b602083101515610a2e5780518252602082019150602081019050602083039250610a09565b6001836020036101000a038019825116818451168082178552505050505050905001915050908152602001604051809103902061159790919063ffffffff16565b5050565b6040805190810160405280600a81526020017f616d6261737361646f720000000000000000000000000000000000000000000081525081565b610aeb336040805190810160405280600581526020017f61646d696e0000000000000000000000000000000000000000000000000000008152506109f2565b610b2a816040805190810160405280600781526020017f61647669736f72000000000000000000000000000000000000000000000000008152506109f2565b610b69816040805190810160405280600781526020017f61647669736f72000000000000000000000000000000000000000000000000008152506115b0565b50565b6000610beb836001846040518082805190602001908083835b602083101515610baa5780518252602082019150602081019050602083039250610b85565b6001836020036101000a038019825116818451168082178552505050505050905001915050908152602001604051809103902061170190919063ffffffff16565b905092915050565b610c32336040805190810160405280600581526020017f61646d696e000000000000000000000000000000000000000000000000000000815250610b6c565b80610c785750610c77336040805190810160405280600781526020017f61647669736f7200000000000000000000000000000000000000000000000000815250610b6c565b5b1515610c8357600080fd5b6002819080600181540180825580915050906001820390600052602060002001600090919290919091509080519060200190610cc0929190611967565b50508060039080519060200190610cd8929190611967565b507f6d6eae271da0ff27174c7ef6da7f0ae76c697dbf8134161d15febe0708f7953133426003604051808473ffffffffffffffffffffffffffffffffffffffff1673ffffffffffffffffffffffffffffffffffffffff16815260200183815260200180602001828103825283818154600181600116156101000203166002900481526020019150805460018160011615610100020316600290048015610dbf5780601f10610d9457610100808354040283529160200191610dbf565b820191906000526020600020905b815481529060010190602001808311610da257829003601f168201915b505094505050505060405180910390a150565b6000610e13826040805190810160405280600581526020017f61646d696e000000000000000000000000000000000000000000000000000000815250610b6c565b80610e595750610e58826040805190810160405280600781526020017f61647669736f7200000000000000000000000000000000000000000000000000815250610b6c565b5b80610e9f5750610e9e826040805190810160405280600b81526020017f657370656369616c697374000000000000000000000000000000000000000000815250610b6c565b5b80610ee55750610ee4826040805190810160405280600a81526020017f616d6261737361646f7200000000000000000000000000000000000000000000815250610b6c565b5b80610f2b5750610f2a826040805190810160405280600c81526020017f636f6c6c61626f7261746f720000000000000000000000000000000000000000815250610b6c565b5b9050919050565b600060038054600181600116156101000203166002900480601f016020809104026020016040519081016040528092919081815260200182805460018160011615610100020316600290048015610fca5780601f10610f9f57610100808354040283529160200191610fca565b820191906000526020600020905b815481529060010190602001808311610fad57829003601f168201915b505050505073__StringUtils___________________________6346bdca9a9091846040518363ffffffff167c0100000000000000000000000000000000000000000000000000000000028152600401808060200180602001838103835285818151815260200191508051906020019080838360005b8381101561105b578082015181840152602081019050611040565b50505050905090810190601f1680156110885780820380516001836020036101000a031916815260200191505b50838103825284818151815260200191508051906020019080838360005b838110156110c15780820151818401526020810190506110a6565b50505050905090810190601f1680156110ee5780820380516001836020036101000a031916815260200191505b5094505050505060206040518083038186803b15801561110d57600080fd5b505af4158015611121573d6000803e3d6000fd5b505050506040513d602081101561113757600080fd5b81019080805190602001909291905050509050919050565b6000611190336040805190810160405280600581526020017f61646d696e000000000000000000000000000000000000000000000000000000815250610b6c565b806111d657506111d5336040805190810160405280600781526020017f61647669736f7200000000000000000000000000000000000000000000000000815250610b6c565b5b15156111e157600080fd5b600090505b815181101561125257611245828281518110151561120057fe5b906020019060200201516040805190810160405280600781526020017f61647669736f720000000000000000000000000000000000000000000000000081525061175a565b80806001019150506111e6565b5050565b611295336040805190810160405280600581526020017f61646d696e0000000000000000000000000000000000000000000000000000008152506109f2565b600073ffffffffffffffffffffffffffffffffffffffff168173ffffffffffffffffffffffffffffffffffffffff16141515156112d157600080fd5b611310336040805190810160405280600581526020017f61646d696e0000000000000000000000000000000000000000000000000000008152506115b0565b61134f816040805190810160405280600581526020017f61646d696e00000000000000000000000000000000000000000000000000000081525061175a565b50565b611391336040805190810160405280600581526020017f61646d696e000000000000000000000000000000000000000000000000000000815250610b6c565b806113d757506113d6336040805190810160405280600781526020017f61647669736f7200000000000000000000000000000000000000000000000000815250610b6c565b5b15156113e257600080fd5b6113ec82826115b0565b5050565b6000809054906101000a900473ffffffffffffffffffffffffffffffffffffffff1681565b60038054600181600116156101000203166002900480601f0160208091040260200160405190810160405280929190818152602001828054600181600116156101000203166002900480156114ab5780601f10611480576101008083540402835291602001916114ab565b820191906000526020600020905b81548152906001019060200180831161148e57829003601f168201915b505050505081565b6040805190810160405280600781526020017f61647669736f720000000000000000000000000000000000000000000000000081525081565b6040805190810160405280600581526020017f61646d696e00000000000000000000000000000000000000000000000000000081525081565b6040805190810160405280600c81526020017f636f6c6c61626f7261746f72000000000000000000000000000000000000000081525081565b6040805190810160405280600b81526020017f657370656369616c69737400000000000000000000000000000000000000000081525081565b6115a18282611701565b15156115ac57600080fd5b5050565b61162d826001836040518082805190602001908083835b6020831015156115ec57805182526020820191506020810190506020830392506115c7565b6001836020036101000a03801982511681845116808217855250505050505090500191505090815260200160405180910390206118ab90919063ffffffff16565b7fd211483f91fc6eff862467f8de606587a30c8fc9981056f051b897a418df803a8282604051808373ffffffffffffffffffffffffffffffffffffffff1673ffffffffffffffffffffffffffffffffffffffff16815260200180602001828103825283818151815260200191508051906020019080838360005b838110156116c25780820151818401526020810190506116a7565b50505050905090810190601f1680156116ef5780820380516001836020036101000a031916815260200191505b50935050505060405180910390a15050565b60008260000160008373ffffffffffffffffffffffffffffffffffffffff1673ffffffffffffffffffffffffffffffffffffffff16815260200190815260200160002060009054906101000a900460ff16905092915050565b6117d7826001836040518082805190602001908083835b6020831015156117965780518252602082019150602081019050602083039250611771565b6001836020036101000a038019825116818451168082178552505050505050905001915050908152602001604051809103902061190990919063ffffffff16565b7fbfec83d64eaa953f2708271a023ab9ee82057f8f3578d548c1a4ba0b5b7004898282604051808373ffffffffffffffffffffffffffffffffffffffff1673ffffffffffffffffffffffffffffffffffffffff16815260200180602001828103825283818151815260200191508051906020019080838360005b8381101561186c578082015181840152602081019050611851565b50505050905090810190601f1680156118995780820380516001836020036101000a031916815260200191505b50935050505060405180910390a15050565b60008260000160008373ffffffffffffffffffffffffffffffffffffffff1673ffffffffffffffffffffffffffffffffffffffff16815260200190815260200160002060006101000a81548160ff0219169083151502179055505050565b60018260000160008373ffffffffffffffffffffffffffffffffffffffff1673ffffffffffffffffffffffffffffffffffffffff16815260200190815260200160002060006101000a81548160ff0219169083151502179055505050565b828054600181600116156101000203166002900490600052602060002090601f016020900481019282601f106119a857805160ff19168380011785556119d6565b828001600101855582156119d6579182015b828111156119d55782518255916020019190600101906119ba565b5b5090506119e391906119e7565b5090565b611a0991905b80821115611a055760008160009055506001016119ed565b5090565b905600a165627a7a72305820e2c1bcb2b5ed7e203fe5f323ae6664019c5da9a73b5393858a8be2be15a9b0d70029",
  "source": "pragma solidity 0.4.24;\n\nimport \"../Collaborator.sol/\";\nimport \"../util/StringUtils.sol\";\n\ncontract TermsAndCondition is Collaborator {\n    using StringUtils for string;\n    string[] public hashTerms;\n    string public validHash;\n    event TermsAndConditionChanged(address sender, uint256 time, string validHash );\n\n    /**\n    * @dev Set the hash of terms and conditions;\n    * @param _hash The new valid hash\n    */\n    function setTermsAndCondition(string _hash) public onlyAdminOrAdvisor {\n        hashTerms.push(_hash);\n        validHash = _hash;\n        emit TermsAndConditionChanged(msg.sender, now, validHash);\n    }\n\n    /**\n    * @dev verify if current hash is valid with the parameter;\n    * @param _hash The hash sent by collaborator\n    * @return bool return true if the valid hash\n    */\n    function isValidHash(string _hash) public view returns(bool) {\n        return validHash.equal(_hash);\n    }    \n}\n",
  "sourcePath": "/Users/hgleite/Documents/henrique/GoBlockchain/smart-contract-identity/contracts/identity/TermsAndCondition.sol",
  "compiler": {
    "name": "solc",
    "version": "0.4.24+commit.e67f0147.Emscripten.clang"
  },
  "schemaVersion": "2.0.0",
  "updatedAt": "2018-08-16T02:33:59.260Z"
}