{
  "contractName": "TermsAndCondition",
  "abi": [
    {
      "constant": true,
      "inputs": [
        {
          "name": "",
          "type": "uint256"
        }
      ],
      "name": "hashTerms",
      "outputs": [
        {
          "name": "",
          "type": "string"
        }
      ],
      "payable": false,
      "stateMutability": "view",
      "type": "function"
    },
    {
      "constant": true,
      "inputs": [
        {
          "name": "addr",
          "type": "address"
        },
        {
          "name": "roleName",
          "type": "string"
        }
      ],
      "name": "checkRole",
      "outputs": [],
      "payable": false,
      "stateMutability": "view",
      "type": "function"
    },
    {
      "constant": true,
      "inputs": [],
      "name": "ROLE_AMBASSADOR",
      "outputs": [
        {
          "name": "",
          "type": "string"
        }
      ],
      "payable": false,
      "stateMutability": "view",
      "type": "function"
    },
    {
      "constant": false,
      "inputs": [
        {
          "name": "_addr",
          "type": "address"
        }
      ],
      "name": "removeAdvisor",
      "outputs": [],
      "payable": false,
      "stateMutability": "nonpayable",
      "type": "function"
    },
    {
      "constant": true,
      "inputs": [
        {
          "name": "addr",
          "type": "address"
        },
        {
          "name": "roleName",
          "type": "string"
        }
      ],
      "name": "hasRole",
      "outputs": [
        {
          "name": "",
          "type": "bool"
        }
      ],
      "payable": false,
      "stateMutability": "view",
      "type": "function"
    },
    {
      "constant": true,
      "inputs": [
        {
          "name": "_addressUser",
          "type": "address"
        }
      ],
      "name": "isCollaborator",
      "outputs": [
        {
          "name": "_isCollaborator",
          "type": "bool"
        }
      ],
      "payable": false,
      "stateMutability": "view",
      "type": "function"
    },
    {
      "constant": false,
      "inputs": [
        {
          "name": "_advisors",
          "type": "address[]"
        }
      ],
      "name": "addAdvisors",
      "outputs": [],
      "payable": false,
      "stateMutability": "nonpayable",
      "type": "function"
    },
    {
      "constant": false,
      "inputs": [
        {
          "name": "_newSuperuser",
          "type": "address"
        }
      ],
      "name": "transferAdmin",
      "outputs": [],
      "payable": false,
      "stateMutability": "nonpayable",
      "type": "function"
    },
    {
      "constant": false,
      "inputs": [
        {
          "name": "addr",
          "type": "address"
        },
        {
          "name": "roleName",
          "type": "string"
        }
      ],
      "name": "adminRemoveRole",
      "outputs": [],
      "payable": false,
      "stateMutability": "nonpayable",
      "type": "function"
    },
    {
      "constant": true,
      "inputs": [],
      "name": "owner",
      "outputs": [
        {
          "name": "",
          "type": "address"
        }
      ],
      "payable": false,
      "stateMutability": "view",
      "type": "function"
    },
    {
      "constant": true,
      "inputs": [],
      "name": "validHash",
      "outputs": [
        {
          "name": "",
          "type": "string"
        }
      ],
      "payable": false,
      "stateMutability": "view",
      "type": "function"
    },
    {
      "constant": true,
      "inputs": [],
      "name": "ROLE_ADVISOR",
      "outputs": [
        {
          "name": "",
          "type": "string"
        }
      ],
      "payable": false,
      "stateMutability": "view",
      "type": "function"
    },
    {
      "constant": true,
      "inputs": [],
      "name": "ROLE_ADMIN",
      "outputs": [
        {
          "name": "",
          "type": "string"
        }
      ],
      "payable": false,
      "stateMutability": "view",
      "type": "function"
    },
    {
      "constant": true,
      "inputs": [],
      "name": "ROLE_COLLABORATOR",
      "outputs": [
        {
          "name": "",
          "type": "string"
        }
      ],
      "payable": false,
      "stateMutability": "view",
      "type": "function"
    },
    {
      "constant": true,
      "inputs": [],
      "name": "ROLE_ESPECIALIST",
      "outputs": [
        {
          "name": "",
          "type": "string"
        }
      ],
      "payable": false,
      "stateMutability": "view",
      "type": "function"
    },
    {
      "anonymous": false,
      "inputs": [
        {
          "indexed": false,
          "name": "sender",
          "type": "address"
        },
        {
          "indexed": false,
          "name": "time",
          "type": "uint256"
        },
        {
          "indexed": false,
          "name": "validHash",
          "type": "string"
        }
      ],
      "name": "TermsAndConditionChanged",
      "type": "event"
    },
    {
      "anonymous": false,
      "inputs": [
        {
          "indexed": false,
          "name": "collaborator",
          "type": "address"
        }
      ],
      "name": "NewCollaborator",
      "type": "event"
    },
    {
      "anonymous": false,
      "inputs": [
        {
          "indexed": false,
          "name": "qtd",
          "type": "uint8"
        },
        {
          "indexed": false,
          "name": "responsable",
          "type": "address"
        }
      ],
      "name": "NewAdvisors",
      "type": "event"
    },
    {
      "anonymous": false,
      "inputs": [
        {
          "indexed": false,
          "name": "addr",
          "type": "address"
        },
        {
          "indexed": false,
          "name": "roleName",
          "type": "string"
        }
      ],
      "name": "RoleAdded",
      "type": "event"
    },
    {
      "anonymous": false,
      "inputs": [
        {
          "indexed": false,
          "name": "addr",
          "type": "address"
        },
        {
          "indexed": false,
          "name": "roleName",
          "type": "string"
        }
      ],
      "name": "RoleRemoved",
      "type": "event"
    },
    {
      "anonymous": false,
      "inputs": [
        {
          "indexed": true,
          "name": "previousOwner",
          "type": "address"
        },
        {
          "indexed": true,
          "name": "newOwner",
          "type": "address"
        }
      ],
      "name": "OwnershipTransferred",
      "type": "event"
    },
    {
      "constant": false,
      "inputs": [
        {
          "name": "_hash",
          "type": "string"
        }
      ],
      "name": "setTermsAndCondition",
      "outputs": [],
      "payable": false,
      "stateMutability": "nonpayable",
      "type": "function"
    },
    {
      "constant": true,
      "inputs": [],
      "name": "getValidHash",
      "outputs": [
        {
          "name": "",
          "type": "string"
        }
      ],
      "payable": false,
      "stateMutability": "view",
      "type": "function"
    }
  ],
  "bytecode": "0x6080604052336000806101000a81548173ffffffffffffffffffffffffffffffffffffffff021916908373ffffffffffffffffffffffffffffffffffffffff16021790555062000094336040805190810160405280600581526020017f61646d696e000000000000000000000000000000000000000000000000000000815250620000ea640100000000026401000000009004565b620000e4336040805190810160405280600781526020017f61647669736f7200000000000000000000000000000000000000000000000000815250620000ea640100000000026401000000009004565b620002ae565b62000179826001836040518082805190602001908083835b60208310151562000129578051825260208201915060208101905060208303925062000102565b6001836020036101000a038019825116818451168082178552505050505050905001915050908152602001604051809103902062000250640100000000026200180f179091906401000000009004565b7fbfec83d64eaa953f2708271a023ab9ee82057f8f3578d548c1a4ba0b5b7004898282604051808373ffffffffffffffffffffffffffffffffffffffff1673ffffffffffffffffffffffffffffffffffffffff16815260200180602001828103825283818151815260200191508051906020019080838360005b8381101562000210578082015181840152602081019050620001f3565b50505050905090810190601f1680156200023e5780820380516001836020036101000a031916815260200191505b50935050505060405180910390a15050565b60018260000160008373ffffffffffffffffffffffffffffffffffffffff1673ffffffffffffffffffffffffffffffffffffffff16815260200190815260200160002060006101000a81548160ff0219169083151502179055505050565b61193e80620002be6000396000f3006080604052600436106100f1576000357c0100000000000000000000000000000000000000000000000000000000900463ffffffff168063035c36f1146100f65780630988ca8c1461019c5780630bbc74c6146102255780630eeccb84146102b5578063217fe6c6146102f8578063390541a5146103995780636af8c4e714610402578063730cc4fa1461045d57806375829def146104c35780638129301c1461050657806388cee87e146105965780638da5cb5b1461061f578063cbda772214610676578063d1f8a4c114610706578063d391014b14610796578063ed3e024a14610826578063f583369b146108b6575b600080fd5b34801561010257600080fd5b5061012160048036038101908080359060200190929190505050610946565b6040518080602001828103825283818151815260200191508051906020019080838360005b83811015610161578082015181840152602081019050610146565b50505050905090810190601f16801561018e5780820380516001836020036101000a031916815260200191505b509250505060405180910390f35b3480156101a857600080fd5b50610223600480360381019080803573ffffffffffffffffffffffffffffffffffffffff169060200190929190803590602001908201803590602001908080601f0160208091040260200160405190810160405280939291908181526020018383808284378201915050505050509192919290505050610a01565b005b34801561023157600080fd5b5061023a610a82565b6040518080602001828103825283818151815260200191508051906020019080838360005b8381101561027a57808201518184015260208101905061025f565b50505050905090810190601f1680156102a75780820380516001836020036101000a031916815260200191505b509250505060405180910390f35b3480156102c157600080fd5b506102f6600480360381019080803573ffffffffffffffffffffffffffffffffffffffff169060200190929190505050610abb565b005b34801561030457600080fd5b5061037f600480360381019080803573ffffffffffffffffffffffffffffffffffffffff169060200190929190803590602001908201803590602001908080601f0160208091040260200160405190810160405280939291908181526020018383808284378201915050505050509192919290505050610b7b565b604051808215151515815260200191505060405180910390f35b3480156103a557600080fd5b50610400600480360381019080803590602001908201803590602001908080601f0160208091040260200160405190810160405280939291908181526020018383808284378201915050505050509192919290505050610c02565b005b34801561040e57600080fd5b50610443600480360381019080803573ffffffffffffffffffffffffffffffffffffffff169060200190929190505050610de1565b604051808215151515815260200191505060405180910390f35b34801561046957600080fd5b506104c160048036038101908080359060200190820180359060200190808060200260200160405190810160405280939291908181526020018383602002808284378201915050505050509192919290505050610f41565b005b3480156104cf57600080fd5b50610504600480360381019080803573ffffffffffffffffffffffffffffffffffffffff1690602001909291905050506110ba565b005b34801561051257600080fd5b5061051b6111b6565b6040518080602001828103825283818151815260200191508051906020019080838360005b8381101561055b578082015181840152602081019050610540565b50505050905090810190601f1680156105885780820380516001836020036101000a031916815260200191505b509250505060405180910390f35b3480156105a257600080fd5b5061061d600480360381019080803573ffffffffffffffffffffffffffffffffffffffff169060200190929190803590602001908201803590602001908080601f0160208091040260200160405190810160405280939291908181526020018383808284378201915050505050509192919290505050611258565b005b34801561062b57600080fd5b506106346112f6565b604051808273ffffffffffffffffffffffffffffffffffffffff1673ffffffffffffffffffffffffffffffffffffffff16815260200191505060405180910390f35b34801561068257600080fd5b5061068b61131b565b6040518080602001828103825283818151815260200191508051906020019080838360005b838110156106cb5780820151818401526020810190506106b0565b50505050905090810190601f1680156106f85780820380516001836020036101000a031916815260200191505b509250505060405180910390f35b34801561071257600080fd5b5061071b6113b9565b6040518080602001828103825283818151815260200191508051906020019080838360005b8381101561075b578082015181840152602081019050610740565b50505050905090810190601f1680156107885780820380516001836020036101000a031916815260200191505b509250505060405180910390f35b3480156107a257600080fd5b506107ab6113f2565b6040518080602001828103825283818151815260200191508051906020019080838360005b838110156107eb5780820151818401526020810190506107d0565b50505050905090810190601f1680156108185780820380516001836020036101000a031916815260200191505b509250505060405180910390f35b34801561083257600080fd5b5061083b61142b565b6040518080602001828103825283818151815260200191508051906020019080838360005b8381101561087b578082015181840152602081019050610860565b50505050905090810190601f1680156108a85780820380516001836020036101000a031916815260200191505b509250505060405180910390f35b3480156108c257600080fd5b506108cb611464565b6040518080602001828103825283818151815260200191508051906020019080838360005b8381101561090b5780820151818401526020810190506108f0565b50505050905090810190601f1680156109385780820380516001836020036101000a031916815260200191505b509250505060405180910390f35b60028181548110151561095557fe5b906000526020600020016000915090508054600181600116156101000203166002900480601f0160208091040260200160405190810160405280929190818152602001828054600181600116156101000203166002900480156109f95780601f106109ce576101008083540402835291602001916109f9565b820191906000526020600020905b8154815290600101906020018083116109dc57829003601f168201915b505050505081565b610a7e826001836040518082805190602001908083835b602083101515610a3d5780518252602082019150602081019050602083039250610a18565b6001836020036101000a038019825116818451168082178552505050505050905001915050908152602001604051809103902061149d90919063ffffffff16565b5050565b6040805190810160405280600a81526020017f616d6261737361646f720000000000000000000000000000000000000000000081525081565b610afa336040805190810160405280600581526020017f61646d696e000000000000000000000000000000000000000000000000000000815250610a01565b610b39816040805190810160405280600781526020017f61647669736f7200000000000000000000000000000000000000000000000000815250610a01565b610b78816040805190810160405280600781526020017f61647669736f72000000000000000000000000000000000000000000000000008152506114b6565b50565b6000610bfa836001846040518082805190602001908083835b602083101515610bb95780518252602082019150602081019050602083039250610b94565b6001836020036101000a038019825116818451168082178552505050505050905001915050908152602001604051809103902061160790919063ffffffff16565b905092915050565b610c41336040805190810160405280600581526020017f61646d696e000000000000000000000000000000000000000000000000000000815250610b7b565b80610c875750610c86336040805190810160405280600781526020017f61647669736f7200000000000000000000000000000000000000000000000000815250610b7b565b5b1515610c9257600080fd5b6002819080600181540180825580915050906001820390600052602060002001600090919290919091509080519060200190610ccf92919061186d565b50508060039080519060200190610ce792919061186d565b507f6d6eae271da0ff27174c7ef6da7f0ae76c697dbf8134161d15febe0708f7953133426003604051808473ffffffffffffffffffffffffffffffffffffffff1673ffffffffffffffffffffffffffffffffffffffff16815260200183815260200180602001828103825283818154600181600116156101000203166002900481526020019150805460018160011615610100020316600290048015610dce5780601f10610da357610100808354040283529160200191610dce565b820191906000526020600020905b815481529060010190602001808311610db157829003601f168201915b505094505050505060405180910390a150565b6000610e22826040805190810160405280600581526020017f61646d696e000000000000000000000000000000000000000000000000000000815250610b7b565b80610e685750610e67826040805190810160405280600781526020017f61647669736f7200000000000000000000000000000000000000000000000000815250610b7b565b5b80610eae5750610ead826040805190810160405280600b81526020017f657370656369616c697374000000000000000000000000000000000000000000815250610b7b565b5b80610ef45750610ef3826040805190810160405280600a81526020017f616d6261737361646f7200000000000000000000000000000000000000000000815250610b7b565b5b80610f3a5750610f39826040805190810160405280600c81526020017f636f6c6c61626f7261746f720000000000000000000000000000000000000000815250610b7b565b5b9050919050565b6000610f82336040805190810160405280600581526020017f61646d696e000000000000000000000000000000000000000000000000000000815250610b7b565b80610fc85750610fc7336040805190810160405280600781526020017f61647669736f7200000000000000000000000000000000000000000000000000815250610b7b565b5b1515610fd357600080fd5b600090505b8151811015611044576110378282815181101515610ff257fe5b906020019060200201516040805190810160405280600781526020017f61647669736f7200000000000000000000000000000000000000000000000000815250611660565b8080600101915050610fd8565b7ff6b3dad323d4fe309efd8e13dfa1c0c9468967428cab4fc2de574e99be84e095825133604051808360ff1660ff1681526020018273ffffffffffffffffffffffffffffffffffffffff1673ffffffffffffffffffffffffffffffffffffffff1681526020019250505060405180910390a15050565b6110f9336040805190810160405280600581526020017f61646d696e000000000000000000000000000000000000000000000000000000815250610a01565b600073ffffffffffffffffffffffffffffffffffffffff168173ffffffffffffffffffffffffffffffffffffffff161415151561113557600080fd5b611174336040805190810160405280600581526020017f61646d696e0000000000000000000000000000000000000000000000000000008152506114b6565b6111b3816040805190810160405280600581526020017f61646d696e000000000000000000000000000000000000000000000000000000815250611660565b50565b606060038054600181600116156101000203166002900480601f01602080910402602001604051908101604052809291908181526020018280546001816001161561010002031660029004801561124e5780601f106112235761010080835404028352916020019161124e565b820191906000526020600020905b81548152906001019060200180831161123157829003601f168201915b5050505050905090565b611297336040805190810160405280600581526020017f61646d696e000000000000000000000000000000000000000000000000000000815250610b7b565b806112dd57506112dc336040805190810160405280600781526020017f61647669736f7200000000000000000000000000000000000000000000000000815250610b7b565b5b15156112e857600080fd5b6112f282826114b6565b5050565b6000809054906101000a900473ffffffffffffffffffffffffffffffffffffffff1681565b60038054600181600116156101000203166002900480601f0160208091040260200160405190810160405280929190818152602001828054600181600116156101000203166002900480156113b15780601f10611386576101008083540402835291602001916113b1565b820191906000526020600020905b81548152906001019060200180831161139457829003601f168201915b505050505081565b6040805190810160405280600781526020017f61647669736f720000000000000000000000000000000000000000000000000081525081565b6040805190810160405280600581526020017f61646d696e00000000000000000000000000000000000000000000000000000081525081565b6040805190810160405280600c81526020017f636f6c6c61626f7261746f72000000000000000000000000000000000000000081525081565b6040805190810160405280600b81526020017f657370656369616c69737400000000000000000000000000000000000000000081525081565b6114a78282611607565b15156114b257600080fd5b5050565b611533826001836040518082805190602001908083835b6020831015156114f257805182526020820191506020810190506020830392506114cd565b6001836020036101000a03801982511681845116808217855250505050505090500191505090815260200160405180910390206117b190919063ffffffff16565b7fd211483f91fc6eff862467f8de606587a30c8fc9981056f051b897a418df803a8282604051808373ffffffffffffffffffffffffffffffffffffffff1673ffffffffffffffffffffffffffffffffffffffff16815260200180602001828103825283818151815260200191508051906020019080838360005b838110156115c85780820151818401526020810190506115ad565b50505050905090810190601f1680156115f55780820380516001836020036101000a031916815260200191505b50935050505060405180910390a15050565b60008260000160008373ffffffffffffffffffffffffffffffffffffffff1673ffffffffffffffffffffffffffffffffffffffff16815260200190815260200160002060009054906101000a900460ff16905092915050565b6116dd826001836040518082805190602001908083835b60208310151561169c5780518252602082019150602081019050602083039250611677565b6001836020036101000a038019825116818451168082178552505050505050905001915050908152602001604051809103902061180f90919063ffffffff16565b7fbfec83d64eaa953f2708271a023ab9ee82057f8f3578d548c1a4ba0b5b7004898282604051808373ffffffffffffffffffffffffffffffffffffffff1673ffffffffffffffffffffffffffffffffffffffff16815260200180602001828103825283818151815260200191508051906020019080838360005b83811015611772578082015181840152602081019050611757565b50505050905090810190601f16801561179f5780820380516001836020036101000a031916815260200191505b50935050505060405180910390a15050565b60008260000160008373ffffffffffffffffffffffffffffffffffffffff1673ffffffffffffffffffffffffffffffffffffffff16815260200190815260200160002060006101000a81548160ff0219169083151502179055505050565b60018260000160008373ffffffffffffffffffffffffffffffffffffffff1673ffffffffffffffffffffffffffffffffffffffff16815260200190815260200160002060006101000a81548160ff0219169083151502179055505050565b828054600181600116156101000203166002900490600052602060002090601f016020900481019282601f106118ae57805160ff19168380011785556118dc565b828001600101855582156118dc579182015b828111156118db5782518255916020019190600101906118c0565b5b5090506118e991906118ed565b5090565b61190f91905b8082111561190b5760008160009055506001016118f3565b5090565b905600a165627a7a72305820b9474caceb26d8a838900dfb0f68f0ddde5a48013d81a5c0aab992b9930f22d70029",
  "source": "pragma solidity 0.4.24;\n\nimport \"../Collaborator.sol\";\n\ncontract TermsAndCondition is Collaborator {\n    string[] public hashTerms;\n    string public validHash;\n    event TermsAndConditionChanged(address sender, uint256 time, string validHash );\n\n    /**\n    * @dev Set the hash of terms and conditions;\n    * @param _hash The new valid hash\n    */\n    function setTermsAndCondition(string _hash) public onlyAdminOrAdvisor {\n        hashTerms.push(_hash);\n        validHash = _hash;\n        emit TermsAndConditionChanged(msg.sender, now, validHash);\n    }\n\n\n    /**\n    * @dev Return the last hash\n    * @return string\n    */\n    function getValidHash() public view returns(string) {\n        return validHash;\n    }\n}\n",
  "sourcePath": "/Users/hgleite/Documents/henrique/GoBlockchain/smart-contract-identity/contracts/identity/TermsAndCondition.sol",
  "compiler": {
    "name": "solc",
    "version": "0.4.24+commit.e67f0147.Emscripten.clang"
  },
  "schemaVersion": "2.0.0",
  "updatedAt": "2018-08-18T23:53:43.619Z"
}